{
  "contractName": "SupplyChainUser",
  "abi": [
    {
      "inputs": [
        {
          "internalType": "address",
          "name": "_supplyChainAddress",
          "type": "address"
        }
      ],
      "stateMutability": "nonpayable",
      "type": "constructor"
    },
    {
      "anonymous": false,
      "inputs": [
        {
          "indexed": true,
          "internalType": "address",
          "name": "previousOwner",
          "type": "address"
        }
      ],
      "name": "OwnershipRenounced",
      "type": "event"
    },
    {
      "anonymous": false,
      "inputs": [
        {
          "indexed": true,
          "internalType": "address",
          "name": "previusOwner",
          "type": "address"
        },
        {
          "indexed": true,
          "internalType": "address",
          "name": "newOwner",
          "type": "address"
        }
      ],
      "name": "OwnershipTransferred",
      "type": "event"
    },
    {
      "anonymous": false,
      "inputs": [
        {
          "indexed": true,
          "internalType": "address",
          "name": "user",
          "type": "address"
        },
        {
          "indexed": false,
          "internalType": "string",
          "name": "role",
          "type": "string"
        }
      ],
      "name": "UserRoleUpdate",
      "type": "event"
    },
    {
      "anonymous": false,
      "inputs": [
        {
          "indexed": true,
          "internalType": "address",
          "name": "user",
          "type": "address"
        },
        {
          "indexed": false,
          "internalType": "string",
          "name": "name",
          "type": "string"
        },
        {
          "indexed": false,
          "internalType": "string",
          "name": "email",
          "type": "string"
        },
        {
          "indexed": false,
          "internalType": "string",
          "name": "role",
          "type": "string"
        },
        {
          "indexed": false,
          "internalType": "bool",
          "name": "isActive",
          "type": "bool"
        },
        {
          "indexed": false,
          "internalType": "string",
          "name": "profileHash",
          "type": "string"
        }
      ],
      "name": "UserUpdate",
      "type": "event"
    },
    {
      "inputs": [],
      "name": "owner",
      "outputs": [
        {
          "internalType": "address",
          "name": "",
          "type": "address"
        }
      ],
      "stateMutability": "view",
      "type": "function"
    },
    {
      "inputs": [],
      "name": "renounceOwnership",
      "outputs": [],
      "stateMutability": "nonpayable",
      "type": "function"
    },
    {
      "inputs": [
        {
          "internalType": "address",
          "name": "newOwner",
          "type": "address"
        }
      ],
      "name": "transferOwnership",
      "outputs": [],
      "stateMutability": "nonpayable",
      "type": "function"
    },
    {
      "inputs": [
        {
          "internalType": "string",
          "name": "_name",
          "type": "string"
        },
        {
          "internalType": "string",
          "name": "_email",
          "type": "string"
        },
        {
          "internalType": "string",
          "name": "_role",
          "type": "string"
        },
        {
          "internalType": "bool",
          "name": "_isActive",
          "type": "bool"
        },
        {
          "internalType": "string",
          "name": "_profileHash",
          "type": "string"
        }
      ],
      "name": "updateUser",
      "outputs": [
        {
          "internalType": "bool",
          "name": "",
          "type": "bool"
        }
      ],
      "stateMutability": "nonpayable",
      "type": "function"
    },
    {
      "inputs": [
        {
          "internalType": "address",
          "name": "_userAddress",
          "type": "address"
        },
        {
          "internalType": "string",
          "name": "_name",
          "type": "string"
        },
        {
          "internalType": "string",
          "name": "_email",
          "type": "string"
        },
        {
          "internalType": "string",
          "name": "_role",
          "type": "string"
        },
        {
          "internalType": "bool",
          "name": "_isActive",
          "type": "bool"
        },
        {
          "internalType": "string",
          "name": "_profileHash",
          "type": "string"
        }
      ],
      "name": "updateUserForAdmin",
      "outputs": [
        {
          "internalType": "bool",
          "name": "",
          "type": "bool"
        }
      ],
      "stateMutability": "nonpayable",
      "type": "function"
    },
    {
      "inputs": [
        {
          "internalType": "address",
          "name": "_userAddress",
          "type": "address"
        }
      ],
      "name": "getUser",
      "outputs": [
        {
          "internalType": "string",
          "name": "name",
          "type": "string"
        },
        {
          "internalType": "string",
          "name": "email",
          "type": "string"
        },
        {
          "internalType": "string",
          "name": "role",
          "type": "string"
        },
        {
          "internalType": "bool",
          "name": "isActive",
          "type": "bool"
        },
        {
          "internalType": "string",
          "name": "profileHash",
          "type": "string"
        }
      ],
      "stateMutability": "view",
      "type": "function"
    }
  ],
  "bytecode": "0x60806040523480156200001157600080fd5b506040516200119638038062001196833981810160405281019062000037919062000129565b336000806101000a81548173ffffffffffffffffffffffffffffffffffffffff021916908373ffffffffffffffffffffffffffffffffffffffff16021790555080600160006101000a81548173ffffffffffffffffffffffffffffffffffffffff021916908373ffffffffffffffffffffffffffffffffffffffff160217905550506200015b565b600080fd5b600073ffffffffffffffffffffffffffffffffffffffff82169050919050565b6000620000f182620000c4565b9050919050565b6200010381620000e4565b81146200010f57600080fd5b50565b6000815190506200012381620000f8565b92915050565b600060208284031215620001425762000141620000bf565b5b6000620001528482850162000112565b91505092915050565b61102b806200016b6000396000f3fe608060405234801561001057600080fd5b50600436106100625760003560e01c80631e7d76aa146100675780636f77926b14610097578063715018a6146100cb5780638da5cb5b146100d5578063f2fde38b146100f3578063f5c8dee91461010f575b600080fd5b610081600480360381019061007c9190610a59565b61013f565b60405161008e9190610b65565b60405180910390f35b6100b160048036038101906100ac9190610b80565b610341565b6040516100c2959493929190610c35565b60405180910390f35b6100d3610451565b005b6100dd61054f565b6040516100ea9190610cb3565b60405180910390f35b61010d60048036038101906101089190610b80565b610573565b005b61012960048036038101906101249190610cce565b6106c2565b6040516101369190610b65565b60405180910390f35b60008060009054906101000a900473ffffffffffffffffffffffffffffffffffffffff1673ffffffffffffffffffffffffffffffffffffffff163373ffffffffffffffffffffffffffffffffffffffff161461019a57600080fd5b600073ffffffffffffffffffffffffffffffffffffffff168773ffffffffffffffffffffffffffffffffffffffff1614156101d457600080fd5b6000600160009054906101000a900473ffffffffffffffffffffffffffffffffffffffff1673ffffffffffffffffffffffffffffffffffffffff1663fb7a20af8989898989896040518763ffffffff1660e01b815260040161023b96959493929190610db9565b602060405180830381600087803b15801561025557600080fd5b505af1158015610269573d6000803e3d6000fd5b505050506040513d601f19601f8201168201806040525081019061028d9190610e4b565b90508773ffffffffffffffffffffffffffffffffffffffff167f913673700610456ef7bb668e20badb980d1e4df0ba5bfbdbb6e7bfb0ddbcc6c988888888886040516102dd959493929190610c35565b60405180910390a28773ffffffffffffffffffffffffffffffffffffffff167f3b419384c2ac88d62e2daac72f8c6e6398c474d91c63e814a307e3641762c8de8660405161032b9190610e78565b60405180910390a2809150509695505050505050565b606080606060006060600073ffffffffffffffffffffffffffffffffffffffff168673ffffffffffffffffffffffffffffffffffffffff16141561038457600080fd5b600160009054906101000a900473ffffffffffffffffffffffffffffffffffffffff1673ffffffffffffffffffffffffffffffffffffffff16636f77926b876040518263ffffffff1660e01b81526004016103df9190610cb3565b60006040518083038186803b1580156103f757600080fd5b505afa15801561040b573d6000803e3d6000fd5b505050506040513d6000823e3d601f19601f820116820180604052508101906104349190610f0a565b809550819650829750839850849950505050505091939590929450565b60008054906101000a900473ffffffffffffffffffffffffffffffffffffffff1673ffffffffffffffffffffffffffffffffffffffff163373ffffffffffffffffffffffffffffffffffffffff16146104a957600080fd5b60008054906101000a900473ffffffffffffffffffffffffffffffffffffffff1673ffffffffffffffffffffffffffffffffffffffff167ff8df31144d9c2f0f6b59d69b8b98abd5459d07f2742c4df920b25aae33c6482060405160405180910390a260008060006101000a81548173ffffffffffffffffffffffffffffffffffffffff021916908373ffffffffffffffffffffffffffffffffffffffff160217905550565b60008054906101000a900473ffffffffffffffffffffffffffffffffffffffff1681565b60008054906101000a900473ffffffffffffffffffffffffffffffffffffffff1673ffffffffffffffffffffffffffffffffffffffff163373ffffffffffffffffffffffffffffffffffffffff16146105cb57600080fd5b600073ffffffffffffffffffffffffffffffffffffffff168173ffffffffffffffffffffffffffffffffffffffff16141561060557600080fd5b8073ffffffffffffffffffffffffffffffffffffffff1660008054906101000a900473ffffffffffffffffffffffffffffffffffffffff1673ffffffffffffffffffffffffffffffffffffffff167f8be0079c531659141344cd1fd0a4f28419497f9722a3daafe3b4186f6b6457e060405160405180910390a3806000806101000a81548173ffffffffffffffffffffffffffffffffffffffff021916908373ffffffffffffffffffffffffffffffffffffffff16021790555050565b60008073ffffffffffffffffffffffffffffffffffffffff163373ffffffffffffffffffffffffffffffffffffffff1614156106fd57600080fd5b6000600160009054906101000a900473ffffffffffffffffffffffffffffffffffffffff1673ffffffffffffffffffffffffffffffffffffffff1663fb7a20af3389898989896040518763ffffffff1660e01b815260040161076496959493929190610db9565b602060405180830381600087803b15801561077e57600080fd5b505af1158015610792573d6000803e3d6000fd5b505050506040513d601f19601f820116820180604052508101906107b69190610e4b565b90503373ffffffffffffffffffffffffffffffffffffffff167f913673700610456ef7bb668e20badb980d1e4df0ba5bfbdbb6e7bfb0ddbcc6c98888888888604051610806959493929190610c35565b60405180910390a23373ffffffffffffffffffffffffffffffffffffffff167f3b419384c2ac88d62e2daac72f8c6e6398c474d91c63e814a307e3641762c8de866040516108549190610e78565b60405180910390a28091505095945050505050565b6000604051905090565b600080fd5b600080fd5b600073ffffffffffffffffffffffffffffffffffffffff82169050919050565b60006108a88261087d565b9050919050565b6108b88161089d565b81146108c357600080fd5b50565b6000813590506108d5816108af565b92915050565b600080fd5b600080fd5b6000601f19601f8301169050919050565b7f4e487b7100000000000000000000000000000000000000000000000000000000600052604160045260246000fd5b61092e826108e5565b810181811067ffffffffffffffff8211171561094d5761094c6108f6565b5b80604052505050565b6000610960610869565b905061096c8282610925565b919050565b600067ffffffffffffffff82111561098c5761098b6108f6565b5b610995826108e5565b9050602081019050919050565b82818337600083830152505050565b60006109c46109bf84610971565b610956565b9050828152602081018484840111156109e0576109df6108e0565b5b6109eb8482856109a2565b509392505050565b600082601f830112610a0857610a076108db565b5b8135610a188482602086016109b1565b91505092915050565b60008115159050919050565b610a3681610a21565b8114610a4157600080fd5b50565b600081359050610a5381610a2d565b92915050565b60008060008060008060c08789031215610a7657610a75610873565b5b6000610a8489828a016108c6565b965050602087013567ffffffffffffffff811115610aa557610aa4610878565b5b610ab189828a016109f3565b955050604087013567ffffffffffffffff811115610ad257610ad1610878565b5b610ade89828a016109f3565b945050606087013567ffffffffffffffff811115610aff57610afe610878565b5b610b0b89828a016109f3565b9350506080610b1c89828a01610a44565b92505060a087013567ffffffffffffffff811115610b3d57610b3c610878565b5b610b4989828a016109f3565b9150509295509295509295565b610b5f81610a21565b82525050565b6000602082019050610b7a6000830184610b56565b92915050565b600060208284031215610b9657610b95610873565b5b6000610ba4848285016108c6565b91505092915050565b600081519050919050565b600082825260208201905092915050565b60005b83811015610be7578082015181840152602081019050610bcc565b83811115610bf6576000848401525b50505050565b6000610c0782610bad565b610c118185610bb8565b9350610c21818560208601610bc9565b610c2a816108e5565b840191505092915050565b600060a0820190508181036000830152610c4f8188610bfc565b90508181036020830152610c638187610bfc565b90508181036040830152610c778186610bfc565b9050610c866060830185610b56565b8181036080830152610c988184610bfc565b90509695505050505050565b610cad8161089d565b82525050565b6000602082019050610cc86000830184610ca4565b92915050565b600080600080600060a08688031215610cea57610ce9610873565b5b600086013567ffffffffffffffff811115610d0857610d07610878565b5b610d14888289016109f3565b955050602086013567ffffffffffffffff811115610d3557610d34610878565b5b610d41888289016109f3565b945050604086013567ffffffffffffffff811115610d6257610d61610878565b5b610d6e888289016109f3565b9350506060610d7f88828901610a44565b925050608086013567ffffffffffffffff811115610da057610d9f610878565b5b610dac888289016109f3565b9150509295509295909350565b600060c082019050610dce6000830189610ca4565b8181036020830152610de08188610bfc565b90508181036040830152610df48187610bfc565b90508181036060830152610e088186610bfc565b9050610e176080830185610b56565b81810360a0830152610e298184610bfc565b9050979650505050505050565b600081519050610e4581610a2d565b92915050565b600060208284031215610e6157610e60610873565b5b6000610e6f84828501610e36565b91505092915050565b60006020820190508181036000830152610e928184610bfc565b905092915050565b6000610ead610ea884610971565b610956565b905082815260208101848484011115610ec957610ec86108e0565b5b610ed4848285610bc9565b509392505050565b600082601f830112610ef157610ef06108db565b5b8151610f01848260208601610e9a565b91505092915050565b600080600080600060a08688031215610f2657610f25610873565b5b600086015167ffffffffffffffff811115610f4457610f43610878565b5b610f5088828901610edc565b955050602086015167ffffffffffffffff811115610f7157610f70610878565b5b610f7d88828901610edc565b945050604086015167ffffffffffffffff811115610f9e57610f9d610878565b5b610faa88828901610edc565b9350506060610fbb88828901610e36565b925050608086015167ffffffffffffffff811115610fdc57610fdb610878565b5b610fe888828901610edc565b915050929550929590935056fea264697066735822122041de7f2002ee19173a348d88f339c91f0973fa9d7b4f5de4418fa1aa529ec92f64736f6c63430008090033",
  "immutableReferences": {},
  "source": "//SPDX-License-Identifier: MIT\n\npragma solidity ^0.8.9;\n\nimport \"./SupplyChainStorage.sol\";\nimport \"./Ownable.sol\";\n\ncontract SupplyChainUser is Ownable {\n    event UserUpdate(\n        address indexed user,\n        string name,\n        string email,\n        string role,\n        bool isActive,\n        string profileHash\n    );\n    event UserRoleUpdate(address indexed user, string role);\n\n    SupplyChainStorage supplyChainStorage;\n\n    constructor(address _supplyChainAddress) {\n        supplyChainStorage = SupplyChainStorage(_supplyChainAddress);\n    }\n\n    function updateUser(\n        string memory _name,\n        string memory _email,\n        string memory _role,\n        bool _isActive,\n        string memory _profileHash\n    ) public returns (bool) {\n        require(msg.sender != address(0));\n\n        bool status = supplyChainStorage.setUser(\n            msg.sender,\n            _name,\n            _email,\n            _role,\n            _isActive,\n            _profileHash\n        );\n\n        emit UserUpdate(\n            msg.sender,\n            _name,\n            _email,\n            _role,\n            _isActive,\n            _profileHash\n        );\n        emit UserRoleUpdate(msg.sender, _role);\n\n        return status;\n    }\n\n    function updateUserForAdmin(\n        address _userAddress,\n        string memory _name,\n        string memory _email,\n        string memory _role,\n        bool _isActive,\n        string memory _profileHash\n    ) public onlyOwner returns (bool) {\n        require(_userAddress != address(0));\n\n        bool status = supplyChainStorage.setUser(\n            _userAddress,\n            _name,\n            _email,\n            _role,\n            _isActive,\n            _profileHash\n        );\n\n        emit UserUpdate(\n            _userAddress,\n            _name,\n            _email,\n            _role,\n            _isActive,\n            _profileHash\n        );\n        emit UserRoleUpdate(_userAddress, _role);\n\n        return status;\n    }\n\n    function getUser(address _userAddress)\n        public\n        view\n        returns (\n            string memory name,\n            string memory email,\n            string memory role,\n            bool isActive,\n            string memory profileHash\n        )\n    {\n        require(_userAddress != address(0));\n\n        (name, email, role, isActive, profileHash) = supplyChainStorage.getUser(\n            _userAddress\n        );\n\n        return (name, email, role, isActive, profileHash);\n    }\n}\n",
  "sourcePath": "/home/nathalia/TESIS/coffee-supply-chain-tracking-system-ethereum/contracts/SupplyChainUser.sol",
  "compiler": {
    "name": "solc",
    "version": "0.8.9+commit.e5eed63a.Emscripten.clang"
  },
  "schemaVersion": "3.4.4",
  "updatedAt": "2022-04-26T08:54:23.728Z",
  "devdoc": {
    "kind": "dev",
    "methods": {},
    "version": 1
  },
  "userdoc": {
    "kind": "user",
    "methods": {},
    "version": 1
  }
}