{
  "contractName": "SupplyChainStorage",
  "abi": [
    {
      "inputs": [],
      "stateMutability": "nonpayable",
      "type": "constructor"
    },
    {
      "anonymous": false,
      "inputs": [
        {
          "indexed": false,
          "internalType": "address",
          "name": "caller",
          "type": "address"
        }
      ],
      "name": "AuthorizedCaller",
      "type": "event"
    },
    {
      "anonymous": false,
      "inputs": [
        {
          "indexed": false,
          "internalType": "address",
          "name": "caller",
          "type": "address"
        }
      ],
      "name": "DeAuthorizedCaller",
      "type": "event"
    },
    {
      "anonymous": false,
      "inputs": [
        {
          "indexed": true,
          "internalType": "address",
          "name": "previousOwner",
          "type": "address"
        }
      ],
      "name": "OwnershipRenounced",
      "type": "event"
    },
    {
      "anonymous": false,
      "inputs": [
        {
          "indexed": true,
          "internalType": "address",
          "name": "previusOwner",
          "type": "address"
        },
        {
          "indexed": true,
          "internalType": "address",
          "name": "newOwner",
          "type": "address"
        }
      ],
      "name": "OwnershipTransferred",
      "type": "event"
    },
    {
      "anonymous": false,
      "inputs": [
        {
          "indexed": false,
          "internalType": "address",
          "name": "userAddress",
          "type": "address"
        }
      ],
      "name": "UserRoleUpdate",
      "type": "event"
    },
    {
      "anonymous": false,
      "inputs": [
        {
          "indexed": false,
          "internalType": "address",
          "name": "userAddress",
          "type": "address"
        }
      ],
      "name": "UserUpdate",
      "type": "event"
    },
    {
      "inputs": [],
      "name": "owner",
      "outputs": [
        {
          "internalType": "address",
          "name": "",
          "type": "address"
        }
      ],
      "stateMutability": "view",
      "type": "function",
      "constant": true
    },
    {
      "inputs": [],
      "name": "renounceOwnership",
      "outputs": [],
      "stateMutability": "nonpayable",
      "type": "function"
    },
    {
      "inputs": [
        {
          "internalType": "address",
          "name": "newOwner",
          "type": "address"
        }
      ],
      "name": "transferOwnership",
      "outputs": [],
      "stateMutability": "nonpayable",
      "type": "function"
    },
    {
      "inputs": [
        {
          "internalType": "address",
          "name": "_caller",
          "type": "address"
        }
      ],
      "name": "authorizeCaller",
      "outputs": [
        {
          "internalType": "bool",
          "name": "",
          "type": "bool"
        }
      ],
      "stateMutability": "nonpayable",
      "type": "function"
    },
    {
      "inputs": [
        {
          "internalType": "address",
          "name": "_caller",
          "type": "address"
        }
      ],
      "name": "deAuthorizeCaller",
      "outputs": [
        {
          "internalType": "bool",
          "name": "",
          "type": "bool"
        }
      ],
      "stateMutability": "nonpayable",
      "type": "function"
    },
    {
      "inputs": [
        {
          "internalType": "address",
          "name": "_userAddress",
          "type": "address"
        }
      ],
      "name": "getUserRoles",
      "outputs": [
        {
          "internalType": "string[]",
          "name": "",
          "type": "string[]"
        }
      ],
      "stateMutability": "view",
      "type": "function",
      "constant": true
    },
    {
      "inputs": [
        {
          "internalType": "address",
          "name": "_batchNo",
          "type": "address"
        }
      ],
      "name": "getNextAction",
      "outputs": [
        {
          "internalType": "string",
          "name": "",
          "type": "string"
        }
      ],
      "stateMutability": "view",
      "type": "function",
      "constant": true
    },
    {
      "inputs": [
        {
          "internalType": "address",
          "name": "_batchNo",
          "type": "address"
        },
        {
          "internalType": "string",
          "name": "action",
          "type": "string"
        }
      ],
      "name": "writeNextAction",
      "outputs": [
        {
          "internalType": "bool",
          "name": "",
          "type": "bool"
        }
      ],
      "stateMutability": "nonpayable",
      "type": "function"
    },
    {
      "inputs": [
        {
          "internalType": "address",
          "name": "_userAddress",
          "type": "address"
        },
        {
          "internalType": "string",
          "name": "_name",
          "type": "string"
        },
        {
          "internalType": "string",
          "name": "_email",
          "type": "string"
        },
        {
          "internalType": "string[]",
          "name": "_role",
          "type": "string[]"
        },
        {
          "internalType": "bool",
          "name": "_isActive",
          "type": "bool"
        },
        {
          "internalType": "string",
          "name": "_profileHash",
          "type": "string"
        }
      ],
      "name": "setUser",
      "outputs": [
        {
          "internalType": "bool",
          "name": "",
          "type": "bool"
        }
      ],
      "stateMutability": "nonpayable",
      "type": "function"
    },
    {
      "inputs": [
        {
          "internalType": "address",
          "name": "_userAddress",
          "type": "address"
        }
      ],
      "name": "getUser",
      "outputs": [
        {
          "internalType": "string",
          "name": "name",
          "type": "string"
        },
        {
          "internalType": "string",
          "name": "email",
          "type": "string"
        },
        {
          "internalType": "string[]",
          "name": "role",
          "type": "string[]"
        },
        {
          "internalType": "bool",
          "name": "isActive",
          "type": "bool"
        },
        {
          "internalType": "string",
          "name": "profileHash",
          "type": "string"
        }
      ],
      "stateMutability": "view",
      "type": "function",
      "constant": true
    },
    {
      "inputs": [
        {
          "internalType": "string",
          "name": "_registrationNo",
          "type": "string"
        },
        {
          "internalType": "string",
          "name": "_farmName",
          "type": "string"
        },
        {
          "internalType": "string",
          "name": "_latitude",
          "type": "string"
        },
        {
          "internalType": "string",
          "name": "_longitude",
          "type": "string"
        },
        {
          "internalType": "string",
          "name": "_farmAddress",
          "type": "string"
        }
      ],
      "name": "setFarmDetails",
      "outputs": [
        {
          "internalType": "address",
          "name": "",
          "type": "address"
        }
      ],
      "stateMutability": "nonpayable",
      "type": "function"
    },
    {
      "inputs": [
        {
          "internalType": "address",
          "name": "_batchNo",
          "type": "address"
        }
      ],
      "name": "getFarmDetails",
      "outputs": [
        {
          "internalType": "string",
          "name": "registrationNo",
          "type": "string"
        },
        {
          "internalType": "string",
          "name": "farmName",
          "type": "string"
        },
        {
          "internalType": "string",
          "name": "latitude",
          "type": "string"
        },
        {
          "internalType": "string",
          "name": "longitude",
          "type": "string"
        },
        {
          "internalType": "string",
          "name": "farmAddress",
          "type": "string"
        }
      ],
      "stateMutability": "view",
      "type": "function",
      "constant": true
    },
    {
      "inputs": [
        {
          "internalType": "address",
          "name": "batchNo",
          "type": "address"
        },
        {
          "internalType": "string",
          "name": "_seedSupplier",
          "type": "string"
        },
        {
          "internalType": "string",
          "name": "_typeOfSeed",
          "type": "string"
        },
        {
          "internalType": "string",
          "name": "_coffeeFamily",
          "type": "string"
        },
        {
          "internalType": "string",
          "name": "_fertilizerUsed",
          "type": "string"
        },
        {
          "internalType": "string",
          "name": "_harvestDate",
          "type": "string"
        },
        {
          "internalType": "string",
          "name": "_humidityPercentage",
          "type": "string"
        },
        {
          "internalType": "string",
          "name": "_batchWeight",
          "type": "string"
        }
      ],
      "name": "setHarvestData",
      "outputs": [
        {
          "internalType": "bool",
          "name": "",
          "type": "bool"
        }
      ],
      "stateMutability": "nonpayable",
      "type": "function"
    },
    {
      "inputs": [
        {
          "internalType": "address",
          "name": "batchNo",
          "type": "address"
        }
      ],
      "name": "getHarvestData",
      "outputs": [
        {
          "internalType": "string",
          "name": "seedSupplier",
          "type": "string"
        },
        {
          "internalType": "string",
          "name": "typeOfSeed",
          "type": "string"
        },
        {
          "internalType": "string",
          "name": "coffeeFamily",
          "type": "string"
        },
        {
          "internalType": "string",
          "name": "fertilizerUsed",
          "type": "string"
        },
        {
          "internalType": "string",
          "name": "harvestDate",
          "type": "string"
        },
        {
          "internalType": "string",
          "name": "humidityPercentage",
          "type": "string"
        },
        {
          "internalType": "string",
          "name": "batchWeight",
          "type": "string"
        }
      ],
      "stateMutability": "view",
      "type": "function",
      "constant": true
    },
    {
      "inputs": [
        {
          "internalType": "address",
          "name": "batchNo",
          "type": "address"
        },
        {
          "internalType": "string[]",
          "name": "_addressLatLngProcessor",
          "type": "string[]"
        },
        {
          "internalType": "string",
          "name": "_typeOfDrying",
          "type": "string"
        },
        {
          "internalType": "string",
          "name": "_humidityAfterDrying",
          "type": "string"
        },
        {
          "internalType": "string",
          "name": "_roastImageHash",
          "type": "string"
        },
        {
          "internalType": "string[]",
          "name": "_tempTypeRoast",
          "type": "string[]"
        },
        {
          "internalType": "string[]",
          "name": "_roastMillDates",
          "type": "string[]"
        },
        {
          "internalType": "string",
          "name": "_processorPricePerKilo",
          "type": "string"
        },
        {
          "internalType": "string",
          "name": "_processBatchWeight",
          "type": "string"
        }
      ],
      "name": "setProcessData",
      "outputs": [
        {
          "internalType": "bool",
          "name": "",
          "type": "bool"
        }
      ],
      "stateMutability": "nonpayable",
      "type": "function"
    },
    {
      "inputs": [
        {
          "internalType": "address",
          "name": "batchNo",
          "type": "address"
        }
      ],
      "name": "getProcessData",
      "outputs": [
        {
          "internalType": "string[]",
          "name": "addressLatLngProcessor",
          "type": "string[]"
        },
        {
          "internalType": "string",
          "name": "typeOfDrying",
          "type": "string"
        },
        {
          "internalType": "string",
          "name": "humidityAfterDrying",
          "type": "string"
        },
        {
          "internalType": "string",
          "name": "roastImageHash",
          "type": "string"
        },
        {
          "internalType": "string[]",
          "name": "tempTypeRoast",
          "type": "string[]"
        },
        {
          "internalType": "string[]",
          "name": "roastMillDates",
          "type": "string[]"
        },
        {
          "internalType": "string",
          "name": "processorPricePerKilo",
          "type": "string"
        },
        {
          "internalType": "string",
          "name": "processBatchWeight",
          "type": "string"
        }
      ],
      "stateMutability": "view",
      "type": "function",
      "constant": true
    },
    {
      "inputs": [
        {
          "internalType": "address",
          "name": "batchNo",
          "type": "address"
        },
        {
          "internalType": "string",
          "name": "_tastingScore",
          "type": "string"
        },
        {
          "internalType": "string",
          "name": "_tastingServicePrice",
          "type": "string"
        }
      ],
      "name": "setTasteData",
      "outputs": [
        {
          "internalType": "bool",
          "name": "",
          "type": "bool"
        }
      ],
      "stateMutability": "nonpayable",
      "type": "function"
    },
    {
      "inputs": [
        {
          "internalType": "address",
          "name": "batchNo",
          "type": "address"
        }
      ],
      "name": "getTasteData",
      "outputs": [
        {
          "internalType": "string",
          "name": "tastingScore",
          "type": "string"
        },
        {
          "internalType": "string",
          "name": "tastingServicePrice",
          "type": "string"
        }
      ],
      "stateMutability": "view",
      "type": "function",
      "constant": true
    },
    {
      "inputs": [
        {
          "internalType": "address",
          "name": "batchNo",
          "type": "address"
        },
        {
          "internalType": "string",
          "name": "_coffeeSellingBatchWeight",
          "type": "string"
        },
        {
          "internalType": "string",
          "name": "_beanPricePerKilo",
          "type": "string"
        }
      ],
      "name": "setCoffeeSellData",
      "outputs": [
        {
          "internalType": "bool",
          "name": "",
          "type": "bool"
        }
      ],
      "stateMutability": "nonpayable",
      "type": "function"
    },
    {
      "inputs": [
        {
          "internalType": "address",
          "name": "batchNo",
          "type": "address"
        }
      ],
      "name": "getCoffeeSellData",
      "outputs": [
        {
          "internalType": "string",
          "name": "coffeeSellingBatchWeight",
          "type": "string"
        },
        {
          "internalType": "string",
          "name": "beanPricePerKilo",
          "type": "string"
        }
      ],
      "stateMutability": "view",
      "type": "function",
      "constant": true
    }
  ],
  "bytecode": "0x60806040523480156200001157600080fd5b50336000806101000a81548173ffffffffffffffffffffffffffffffffffffffff021916908373ffffffffffffffffffffffffffffffffffffffff1602179055506001600360003373ffffffffffffffffffffffffffffffffffffffff1673ffffffffffffffffffffffffffffffffffffffff16815260200190815260200160002060006101000a81548160ff021916908360ff1602179055507f8afeca650897be3183b7c0d24eba96a1b990f75c4bd74a0cfb2c0a71aec48e6133604051620000dc91906200012f565b60405180910390a16200014c565b600073ffffffffffffffffffffffffffffffffffffffff82169050919050565b60006200011782620000ea565b9050919050565b62000129816200010a565b82525050565b60006020820190506200014660008301846200011e565b92915050565b6142c7806200015c6000396000f3fe608060405234801561001057600080fd5b506004361061012c5760003560e01c80636f77926b116100ad578063a930d17d11610071578063a930d17d146103db578063b12157e91461040c578063f2fde38b1461043c578063f9f1bedc14610458578063fb779ea5146104885761012c565b80636f77926b14610318578063702a57581461034c578063715018a6146103835780638383e2941461038d5780638da5cb5b146103bd5761012c565b806328da9691116100f457806328da9691146102215780632a7e2433146102515780632c388d5d1461028257806331016cb3146102b25780634d6b5e00146102e85761012c565b806306a36aee1461013157806314f9964a146101615780631752389e146101915780631bcd250a146101c15780631dc66163146101f1575b600080fd5b61014b600480360381019061014691906130e1565b6104bc565b6040516101589190613260565b60405180910390f35b61017b600480360381019061017691906134d5565b610630565b60405161018891906135e1565b60405180910390f35b6101ab60048036038101906101a691906135fc565b610864565b6040516101b891906135e1565b60405180910390f35b6101db60048036038101906101d691906130e1565b6109e3565b6040516101e891906135e1565b60405180910390f35b61020b60048036038101906102069190613687565b610ad7565b604051610218919061379d565b60405180910390f35b61023b600480360381019061023691906137b8565b610d06565b60405161024891906135e1565b60405180910390f35b61026b600480360381019061026691906130e1565b610f96565b6040516102799291906139ac565b60405180910390f35b61029c600480360381019061029791906130e1565b61117b565b6040516102a991906135e1565b60405180910390f35b6102cc60048036038101906102c791906130e1565b61126f565b6040516102df97969594939291906139e3565b60405180910390f35b61030260048036038101906102fd91906130e1565b61175f565b60405161030f9190613a83565b60405180910390f35b610332600480360381019061032d91906130e1565b61188c565b604051610343959493929190613aa5565b60405180910390f35b610366600480360381019061036191906130e1565b611c4a565b60405161037a989796959493929190613b14565b60405180910390f35b61038b6122aa565b005b6103a760048036038101906103a29190613bca565b6123a8565b6040516103b491906135e1565b60405180910390f35b6103c561245d565b6040516103d2919061379d565b60405180910390f35b6103f560048036038101906103f091906130e1565b612481565b6040516104039291906139ac565b60405180910390f35b610426600480360381019061042191906135fc565b612666565b60405161043391906135e1565b60405180910390f35b610456600480360381019061045191906130e1565b6127e5565b005b610472600480360381019061046d9190613c26565b612933565b60405161047f91906135e1565b60405180910390f35b6104a2600480360381019061049d91906130e1565b612b7f565b6040516104b3959493929190613da0565b60405180910390f35b60606001600360003373ffffffffffffffffffffffffffffffffffffffff1673ffffffffffffffffffffffffffffffffffffffff16815260200190815260200160002060009054906101000a900460ff1660ff161461051a57600080fd5b600260008373ffffffffffffffffffffffffffffffffffffffff1673ffffffffffffffffffffffffffffffffffffffff168152602001908152602001600020805480602002602001604051908101604052809291908181526020016000905b8282101561062557838290600052602060002001805461059890613e45565b80601f01602080910402602001604051908101604052809291908181526020018280546105c490613e45565b80156106115780601f106105e657610100808354040283529160200191610611565b820191906000526020600020905b8154815290600101906020018083116105f457829003601f168201915b505050505081526020019060010190610579565b505050509050919050565b60006001600360003373ffffffffffffffffffffffffffffffffffffffff1673ffffffffffffffffffffffffffffffffffffffff16815260200190815260200160002060009054906101000a900460ff1660ff161461068e57600080fd5b85600a60000190816106a0919061402c565b5084600a60010190816106b3919061402c565b5082600a60020160006101000a81548160ff02191690831515021790555081600a60030190816106e3919061402c565b50600a600160008973ffffffffffffffffffffffffffffffffffffffff1673ffffffffffffffffffffffffffffffffffffffff168152602001908152602001600020600082018160000190816107399190614114565b506001820181600101908161074e9190614114565b506002820160009054906101000a900460ff168160020160006101000a81548160ff021916908315150217905550600382018160030190816107909190614114565b5090505083600260008973ffffffffffffffffffffffffffffffffffffffff1673ffffffffffffffffffffffffffffffffffffffff16815260200190815260200160002090805190602001906107e7929190612f38565b507f1d222b775a8ac40f88e57f60a9f9cef32825dee88b7d0a2e757e7dd2082cbe7787604051610817919061379d565b60405180910390a17f5108391b825bd4c3d7f3c6a8d5cb1dfb3d7db4e2663bdef2d6a43643d6c385138760405161084e919061379d565b60405180910390a1600190509695505050505050565b60006001600360003373ffffffffffffffffffffffffffffffffffffffff1673ffffffffffffffffffffffffffffffffffffffff16815260200190815260200160002060009054906101000a900460ff1660ff16146108c257600080fd5b82602260000190816108d4919061402c565b5081602260010190816108e7919061402c565b506022600760008673ffffffffffffffffffffffffffffffffffffffff1673ffffffffffffffffffffffffffffffffffffffff1681526020019081526020016000206000820181600001908161093d9190614114565b50600182018160010190816109529190614114565b509050506040518060400160405280600681526020017f53454c4c45520000000000000000000000000000000000000000000000000000815250600960008673ffffffffffffffffffffffffffffffffffffffff1673ffffffffffffffffffffffffffffffffffffffff16815260200190815260200160002090816109d7919061402c565b50600190509392505050565b60008060009054906101000a900473ffffffffffffffffffffffffffffffffffffffff1673ffffffffffffffffffffffffffffffffffffffff163373ffffffffffffffffffffffffffffffffffffffff1614610a3e57600080fd5b6000600360008473ffffffffffffffffffffffffffffffffffffffff1673ffffffffffffffffffffffffffffffffffffffff16815260200190815260200160002060006101000a81548160ff021916908360ff1602179055507f9e8ca6ff03906e81e8a6a03d4f96b7edb0b97f0ed9d07ef1b699fff63438549682604051610ac6919061379d565b60405180910390a160019050919050565b60006001600360003373ffffffffffffffffffffffffffffffffffffffff1673ffffffffffffffffffffffffffffffffffffffff16815260200190815260200160002060009054906101000a900460ff1660ff1614610b3557600080fd5b60003342604051602001610b4a929190614265565b6040516020818303038152906040528051906020012060001c9050600081905087600e6000019081610b7c919061402c565b5086600e6001019081610b8f919061402c565b5085600e6002019081610ba2919061402c565b5084600e6003019081610bb5919061402c565b5083600e6004019081610bc8919061402c565b50600e600460008373ffffffffffffffffffffffffffffffffffffffff1673ffffffffffffffffffffffffffffffffffffffff16815260200190815260200160002060008201816000019081610c1e9190614114565b5060018201816001019081610c339190614114565b5060028201816002019081610c489190614114565b5060038201816003019081610c5d9190614114565b5060048201816004019081610c729190614114565b509050506040518060400160405280600681526020017f4641524d45520000000000000000000000000000000000000000000000000000815250600960008373ffffffffffffffffffffffffffffffffffffffff1673ffffffffffffffffffffffffffffffffffffffff1681526020019081526020016000209081610cf7919061402c565b50809250505095945050505050565b60006001600360003373ffffffffffffffffffffffffffffffffffffffff1673ffffffffffffffffffffffffffffffffffffffff16815260200190815260200160002060009054906101000a900460ff1660ff1614610d6457600080fd5b88601a6000019080519060200190610d7d929190612f38565b5087601a6001019081610d90919061402c565b5086601a6002019081610da3919061402c565b5085601a6003019081610db6919061402c565b5084601a6004019080519060200190610dd0929190612f38565b5083601a6005019080519060200190610dea929190612f38565b5082601a6006019081610dfd919061402c565b5081601a6007019081610e10919061402c565b50601a600660008c73ffffffffffffffffffffffffffffffffffffffff1673ffffffffffffffffffffffffffffffffffffffff1681526020019081526020016000206000820181600001908054610e68929190612f91565b5060018201816001019081610e7d9190614114565b5060028201816002019081610e929190614114565b5060038201816003019081610ea79190614114565b506004820181600401908054610ebe929190612f91565b506005820181600501908054610ed5929190612f91565b5060068201816006019081610eea9190614114565b5060078201816007019081610eff9190614114565b509050506040518060400160405280600681526020017f5441535445520000000000000000000000000000000000000000000000000000815250600960008c73ffffffffffffffffffffffffffffffffffffffff1673ffffffffffffffffffffffffffffffffffffffff1681526020019081526020016000209081610f84919061402c565b50600190509998505050505050505050565b6060806001600360003373ffffffffffffffffffffffffffffffffffffffff1673ffffffffffffffffffffffffffffffffffffffff16815260200190815260200160002060009054906101000a900460ff1660ff1614610ff557600080fd5b6000600860008573ffffffffffffffffffffffffffffffffffffffff1673ffffffffffffffffffffffffffffffffffffffff16815260200190815260200160002060405180604001604052908160008201805461105190613e45565b80601f016020809104026020016040519081016040528092919081815260200182805461107d90613e45565b80156110ca5780601f1061109f576101008083540402835291602001916110ca565b820191906000526020600020905b8154815290600101906020018083116110ad57829003601f168201915b505050505081526020016001820180546110e390613e45565b80601f016020809104026020016040519081016040528092919081815260200182805461110f90613e45565b801561115c5780601f106111315761010080835404028352916020019161115c565b820191906000526020600020905b81548152906001019060200180831161113f57829003601f168201915b5050505050815250509050806000015181602001519250925050915091565b60008060009054906101000a900473ffffffffffffffffffffffffffffffffffffffff1673ffffffffffffffffffffffffffffffffffffffff163373ffffffffffffffffffffffffffffffffffffffff16146111d657600080fd5b6001600360008473ffffffffffffffffffffffffffffffffffffffff1673ffffffffffffffffffffffffffffffffffffffff16815260200190815260200160002060006101000a81548160ff021916908360ff1602179055507f8afeca650897be3183b7c0d24eba96a1b990f75c4bd74a0cfb2c0a71aec48e618260405161125e919061379d565b60405180910390a160019050919050565b60608060608060608060606001600360003373ffffffffffffffffffffffffffffffffffffffff1673ffffffffffffffffffffffffffffffffffffffff16815260200190815260200160002060009054906101000a900460ff1660ff16146112d657600080fd5b6000600560008a73ffffffffffffffffffffffffffffffffffffffff1673ffffffffffffffffffffffffffffffffffffffff1681526020019081526020016000206040518060e001604052908160008201805461133290613e45565b80601f016020809104026020016040519081016040528092919081815260200182805461135e90613e45565b80156113ab5780601f10611380576101008083540402835291602001916113ab565b820191906000526020600020905b81548152906001019060200180831161138e57829003601f168201915b505050505081526020016001820180546113c490613e45565b80601f01602080910402602001604051908101604052809291908181526020018280546113f090613e45565b801561143d5780601f106114125761010080835404028352916020019161143d565b820191906000526020600020905b81548152906001019060200180831161142057829003601f168201915b5050505050815260200160028201805461145690613e45565b80601f016020809104026020016040519081016040528092919081815260200182805461148290613e45565b80156114cf5780601f106114a4576101008083540402835291602001916114cf565b820191906000526020600020905b8154815290600101906020018083116114b257829003601f168201915b505050505081526020016003820180546114e890613e45565b80601f016020809104026020016040519081016040528092919081815260200182805461151490613e45565b80156115615780601f1061153657610100808354040283529160200191611561565b820191906000526020600020905b81548152906001019060200180831161154457829003601f168201915b5050505050815260200160048201805461157a90613e45565b80601f01602080910402602001604051908101604052809291908181526020018280546115a690613e45565b80156115f35780601f106115c8576101008083540402835291602001916115f3565b820191906000526020600020905b8154815290600101906020018083116115d657829003601f168201915b5050505050815260200160058201805461160c90613e45565b80601f016020809104026020016040519081016040528092919081815260200182805461163890613e45565b80156116855780601f1061165a57610100808354040283529160200191611685565b820191906000526020600020905b81548152906001019060200180831161166857829003601f168201915b5050505050815260200160068201805461169e90613e45565b80601f01602080910402602001604051908101604052809291908181526020018280546116ca90613e45565b80156117175780601f106116ec57610100808354040283529160200191611717565b820191906000526020600020905b8154815290600101906020018083116116fa57829003601f168201915b5050505050815250509050806000015181602001518260400151836060015184608001518560a001518660c00151975097509750975097509750975050919395979092949650565b60606001600360003373ffffffffffffffffffffffffffffffffffffffff1673ffffffffffffffffffffffffffffffffffffffff16815260200190815260200160002060009054906101000a900460ff1660ff16146117bd57600080fd5b600960008373ffffffffffffffffffffffffffffffffffffffff1673ffffffffffffffffffffffffffffffffffffffff168152602001908152602001600020805461180790613e45565b80601f016020809104026020016040519081016040528092919081815260200182805461183390613e45565b80156118805780601f1061185557610100808354040283529160200191611880565b820191906000526020600020905b81548152906001019060200180831161186357829003601f168201915b50505050509050919050565b6060806060600060606001600360003373ffffffffffffffffffffffffffffffffffffffff1673ffffffffffffffffffffffffffffffffffffffff16815260200190815260200160002060009054906101000a900460ff1660ff16146118f157600080fd5b6000600160008873ffffffffffffffffffffffffffffffffffffffff1673ffffffffffffffffffffffffffffffffffffffff16815260200190815260200160002060405180608001604052908160008201805461194d90613e45565b80601f016020809104026020016040519081016040528092919081815260200182805461197990613e45565b80156119c65780601f1061199b576101008083540402835291602001916119c6565b820191906000526020600020905b8154815290600101906020018083116119a957829003601f168201915b505050505081526020016001820180546119df90613e45565b80601f0160208091040260200160405190810160405280929190818152602001828054611a0b90613e45565b8015611a585780601f10611a2d57610100808354040283529160200191611a58565b820191906000526020600020905b815481529060010190602001808311611a3b57829003601f168201915b505050505081526020016002820160009054906101000a900460ff16151515158152602001600382018054611a8c90613e45565b80601f0160208091040260200160405190810160405280929190818152602001828054611ab890613e45565b8015611b055780601f10611ada57610100808354040283529160200191611b05565b820191906000526020600020905b815481529060010190602001808311611ae857829003601f168201915b505050505081525050905080600001518160200151600260008a73ffffffffffffffffffffffffffffffffffffffff1673ffffffffffffffffffffffffffffffffffffffff1681526020019081526020016000208360400151846060015182805480602002602001604051908101604052809291908181526020016000905b82821015611c30578382906000526020600020018054611ba390613e45565b80601f0160208091040260200160405190810160405280929190818152602001828054611bcf90613e45565b8015611c1c5780601f10611bf157610100808354040283529160200191611c1c565b820191906000526020600020905b815481529060010190602001808311611bff57829003601f168201915b505050505081526020019060010190611b84565b505050509250955095509550955095505091939590929450565b6060806060806060806060806001600360003373ffffffffffffffffffffffffffffffffffffffff1673ffffffffffffffffffffffffffffffffffffffff16815260200190815260200160002060009054906101000a900460ff1660ff1614611cb257600080fd5b6000600660008b73ffffffffffffffffffffffffffffffffffffffff1673ffffffffffffffffffffffffffffffffffffffff1681526020019081526020016000206040518061010001604052908160008201805480602002602001604051908101604052809291908181526020016000905b82821015611dd0578382906000526020600020018054611d4390613e45565b80601f0160208091040260200160405190810160405280929190818152602001828054611d6f90613e45565b8015611dbc5780601f10611d9157610100808354040283529160200191611dbc565b820191906000526020600020905b815481529060010190602001808311611d9f57829003601f168201915b505050505081526020019060010190611d24565b505050508152602001600182018054611de890613e45565b80601f0160208091040260200160405190810160405280929190818152602001828054611e1490613e45565b8015611e615780601f10611e3657610100808354040283529160200191611e61565b820191906000526020600020905b815481529060010190602001808311611e4457829003601f168201915b50505050508152602001600282018054611e7a90613e45565b80601f0160208091040260200160405190810160405280929190818152602001828054611ea690613e45565b8015611ef35780601f10611ec857610100808354040283529160200191611ef3565b820191906000526020600020905b815481529060010190602001808311611ed657829003601f168201915b50505050508152602001600382018054611f0c90613e45565b80601f0160208091040260200160405190810160405280929190818152602001828054611f3890613e45565b8015611f855780601f10611f5a57610100808354040283529160200191611f85565b820191906000526020600020905b815481529060010190602001808311611f6857829003601f168201915b5050505050815260200160048201805480602002602001604051908101604052809291908181526020016000905b8282101561205f578382906000526020600020018054611fd290613e45565b80601f0160208091040260200160405190810160405280929190818152602001828054611ffe90613e45565b801561204b5780601f106120205761010080835404028352916020019161204b565b820191906000526020600020905b81548152906001019060200180831161202e57829003601f168201915b505050505081526020019060010190611fb3565b50505050815260200160058201805480602002602001604051908101604052809291908181526020016000905b828210156121385783829060005260206000200180546120ab90613e45565b80601f01602080910402602001604051908101604052809291908181526020018280546120d790613e45565b80156121245780601f106120f957610100808354040283529160200191612124565b820191906000526020600020905b81548152906001019060200180831161210757829003601f168201915b50505050508152602001906001019061208c565b50505050815260200160068201805461215090613e45565b80601f016020809104026020016040519081016040528092919081815260200182805461217c90613e45565b80156121c95780601f1061219e576101008083540402835291602001916121c9565b820191906000526020600020905b8154815290600101906020018083116121ac57829003601f168201915b505050505081526020016007820180546121e290613e45565b80601f016020809104026020016040519081016040528092919081815260200182805461220e90613e45565b801561225b5780601f106122305761010080835404028352916020019161225b565b820191906000526020600020905b81548152906001019060200180831161223e57829003601f168201915b5050505050815250509050806000015181602001518260400151836060015184608001518560a001518660c001518760e001519850985098509850985098509850985050919395975091939597565b60008054906101000a900473ffffffffffffffffffffffffffffffffffffffff1673ffffffffffffffffffffffffffffffffffffffff163373ffffffffffffffffffffffffffffffffffffffff161461230257600080fd5b60008054906101000a900473ffffffffffffffffffffffffffffffffffffffff1673ffffffffffffffffffffffffffffffffffffffff167ff8df31144d9c2f0f6b59d69b8b98abd5459d07f2742c4df920b25aae33c6482060405160405180910390a260008060006101000a81548173ffffffffffffffffffffffffffffffffffffffff021916908373ffffffffffffffffffffffffffffffffffffffff160217905550565b60006001600360003373ffffffffffffffffffffffffffffffffffffffff1673ffffffffffffffffffffffffffffffffffffffff16815260200190815260200160002060009054906101000a900460ff1660ff161461240657600080fd5b81600960008573ffffffffffffffffffffffffffffffffffffffff1673ffffffffffffffffffffffffffffffffffffffff1681526020019081526020016000209081612452919061402c565b506001905092915050565b60008054906101000a900473ffffffffffffffffffffffffffffffffffffffff1681565b6060806001600360003373ffffffffffffffffffffffffffffffffffffffff1673ffffffffffffffffffffffffffffffffffffffff16815260200190815260200160002060009054906101000a900460ff1660ff16146124e057600080fd5b6000600760008573ffffffffffffffffffffffffffffffffffffffff1673ffffffffffffffffffffffffffffffffffffffff16815260200190815260200160002060405180604001604052908160008201805461253c90613e45565b80601f016020809104026020016040519081016040528092919081815260200182805461256890613e45565b80156125b55780601f1061258a576101008083540402835291602001916125b5565b820191906000526020600020905b81548152906001019060200180831161259857829003601f168201915b505050505081526020016001820180546125ce90613e45565b80601f01602080910402602001604051908101604052809291908181526020018280546125fa90613e45565b80156126475780601f1061261c57610100808354040283529160200191612647565b820191906000526020600020905b81548152906001019060200180831161262a57829003601f168201915b5050505050815250509050806000015181602001519250925050915091565b60006001600360003373ffffffffffffffffffffffffffffffffffffffff1673ffffffffffffffffffffffffffffffffffffffff16815260200190815260200160002060009054906101000a900460ff1660ff16146126c457600080fd5b82602460000190816126d6919061402c565b5081602460010190816126e9919061402c565b506024600860008673ffffffffffffffffffffffffffffffffffffffff1673ffffffffffffffffffffffffffffffffffffffff1681526020019081526020016000206000820181600001908161273f9190614114565b50600182018160010190816127549190614114565b509050506040518060400160405280600981526020017f57415245484f5553450000000000000000000000000000000000000000000000815250600960008673ffffffffffffffffffffffffffffffffffffffff1673ffffffffffffffffffffffffffffffffffffffff16815260200190815260200160002090816127d9919061402c565b50600190509392505050565b60008054906101000a900473ffffffffffffffffffffffffffffffffffffffff1673ffffffffffffffffffffffffffffffffffffffff163373ffffffffffffffffffffffffffffffffffffffff161461283d57600080fd5b600073ffffffffffffffffffffffffffffffffffffffff168173ffffffffffffffffffffffffffffffffffffffff160361287657600080fd5b8073ffffffffffffffffffffffffffffffffffffffff1660008054906101000a900473ffffffffffffffffffffffffffffffffffffffff1673ffffffffffffffffffffffffffffffffffffffff167f8be0079c531659141344cd1fd0a4f28419497f9722a3daafe3b4186f6b6457e060405160405180910390a3806000806101000a81548173ffffffffffffffffffffffffffffffffffffffff021916908373ffffffffffffffffffffffffffffffffffffffff16021790555050565b60006001600360003373ffffffffffffffffffffffffffffffffffffffff1673ffffffffffffffffffffffffffffffffffffffff16815260200190815260200160002060009054906101000a900460ff1660ff161461299157600080fd5b87601360000190816129a3919061402c565b5086601360010190816129b6919061402c565b5085601360020190816129c9919061402c565b5084601360030190816129dc919061402c565b5083601360040190816129ef919061402c565b508260136005019081612a02919061402c565b508160136006019081612a15919061402c565b506013600560008b73ffffffffffffffffffffffffffffffffffffffff1673ffffffffffffffffffffffffffffffffffffffff16815260200190815260200160002060008201816000019081612a6b9190614114565b5060018201816001019081612a809190614114565b5060028201816002019081612a959190614114565b5060038201816003019081612aaa9190614114565b5060048201816004019081612abf9190614114565b5060058201816005019081612ad49190614114565b5060068201816006019081612ae99190614114565b509050506040518060400160405280600981526020017f50524f434553534f520000000000000000000000000000000000000000000000815250600960008b73ffffffffffffffffffffffffffffffffffffffff1673ffffffffffffffffffffffffffffffffffffffff1681526020019081526020016000209081612b6e919061402c565b506001905098975050505050505050565b60608060608060606001600360003373ffffffffffffffffffffffffffffffffffffffff1673ffffffffffffffffffffffffffffffffffffffff16815260200190815260200160002060009054906101000a900460ff1660ff1614612be357600080fd5b6000600460008873ffffffffffffffffffffffffffffffffffffffff1673ffffffffffffffffffffffffffffffffffffffff1681526020019081526020016000206040518060a0016040529081600082018054612c3f90613e45565b80601f0160208091040260200160405190810160405280929190818152602001828054612c6b90613e45565b8015612cb85780601f10612c8d57610100808354040283529160200191612cb8565b820191906000526020600020905b815481529060010190602001808311612c9b57829003601f168201915b50505050508152602001600182018054612cd190613e45565b80601f0160208091040260200160405190810160405280929190818152602001828054612cfd90613e45565b8015612d4a5780601f10612d1f57610100808354040283529160200191612d4a565b820191906000526020600020905b815481529060010190602001808311612d2d57829003601f168201915b50505050508152602001600282018054612d6390613e45565b80601f0160208091040260200160405190810160405280929190818152602001828054612d8f90613e45565b8015612ddc5780601f10612db157610100808354040283529160200191612ddc565b820191906000526020600020905b815481529060010190602001808311612dbf57829003601f168201915b50505050508152602001600382018054612df590613e45565b80601f0160208091040260200160405190810160405280929190818152602001828054612e2190613e45565b8015612e6e5780601f10612e4357610100808354040283529160200191612e6e565b820191906000526020600020905b815481529060010190602001808311612e5157829003601f168201915b50505050508152602001600482018054612e8790613e45565b80601f0160208091040260200160405190810160405280929190818152602001828054612eb390613e45565b8015612f005780601f10612ed557610100808354040283529160200191612f00565b820191906000526020600020905b815481529060010190602001808311612ee357829003601f168201915b505050505081525050905080600001518160200151826040015183606001518460800151955095509550955095505091939590929450565b828054828255906000526020600020908101928215612f80579160200282015b82811115612f7f578251829081612f6f919061402c565b5091602001919060010190612f58565b5b509050612f8d9190612fee565b5090565b828054828255906000526020600020908101928215612fdd5760005260206000209182015b82811115612fdc5782829081612fcc9190614114565b5091600101919060010190612fb6565b5b509050612fea9190612fee565b5090565b5b8082111561300e57600081816130059190613012565b50600101612fef565b5090565b50805461301e90613e45565b6000825580601f10613030575061304f565b601f01602090049060005260206000209081019061304e9190613052565b5b50565b5b8082111561306b576000816000905550600101613053565b5090565b6000604051905090565b600080fd5b600080fd5b600073ffffffffffffffffffffffffffffffffffffffff82169050919050565b60006130ae82613083565b9050919050565b6130be816130a3565b81146130c957600080fd5b50565b6000813590506130db816130b5565b92915050565b6000602082840312156130f7576130f6613079565b5b6000613105848285016130cc565b91505092915050565b600081519050919050565b600082825260208201905092915050565b6000819050602082019050919050565b600081519050919050565b600082825260208201905092915050565b60005b83811015613174578082015181840152602081019050613159565b60008484015250505050565b6000601f19601f8301169050919050565b600061319c8261313a565b6131a68185613145565b93506131b6818560208601613156565b6131bf81613180565b840191505092915050565b60006131d68383613191565b905092915050565b6000602082019050919050565b60006131f68261310e565b6132008185613119565b9350836020820285016132128561312a565b8060005b8581101561324e578484038952815161322f85826131ca565b945061323a836131de565b925060208a01995050600181019050613216565b50829750879550505050505092915050565b6000602082019050818103600083015261327a81846131eb565b905092915050565b600080fd5b600080fd5b7f4e487b7100000000000000000000000000000000000000000000000000000000600052604160045260246000fd5b6132c482613180565b810181811067ffffffffffffffff821117156132e3576132e261328c565b5b80604052505050565b60006132f661306f565b905061330282826132bb565b919050565b600067ffffffffffffffff8211156133225761332161328c565b5b61332b82613180565b9050602081019050919050565b82818337600083830152505050565b600061335a61335584613307565b6132ec565b90508281526020810184848401111561337657613375613287565b5b613381848285613338565b509392505050565b600082601f83011261339e5761339d613282565b5b81356133ae848260208601613347565b91505092915050565b600067ffffffffffffffff8211156133d2576133d161328c565b5b602082029050602081019050919050565b600080fd5b60006133fb6133f6846133b7565b6132ec565b9050808382526020820190506020840283018581111561341e5761341d6133e3565b5b835b8181101561346557803567ffffffffffffffff81111561344357613442613282565b5b8086016134508982613389565b85526020850194505050602081019050613420565b5050509392505050565b600082601f83011261348457613483613282565b5b81356134948482602086016133e8565b91505092915050565b60008115159050919050565b6134b28161349d565b81146134bd57600080fd5b50565b6000813590506134cf816134a9565b92915050565b60008060008060008060c087890312156134f2576134f1613079565b5b600061350089828a016130cc565b965050602087013567ffffffffffffffff8111156135215761352061307e565b5b61352d89828a01613389565b955050604087013567ffffffffffffffff81111561354e5761354d61307e565b5b61355a89828a01613389565b945050606087013567ffffffffffffffff81111561357b5761357a61307e565b5b61358789828a0161346f565b935050608061359889828a016134c0565b92505060a087013567ffffffffffffffff8111156135b9576135b861307e565b5b6135c589828a01613389565b9150509295509295509295565b6135db8161349d565b82525050565b60006020820190506135f660008301846135d2565b92915050565b60008060006060848603121561361557613614613079565b5b6000613623868287016130cc565b935050602084013567ffffffffffffffff8111156136445761364361307e565b5b61365086828701613389565b925050604084013567ffffffffffffffff8111156136715761367061307e565b5b61367d86828701613389565b9150509250925092565b600080600080600060a086880312156136a3576136a2613079565b5b600086013567ffffffffffffffff8111156136c1576136c061307e565b5b6136cd88828901613389565b955050602086013567ffffffffffffffff8111156136ee576136ed61307e565b5b6136fa88828901613389565b945050604086013567ffffffffffffffff81111561371b5761371a61307e565b5b61372788828901613389565b935050606086013567ffffffffffffffff8111156137485761374761307e565b5b61375488828901613389565b925050608086013567ffffffffffffffff8111156137755761377461307e565b5b61378188828901613389565b9150509295509295909350565b613797816130a3565b82525050565b60006020820190506137b2600083018461378e565b92915050565b60008060008060008060008060006101208a8c0312156137db576137da613079565b5b60006137e98c828d016130cc565b99505060208a013567ffffffffffffffff81111561380a5761380961307e565b5b6138168c828d0161346f565b98505060408a013567ffffffffffffffff8111156138375761383661307e565b5b6138438c828d01613389565b97505060608a013567ffffffffffffffff8111156138645761386361307e565b5b6138708c828d01613389565b96505060808a013567ffffffffffffffff8111156138915761389061307e565b5b61389d8c828d01613389565b95505060a08a013567ffffffffffffffff8111156138be576138bd61307e565b5b6138ca8c828d0161346f565b94505060c08a013567ffffffffffffffff8111156138eb576138ea61307e565b5b6138f78c828d0161346f565b93505060e08a013567ffffffffffffffff8111156139185761391761307e565b5b6139248c828d01613389565b9250506101008a013567ffffffffffffffff8111156139465761394561307e565b5b6139528c828d01613389565b9150509295985092959850929598565b600082825260208201905092915050565b600061397e8261313a565b6139888185613962565b9350613998818560208601613156565b6139a181613180565b840191505092915050565b600060408201905081810360008301526139c68185613973565b905081810360208301526139da8184613973565b90509392505050565b600060e08201905081810360008301526139fd818a613973565b90508181036020830152613a118189613973565b90508181036040830152613a258188613973565b90508181036060830152613a398187613973565b90508181036080830152613a4d8186613973565b905081810360a0830152613a618185613973565b905081810360c0830152613a758184613973565b905098975050505050505050565b60006020820190508181036000830152613a9d8184613973565b905092915050565b600060a0820190508181036000830152613abf8188613973565b90508181036020830152613ad38187613973565b90508181036040830152613ae781866131eb565b9050613af660608301856135d2565b8181036080830152613b088184613973565b90509695505050505050565b6000610100820190508181036000830152613b2f818b6131eb565b90508181036020830152613b43818a613973565b90508181036040830152613b578189613973565b90508181036060830152613b6b8188613973565b90508181036080830152613b7f81876131eb565b905081810360a0830152613b9381866131eb565b905081810360c0830152613ba78185613973565b905081810360e0830152613bbb8184613973565b90509998505050505050505050565b60008060408385031215613be157613be0613079565b5b6000613bef858286016130cc565b925050602083013567ffffffffffffffff811115613c1057613c0f61307e565b5b613c1c85828601613389565b9150509250929050565b600080600080600080600080610100898b031215613c4757613c46613079565b5b6000613c558b828c016130cc565b985050602089013567ffffffffffffffff811115613c7657613c7561307e565b5b613c828b828c01613389565b975050604089013567ffffffffffffffff811115613ca357613ca261307e565b5b613caf8b828c01613389565b965050606089013567ffffffffffffffff811115613cd057613ccf61307e565b5b613cdc8b828c01613389565b955050608089013567ffffffffffffffff811115613cfd57613cfc61307e565b5b613d098b828c01613389565b94505060a089013567ffffffffffffffff811115613d2a57613d2961307e565b5b613d368b828c01613389565b93505060c089013567ffffffffffffffff811115613d5757613d5661307e565b5b613d638b828c01613389565b92505060e089013567ffffffffffffffff811115613d8457613d8361307e565b5b613d908b828c01613389565b9150509295985092959890939650565b600060a0820190508181036000830152613dba8188613973565b90508181036020830152613dce8187613973565b90508181036040830152613de28186613973565b90508181036060830152613df68185613973565b90508181036080830152613e0a8184613973565b90509695505050505050565b7f4e487b7100000000000000000000000000000000000000000000000000000000600052602260045260246000fd5b60006002820490506001821680613e5d57607f821691505b602082108103613e7057613e6f613e16565b5b50919050565b60008190508160005260206000209050919050565b60006020601f8301049050919050565b600082821b905092915050565b600060088302613ed87fffffffffffffffffffffffffffffffffffffffffffffffffffffffffffffffff82613e9b565b613ee28683613e9b565b95508019841693508086168417925050509392505050565b6000819050919050565b6000819050919050565b6000613f29613f24613f1f84613efa565b613f04565b613efa565b9050919050565b6000819050919050565b613f4383613f0e565b613f57613f4f82613f30565b848454613ea8565b825550505050565b600090565b613f6c613f5f565b613f77818484613f3a565b505050565b5b81811015613f9b57613f90600082613f64565b600181019050613f7d565b5050565b601f821115613fe057613fb181613e76565b613fba84613e8b565b81016020851015613fc9578190505b613fdd613fd585613e8b565b830182613f7c565b50505b505050565b600082821c905092915050565b600061400360001984600802613fe5565b1980831691505092915050565b600061401c8383613ff2565b9150826002028217905092915050565b6140358261313a565b67ffffffffffffffff81111561404e5761404d61328c565b5b6140588254613e45565b614063828285613f9f565b600060209050601f8311600181146140965760008415614084578287015190505b61408e8582614010565b8655506140f6565b601f1984166140a486613e76565b60005b828110156140cc578489015182556001820191506020850194506020810190506140a7565b868310156140e957848901516140e5601f891682613ff2565b8355505b6001600288020188555050505b505050505050565b60008154905061410d81613e45565b9050919050565b8181036141225750506141fa565b61412b826140fe565b67ffffffffffffffff8111156141445761414361328c565b5b61414e8254613e45565b614159828285613f9f565b6000601f8311600181146141885760008415614176578287015490505b6141808582614010565b8655506141f3565b601f19841661419687613e76565b96506141a186613e76565b60005b828110156141c9578489015482556001820191506001850194506020810190506141a4565b868310156141e657848901546141e2601f891682613ff2565b8355505b6001600288020188555050505b5050505050505b565b60008160601b9050919050565b6000614214826141fc565b9050919050565b600061422682614209565b9050919050565b61423e614239826130a3565b61421b565b82525050565b6000819050919050565b61425f61425a82613efa565b614244565b82525050565b6000614271828561422d565b601482019150614281828461424e565b602082019150819050939250505056fea2646970667358221220f7ac8c6529031264e94a6df3bd61c16c24d16c15f3486daeed1573643815fbdc64736f6c63430008100033",
  "immutableReferences": {},
  "source": "//SPDX-License-Identifier: MIT\n\npragma solidity ^0.8.16;\n\nimport \"./SupplyChainStorageOwnable.sol\";\n\ncontract SupplyChainStorage is SupplyChainStorageOwnable {\n    constructor() {\n        authorizedCaller[msg.sender] = 1;\n        emit AuthorizedCaller(msg.sender);\n    }\n\n    event AuthorizedCaller(address caller);\n    event DeAuthorizedCaller(address caller);\n\n    event UserUpdate(address userAddress);\n    event UserRoleUpdate(address userAddress);\n\n    modifier onlyAuthCaller() {\n        require(authorizedCaller[msg.sender] == 1);\n        _;\n    }\n\n    struct User {\n        string name;\n        string email;\n        bool isActive;\n        string profileHash;\n    }\n\n    mapping(address => User) userDetails;\n    mapping(address => string[]) userRole;\n\n    mapping(address => uint8) authorizedCaller;\n\n    function authorizeCaller(address _caller) public onlyOwner returns (bool) {\n        authorizedCaller[_caller] = 1;\n        emit AuthorizedCaller(_caller);\n        return true;\n    }\n\n    function deAuthorizeCaller(address _caller)\n        public\n        onlyOwner\n        returns (bool)\n    {\n        authorizedCaller[_caller] = 0;\n        emit DeAuthorizedCaller(_caller);\n        return true;\n    }\n\n    struct FarmDetails {\n        string registrationNo;\n        string farmName;\n        string latitude;\n        string longitude;\n        string farmAddress;\n    }\n\n    struct Harvest {\n        string seedSupplier;\n        string typeOfSeed;\n        string coffeeFamily;\n        string fertilizerUsed;\n        string harvestDate;\n        string humidityPercentage;\n        string batchWeight;\n    }\n\n    struct Process {\n        string[] addressLatLngProcessor;\n        string typeOfDrying;\n        string humidityAfterDrying;\n        string roastImageHash;\n        string[] tempTypeRoast;\n        string[] roastMillDates;\n        string processorPricePerKilo;\n        string processBatchWeight;\n    }\n\n    struct Taste {\n        string tastingScore;\n        string tastingServicePrice;\n    }\n\n    struct CoffeeSell {\n        string coffeeSellingBatchWeight;\n        string beanPricePerKilo;\n    }\n\n    mapping(address => FarmDetails) batchFarmDetails;\n    mapping(address => Harvest) batchHarvest;\n    mapping(address => Process) batchProcess;\n    mapping(address => Taste) batchTaste;\n    mapping(address => CoffeeSell) batchCoffeSell;\n    mapping(address => string) nextAction;\n\n    User userData;\n    FarmDetails farmDetailsData;\n    Harvest harvestData;\n    Process processData;\n    Taste tasteData;\n    CoffeeSell coffeeSellData;\n\n    function getUserRoles(address _userAddress)\n        public\n        view\n        onlyAuthCaller\n        returns (string[] memory)\n    {\n        return userRole[_userAddress];\n    }\n\n    function getNextAction(address _batchNo)\n        public\n        view\n        onlyAuthCaller\n        returns (string memory)\n    {\n        return nextAction[_batchNo];\n    }\n\n    function writeNextAction(address _batchNo, string memory action)\n        public\n        onlyAuthCaller\n        returns (bool)\n    {\n        nextAction[_batchNo] = action;\n\n        return true;\n    }\n\n    function setUser(\n        address _userAddress,\n        string memory _name,\n        string memory _email,\n        string[] memory _role,\n        bool _isActive,\n        string memory _profileHash\n    ) public onlyAuthCaller returns (bool) {\n        userData.name = _name;\n        userData.email = _email;\n        userData.isActive = _isActive;\n        userData.profileHash = _profileHash;\n\n        userDetails[_userAddress] = userData;\n        userRole[_userAddress] = _role;\n\n        emit UserUpdate(_userAddress);\n        emit UserRoleUpdate(_userAddress);\n        return true;\n    }\n\n    function getUser(address _userAddress)\n        public\n        view\n        onlyAuthCaller\n        returns (\n            string memory name,\n            string memory email,\n            string[] memory role,\n            bool isActive,\n            string memory profileHash\n        )\n    {\n        User memory tmpData = userDetails[_userAddress];\n        return (\n            tmpData.name,\n            tmpData.email,\n            userRole[_userAddress],\n            tmpData.isActive,\n            tmpData.profileHash\n        );\n    }\n\n    function setFarmDetails(\n        string memory _registrationNo,\n        string memory _farmName,\n        string memory _latitude,\n        string memory _longitude,\n        string memory _farmAddress\n    ) public onlyAuthCaller returns (address) {\n        uint256 tmpData = uint256(\n            keccak256(abi.encodePacked(msg.sender, block.timestamp))\n        );\n        address batchNo = address(uint160(tmpData));\n\n        farmDetailsData.registrationNo = _registrationNo;\n        farmDetailsData.farmName = _farmName;\n        farmDetailsData.latitude = _latitude;\n        farmDetailsData.longitude = _longitude;\n        farmDetailsData.farmAddress = _farmAddress;\n\n        batchFarmDetails[batchNo] = farmDetailsData;\n        nextAction[batchNo] = \"FARMER\";\n        return batchNo;\n    }\n\n    function getFarmDetails(address _batchNo)\n        public\n        view\n        onlyAuthCaller\n        returns (\n            string memory registrationNo,\n            string memory farmName,\n            string memory latitude,\n            string memory longitude,\n            string memory farmAddress\n        )\n    {\n        FarmDetails memory tmpData = batchFarmDetails[_batchNo];\n\n        return (\n            tmpData.registrationNo,\n            tmpData.farmName,\n            tmpData.latitude,\n            tmpData.longitude,\n            tmpData.farmAddress\n        );\n    }\n\n    function setHarvestData(\n        address batchNo,\n        string memory _seedSupplier,\n        string memory _typeOfSeed,\n        string memory _coffeeFamily,\n        string memory _fertilizerUsed,\n        string memory _harvestDate,\n        string memory _humidityPercentage,\n        string memory _batchWeight\n    ) public onlyAuthCaller returns (bool) {\n        harvestData.seedSupplier = _seedSupplier;\n        harvestData.typeOfSeed = _typeOfSeed;\n        harvestData.coffeeFamily = _coffeeFamily;\n        harvestData.fertilizerUsed = _fertilizerUsed;\n        harvestData.harvestDate = _harvestDate;\n        harvestData.humidityPercentage = _humidityPercentage;\n        harvestData.batchWeight = _batchWeight;\n\n        batchHarvest[batchNo] = harvestData;\n        nextAction[batchNo] = \"PROCESSOR\";\n        return true;\n    }\n\n    function getHarvestData(address batchNo)\n        public\n        view\n        onlyAuthCaller\n        returns (\n            string memory seedSupplier,\n            string memory typeOfSeed,\n            string memory coffeeFamily,\n            string memory fertilizerUsed,\n            string memory harvestDate,\n            string memory humidityPercentage,\n            string memory batchWeight\n        )\n    {\n        Harvest memory tmpData = batchHarvest[batchNo];\n        return (\n            tmpData.seedSupplier,\n            tmpData.typeOfSeed,\n            tmpData.coffeeFamily,\n            tmpData.fertilizerUsed,\n            tmpData.harvestDate,\n            tmpData.humidityPercentage,\n            tmpData.batchWeight\n        );\n    }\n\n    function setProcessData(\n        address batchNo,\n        string[] memory _addressLatLngProcessor,\n        string memory _typeOfDrying,\n        string memory _humidityAfterDrying,\n        string memory _roastImageHash,\n        string[] memory _tempTypeRoast,\n        string[] memory _roastMillDates,\n        string memory _processorPricePerKilo,\n        string memory _processBatchWeight\n    ) public onlyAuthCaller returns (bool) {\n        processData.addressLatLngProcessor = _addressLatLngProcessor;\n        processData.typeOfDrying = _typeOfDrying;\n        processData.humidityAfterDrying = _humidityAfterDrying;\n        processData.roastImageHash = _roastImageHash;\n        processData.tempTypeRoast = _tempTypeRoast;\n        processData.roastMillDates = _roastMillDates;\n        processData.processorPricePerKilo = _processorPricePerKilo;\n        processData.processBatchWeight = _processBatchWeight;\n\n        batchProcess[batchNo] = processData;\n\n        nextAction[batchNo] = \"TASTER\";\n        return (true);\n    }\n\n    function getProcessData(address batchNo)\n        public\n        view\n        onlyAuthCaller\n        returns (\n            string[] memory addressLatLngProcessor,\n            string memory typeOfDrying,\n            string memory humidityAfterDrying,\n            string memory roastImageHash,\n            string[] memory tempTypeRoast,\n            string[] memory roastMillDates,\n            string memory processorPricePerKilo,\n            string memory processBatchWeight\n        )\n    {\n        Process memory tmpData = batchProcess[batchNo];\n        return (\n            tmpData.addressLatLngProcessor,\n            tmpData.typeOfDrying,\n            tmpData.humidityAfterDrying,\n            tmpData.roastImageHash,\n            tmpData.tempTypeRoast,\n            tmpData.roastMillDates,\n            tmpData.processorPricePerKilo,\n            tmpData.processBatchWeight\n        );\n    }\n\n    function setTasteData(\n        address batchNo,\n        string memory _tastingScore,\n        string memory _tastingServicePrice\n    ) public onlyAuthCaller returns (bool) {\n        tasteData.tastingScore = _tastingScore;\n        tasteData.tastingServicePrice = _tastingServicePrice;\n\n        batchTaste[batchNo] = tasteData;\n        nextAction[batchNo] = \"SELLER\";\n        return true;\n    }\n\n    function getTasteData(address batchNo)\n        public\n        view\n        onlyAuthCaller\n        returns (string memory tastingScore, string memory tastingServicePrice)\n    {\n        Taste memory tmpData = batchTaste[batchNo];\n        return (tmpData.tastingScore, tmpData.tastingServicePrice);\n    }\n\n    function setCoffeeSellData(\n        address batchNo,\n        string memory _coffeeSellingBatchWeight,\n        string memory _beanPricePerKilo\n    ) public onlyAuthCaller returns (bool) {\n        coffeeSellData.coffeeSellingBatchWeight = _coffeeSellingBatchWeight;\n        coffeeSellData.beanPricePerKilo = _beanPricePerKilo;\n\n        batchCoffeSell[batchNo] = coffeeSellData;\n        nextAction[batchNo] = \"WAREHOUSE\";\n        return true;\n    }\n\n    function getCoffeeSellData(address batchNo)\n        public\n        view\n        onlyAuthCaller\n        returns (\n            string memory coffeeSellingBatchWeight,\n            string memory beanPricePerKilo\n        )\n    {\n        CoffeeSell memory tmpData = batchCoffeSell[batchNo];\n        return (tmpData.coffeeSellingBatchWeight, tmpData.beanPricePerKilo);\n    }\n}\n",
  "sourcePath": "/home/nathalia/TESIS/coffee-supply-chain-tracking-system-ethereum/contracts/SupplyChainStorage.sol",
  "compiler": {
    "name": "solc",
    "version": "0.8.16+commit.07a7930e.Emscripten.clang"
  },
  "schemaVersion": "3.4.4",
  "updatedAt": "2022-08-11T13:07:16.904Z",
  "networkType": "ethereum",
  "devdoc": {
    "kind": "dev",
    "methods": {},
    "version": 1
  },
  "userdoc": {
    "kind": "user",
    "methods": {},
    "version": 1
  }
}