{
  "contractName": "SupplyChainStorage",
  "abi": [
    {
      "inputs": [],
      "stateMutability": "nonpayable",
      "type": "constructor"
    },
    {
      "anonymous": false,
      "inputs": [
        {
          "indexed": false,
          "internalType": "address",
          "name": "caller",
          "type": "address"
        }
      ],
      "name": "AuthorizedCaller",
      "type": "event"
    },
    {
      "anonymous": false,
      "inputs": [
        {
          "indexed": false,
          "internalType": "address",
          "name": "caller",
          "type": "address"
        }
      ],
      "name": "DeAuthorizedCaller",
      "type": "event"
    },
    {
      "anonymous": false,
      "inputs": [
        {
          "indexed": true,
          "internalType": "address",
          "name": "previousOwner",
          "type": "address"
        }
      ],
      "name": "OwnershipRenounced",
      "type": "event"
    },
    {
      "anonymous": false,
      "inputs": [
        {
          "indexed": true,
          "internalType": "address",
          "name": "previusOwner",
          "type": "address"
        },
        {
          "indexed": true,
          "internalType": "address",
          "name": "newOwner",
          "type": "address"
        }
      ],
      "name": "OwnershipTransferred",
      "type": "event"
    },
    {
      "anonymous": false,
      "inputs": [
        {
          "indexed": false,
          "internalType": "address",
          "name": "userAddress",
          "type": "address"
        }
      ],
      "name": "UserRoleUpdate",
      "type": "event"
    },
    {
      "anonymous": false,
      "inputs": [
        {
          "indexed": false,
          "internalType": "address",
          "name": "userAddress",
          "type": "address"
        }
      ],
      "name": "UserUpdate",
      "type": "event"
    },
    {
      "inputs": [],
      "name": "owner",
      "outputs": [
        {
          "internalType": "address",
          "name": "",
          "type": "address"
        }
      ],
      "stateMutability": "view",
      "type": "function",
      "constant": true
    },
    {
      "inputs": [],
      "name": "renounceOwnership",
      "outputs": [],
      "stateMutability": "nonpayable",
      "type": "function"
    },
    {
      "inputs": [
        {
          "internalType": "address",
          "name": "newOwner",
          "type": "address"
        }
      ],
      "name": "transferOwnership",
      "outputs": [],
      "stateMutability": "nonpayable",
      "type": "function"
    },
    {
      "inputs": [
        {
          "internalType": "address",
          "name": "_caller",
          "type": "address"
        }
      ],
      "name": "authorizeCaller",
      "outputs": [
        {
          "internalType": "bool",
          "name": "",
          "type": "bool"
        }
      ],
      "stateMutability": "nonpayable",
      "type": "function"
    },
    {
      "inputs": [
        {
          "internalType": "address",
          "name": "_caller",
          "type": "address"
        }
      ],
      "name": "deAuthorizeCaller",
      "outputs": [
        {
          "internalType": "bool",
          "name": "",
          "type": "bool"
        }
      ],
      "stateMutability": "nonpayable",
      "type": "function"
    },
    {
      "inputs": [
        {
          "internalType": "address",
          "name": "_userAddress",
          "type": "address"
        }
      ],
      "name": "getUserRole",
      "outputs": [
        {
          "internalType": "string",
          "name": "",
          "type": "string"
        }
      ],
      "stateMutability": "view",
      "type": "function",
      "constant": true
    },
    {
      "inputs": [
        {
          "internalType": "address",
          "name": "_batchNo",
          "type": "address"
        }
      ],
      "name": "getNextAction",
      "outputs": [
        {
          "internalType": "string",
          "name": "",
          "type": "string"
        }
      ],
      "stateMutability": "view",
      "type": "function",
      "constant": true
    },
    {
      "inputs": [
        {
          "internalType": "address",
          "name": "_userAddress",
          "type": "address"
        },
        {
          "internalType": "string",
          "name": "_name",
          "type": "string"
        },
        {
          "internalType": "string",
          "name": "_email",
          "type": "string"
        },
        {
          "internalType": "string",
          "name": "_role",
          "type": "string"
        },
        {
          "internalType": "bool",
          "name": "_isActive",
          "type": "bool"
        },
        {
          "internalType": "string",
          "name": "_profileHash",
          "type": "string"
        }
      ],
      "name": "setUser",
      "outputs": [
        {
          "internalType": "bool",
          "name": "",
          "type": "bool"
        }
      ],
      "stateMutability": "nonpayable",
      "type": "function"
    },
    {
      "inputs": [
        {
          "internalType": "address",
          "name": "_userAddress",
          "type": "address"
        }
      ],
      "name": "getUser",
      "outputs": [
        {
          "internalType": "string",
          "name": "name",
          "type": "string"
        },
        {
          "internalType": "string",
          "name": "email",
          "type": "string"
        },
        {
          "internalType": "string",
          "name": "role",
          "type": "string"
        },
        {
          "internalType": "bool",
          "name": "isActive",
          "type": "bool"
        },
        {
          "internalType": "string",
          "name": "profileHash",
          "type": "string"
        }
      ],
      "stateMutability": "view",
      "type": "function",
      "constant": true
    },
    {
      "inputs": [
        {
          "internalType": "string",
          "name": "_registrationNo",
          "type": "string"
        },
        {
          "internalType": "string",
          "name": "_farmName",
          "type": "string"
        },
        {
          "internalType": "string",
          "name": "_latitude",
          "type": "string"
        },
        {
          "internalType": "string",
          "name": "_longitude",
          "type": "string"
        },
        {
          "internalType": "string",
          "name": "_farmAddress",
          "type": "string"
        }
      ],
      "name": "setFarmDetails",
      "outputs": [
        {
          "internalType": "address",
          "name": "",
          "type": "address"
        }
      ],
      "stateMutability": "nonpayable",
      "type": "function"
    },
    {
      "inputs": [
        {
          "internalType": "address",
          "name": "_batchNo",
          "type": "address"
        }
      ],
      "name": "getFarmDetails",
      "outputs": [
        {
          "internalType": "string",
          "name": "registrationNo",
          "type": "string"
        },
        {
          "internalType": "string",
          "name": "farmName",
          "type": "string"
        },
        {
          "internalType": "string",
          "name": "latitude",
          "type": "string"
        },
        {
          "internalType": "string",
          "name": "longitude",
          "type": "string"
        },
        {
          "internalType": "string",
          "name": "farmAddress",
          "type": "string"
        }
      ],
      "stateMutability": "view",
      "type": "function",
      "constant": true
    },
    {
      "inputs": [
        {
          "internalType": "address",
          "name": "batchNo",
          "type": "address"
        },
        {
          "internalType": "string",
          "name": "_coffeeFamily",
          "type": "string"
        },
        {
          "internalType": "string",
          "name": "_typeOfSeed",
          "type": "string"
        },
        {
          "internalType": "string",
          "name": "_fertilizerUsed",
          "type": "string"
        },
        {
          "internalType": "string",
          "name": "_harvestDate",
          "type": "string"
        }
      ],
      "name": "setHarvestData",
      "outputs": [
        {
          "internalType": "bool",
          "name": "",
          "type": "bool"
        }
      ],
      "stateMutability": "nonpayable",
      "type": "function"
    },
    {
      "inputs": [
        {
          "internalType": "address",
          "name": "batchNo",
          "type": "address"
        }
      ],
      "name": "getHarvestData",
      "outputs": [
        {
          "internalType": "string",
          "name": "coffeeFamily",
          "type": "string"
        },
        {
          "internalType": "string",
          "name": "typeOfSeed",
          "type": "string"
        },
        {
          "internalType": "string",
          "name": "fertilizerUsed",
          "type": "string"
        },
        {
          "internalType": "string",
          "name": "harvestDate",
          "type": "string"
        }
      ],
      "stateMutability": "view",
      "type": "function",
      "constant": true
    },
    {
      "inputs": [
        {
          "internalType": "address",
          "name": "batchNo",
          "type": "address"
        },
        {
          "internalType": "string",
          "name": "_procAddress",
          "type": "string"
        },
        {
          "internalType": "string",
          "name": "_typeOfDrying",
          "type": "string"
        },
        {
          "internalType": "string",
          "name": "_roastImageHash",
          "type": "string"
        },
        {
          "internalType": "string",
          "name": "_roastTemp",
          "type": "string"
        },
        {
          "internalType": "string",
          "name": "_typeOfRoast",
          "type": "string"
        },
        {
          "internalType": "string",
          "name": "_roastDate",
          "type": "string"
        },
        {
          "internalType": "string",
          "name": "_millDate",
          "type": "string"
        },
        {
          "internalType": "uint256",
          "name": "_processorPrice",
          "type": "uint256"
        }
      ],
      "name": "setProcessData",
      "outputs": [
        {
          "internalType": "bool",
          "name": "",
          "type": "bool"
        }
      ],
      "stateMutability": "nonpayable",
      "type": "function"
    },
    {
      "inputs": [
        {
          "internalType": "address",
          "name": "batchNo",
          "type": "address"
        }
      ],
      "name": "getProcessData",
      "outputs": [
        {
          "internalType": "string",
          "name": "procAddress",
          "type": "string"
        },
        {
          "internalType": "string",
          "name": "typeOfDrying",
          "type": "string"
        },
        {
          "internalType": "string",
          "name": "roastImageHash",
          "type": "string"
        },
        {
          "internalType": "string",
          "name": "roastTemp",
          "type": "string"
        },
        {
          "internalType": "string",
          "name": "typeOfRoast",
          "type": "string"
        },
        {
          "internalType": "string",
          "name": "roastDate",
          "type": "string"
        },
        {
          "internalType": "string",
          "name": "millDate",
          "type": "string"
        },
        {
          "internalType": "uint256",
          "name": "processorPrice",
          "type": "uint256"
        }
      ],
      "stateMutability": "view",
      "type": "function",
      "constant": true
    },
    {
      "inputs": [
        {
          "internalType": "address",
          "name": "batchNo",
          "type": "address"
        },
        {
          "internalType": "uint256",
          "name": "_tasteScore",
          "type": "uint256"
        },
        {
          "internalType": "uint256",
          "name": "_grainPrice",
          "type": "uint256"
        }
      ],
      "name": "setGrainData",
      "outputs": [
        {
          "internalType": "bool",
          "name": "",
          "type": "bool"
        }
      ],
      "stateMutability": "nonpayable",
      "type": "function"
    },
    {
      "inputs": [
        {
          "internalType": "address",
          "name": "batchNo",
          "type": "address"
        }
      ],
      "name": "getGrainData",
      "outputs": [
        {
          "internalType": "uint256",
          "name": "tasteScore",
          "type": "uint256"
        },
        {
          "internalType": "uint256",
          "name": "grainPrice",
          "type": "uint256"
        }
      ],
      "stateMutability": "view",
      "type": "function",
      "constant": true
    },
    {
      "inputs": [
        {
          "internalType": "address",
          "name": "batchNo",
          "type": "address"
        },
        {
          "internalType": "string",
          "name": "_agglomAddress",
          "type": "string"
        },
        {
          "internalType": "string",
          "name": "_agglomDate",
          "type": "string"
        },
        {
          "internalType": "uint256",
          "name": "_storagePrice",
          "type": "uint256"
        }
      ],
      "name": "setAgglomData",
      "outputs": [
        {
          "internalType": "bool",
          "name": "",
          "type": "bool"
        }
      ],
      "stateMutability": "nonpayable",
      "type": "function"
    },
    {
      "inputs": [
        {
          "internalType": "address",
          "name": "batchNo",
          "type": "address"
        }
      ],
      "name": "getAgglomData",
      "outputs": [
        {
          "internalType": "string",
          "name": "agglomAddress",
          "type": "string"
        },
        {
          "internalType": "string",
          "name": "agglomDate",
          "type": "string"
        },
        {
          "internalType": "uint256",
          "name": "storagePrice",
          "type": "uint256"
        }
      ],
      "stateMutability": "view",
      "type": "function",
      "constant": true
    },
    {
      "inputs": [
        {
          "internalType": "address",
          "name": "batchNo",
          "type": "address"
        },
        {
          "internalType": "string",
          "name": "_transportTypeP",
          "type": "string"
        },
        {
          "internalType": "string",
          "name": "_pickupDateP",
          "type": "string"
        },
        {
          "internalType": "uint256",
          "name": "_shipPriceP",
          "type": "uint256"
        }
      ],
      "name": "setShipPackerData",
      "outputs": [
        {
          "internalType": "bool",
          "name": "",
          "type": "bool"
        }
      ],
      "stateMutability": "nonpayable",
      "type": "function"
    },
    {
      "inputs": [
        {
          "internalType": "address",
          "name": "batchNo",
          "type": "address"
        }
      ],
      "name": "getShipPackerData",
      "outputs": [
        {
          "internalType": "string",
          "name": "transportTypeP",
          "type": "string"
        },
        {
          "internalType": "string",
          "name": "pickupDateP",
          "type": "string"
        },
        {
          "internalType": "uint256",
          "name": "shipPriceP",
          "type": "uint256"
        }
      ],
      "stateMutability": "view",
      "type": "function",
      "constant": true
    },
    {
      "inputs": [
        {
          "internalType": "address",
          "name": "batchNo",
          "type": "address"
        },
        {
          "internalType": "string",
          "name": "_packAddress",
          "type": "string"
        },
        {
          "internalType": "string",
          "name": "_arrivalDateP",
          "type": "string"
        },
        {
          "internalType": "string",
          "name": "_packDate",
          "type": "string"
        },
        {
          "internalType": "uint256",
          "name": "_packPrice",
          "type": "uint256"
        }
      ],
      "name": "setPackData",
      "outputs": [
        {
          "internalType": "bool",
          "name": "",
          "type": "bool"
        }
      ],
      "stateMutability": "nonpayable",
      "type": "function"
    },
    {
      "inputs": [
        {
          "internalType": "address",
          "name": "batchNo",
          "type": "address"
        }
      ],
      "name": "getPackData",
      "outputs": [
        {
          "internalType": "string",
          "name": "packAddress",
          "type": "string"
        },
        {
          "internalType": "string",
          "name": "arrivalDateP",
          "type": "string"
        },
        {
          "internalType": "string",
          "name": "packDate",
          "type": "string"
        },
        {
          "internalType": "uint256",
          "name": "packPrice",
          "type": "uint256"
        }
      ],
      "stateMutability": "view",
      "type": "function",
      "constant": true
    },
    {
      "inputs": [
        {
          "internalType": "address",
          "name": "batchNo",
          "type": "address"
        },
        {
          "internalType": "string",
          "name": "_transportTypeR",
          "type": "string"
        },
        {
          "internalType": "string",
          "name": "_pickupDateR",
          "type": "string"
        },
        {
          "internalType": "uint256",
          "name": "_shipPriceR",
          "type": "uint256"
        }
      ],
      "name": "setShipRetailerData",
      "outputs": [
        {
          "internalType": "bool",
          "name": "",
          "type": "bool"
        }
      ],
      "stateMutability": "nonpayable",
      "type": "function"
    },
    {
      "inputs": [
        {
          "internalType": "address",
          "name": "batchNo",
          "type": "address"
        }
      ],
      "name": "getShipRetailerData",
      "outputs": [
        {
          "internalType": "string",
          "name": "transportTypeR",
          "type": "string"
        },
        {
          "internalType": "string",
          "name": "pickupDateR",
          "type": "string"
        },
        {
          "internalType": "uint256",
          "name": "shipPriceR",
          "type": "uint256"
        }
      ],
      "stateMutability": "view",
      "type": "function",
      "constant": true
    },
    {
      "inputs": [
        {
          "internalType": "address",
          "name": "batchNo",
          "type": "address"
        },
        {
          "internalType": "string",
          "name": "_arrivalDateW",
          "type": "string"
        },
        {
          "internalType": "string",
          "name": "_arrivalDateSP",
          "type": "string"
        },
        {
          "internalType": "string",
          "name": "_warehouseName",
          "type": "string"
        },
        {
          "internalType": "string",
          "name": "_warehouseAddress",
          "type": "string"
        },
        {
          "internalType": "string",
          "name": "_salePointAddress",
          "type": "string"
        },
        {
          "internalType": "uint256",
          "name": "_shipPriceSP",
          "type": "uint256"
        },
        {
          "internalType": "uint256",
          "name": "_productPrice",
          "type": "uint256"
        }
      ],
      "name": "setRetailerData",
      "outputs": [
        {
          "internalType": "bool",
          "name": "",
          "type": "bool"
        }
      ],
      "stateMutability": "nonpayable",
      "type": "function"
    },
    {
      "inputs": [
        {
          "internalType": "address",
          "name": "batchNo",
          "type": "address"
        }
      ],
      "name": "getRetailerData",
      "outputs": [
        {
          "internalType": "string",
          "name": "arrivalDateW",
          "type": "string"
        },
        {
          "internalType": "string",
          "name": "arrivalDateSP",
          "type": "string"
        },
        {
          "internalType": "string",
          "name": "warehouseName",
          "type": "string"
        },
        {
          "internalType": "string",
          "name": "warehouseAddress",
          "type": "string"
        },
        {
          "internalType": "string",
          "name": "salePointAddress",
          "type": "string"
        },
        {
          "internalType": "uint256",
          "name": "shipPriceSP",
          "type": "uint256"
        },
        {
          "internalType": "uint256",
          "name": "productPrice",
          "type": "uint256"
        }
      ],
      "stateMutability": "view",
      "type": "function",
      "constant": true
    }
  ],
  "bytecode": "0x60806040523480156200001157600080fd5b50336000806101000a81548173ffffffffffffffffffffffffffffffffffffffff021916908373ffffffffffffffffffffffffffffffffffffffff1602179055506001600360003373ffffffffffffffffffffffffffffffffffffffff1673ffffffffffffffffffffffffffffffffffffffff16815260200190815260200160002060006101000a81548160ff021916908360ff1602179055507f8afeca650897be3183b7c0d24eba96a1b990f75c4bd74a0cfb2c0a71aec48e6133604051620000dc91906200012f565b60405180910390a16200014c565b600073ffffffffffffffffffffffffffffffffffffffff82169050919050565b60006200011782620000ea565b9050919050565b62000129816200010a565b82525050565b60006020820190506200014660008301846200011e565b92915050565b614f74806200015c6000396000f3fe608060405234801561001057600080fd5b50600436106101a95760003560e01c806356a86bb2116100f95780639045499f11610097578063f0804da611610071578063f0804da6146105e2578063f2fde38b14610614578063fb779ea514610630578063fb7a20af14610664576101a9565b80639045499f1461054f578063bc8df35a14610581578063e7b58fb6146105b2576101a9565b80636f77926b116100d35780636f77926b146104bc578063702a5758146104f0578063715018a6146105275780638da5cb5b14610531576101a9565b806356a86bb2146104265780636a7352d5146104565780636ea97cea1461048c576101a9565b80632937e51d1161016657806331016cb31161014057806331016cb314610363578063326ebc031461039657806344ccaa2a146103c65780634d6b5e00146103f6576101a9565b80632937e51d146102d05780632b65dacc146103005780632c388d5d14610333576101a9565b806313fa3313146101ae578063199351bb146101de5780631a6760f5146102105780631bcd250a146102405780631dc661631461027057806327820851146102a0575b600080fd5b6101c860048036038101906101c39190614207565b610694565b6040516101d591906142c1565b60405180910390f35b6101f860048036038101906101f391906142dc565b610853565b604051610207939291906143a0565b60405180910390f35b61022a60048036038101906102259190614207565b610a4d565b60405161023791906142c1565b60405180910390f35b61025a600480360381019061025591906142dc565b610c0c565b60405161026791906142c1565b60405180910390f35b61028a600480360381019061028591906143e5565b610d00565b60405161029791906144fb565b60405180910390f35b6102ba60048036038101906102b591906142dc565b610f90565b6040516102c79190614516565b60405180910390f35b6102ea60048036038101906102e59190614538565b6110bd565b6040516102f791906142c1565b60405180910390f35b61031a600480360381019061031591906142dc565b6112dd565b60405161032a9493929190614623565b60405180910390f35b61034d600480360381019061034891906142dc565b611572565b60405161035a91906142c1565b60405180910390f35b61037d600480360381019061037891906142dc565b611666565b60405161038d949392919061467d565b60405180910390f35b6103b060048036038101906103ab91906146de565b611982565b6040516103bd91906142c1565b60405180910390f35b6103e060048036038101906103db9190614731565b611ae0565b6040516103ed91906142c1565b60405180910390f35b610410600480360381019061040b91906142dc565b611cda565b60405161041d9190614516565b60405180910390f35b610440600480360381019061043b9190614800565b611e07565b60405161044d91906142c1565b60405180910390f35b610470600480360381019061046b91906142dc565b61208c565b6040516104839796959493929190614942565b60405180910390f35b6104a660048036038101906104a191906149d4565b61246c565b6040516104b391906142c1565b60405180910390f35b6104d660048036038101906104d191906142dc565b612752565b6040516104e7959493929190614b62565b60405180910390f35b61050a600480360381019061050591906142dc565b612ac9565b60405161051e989796959493929190614bd1565b60405180910390f35b61052f612fcd565b005b6105396130cb565b60405161054691906144fb565b60405180910390f35b610569600480360381019061056491906142dc565b6130ef565b604051610578939291906143a0565b60405180910390f35b61059b600480360381019061059691906142dc565b6132e9565b6040516105a9929190614c80565b60405180910390f35b6105cc60048036038101906105c79190614207565b6133be565b6040516105d991906142c1565b60405180910390f35b6105fc60048036038101906105f791906142dc565b61357d565b60405161060b939291906143a0565b60405180910390f35b61062e600480360381019061062991906142dc565b613777565b005b61064a600480360381019061064591906142dc565b6138c6565b60405161065b959493929190614ca9565b60405180910390f35b61067e60048036038101906106799190614d4b565b613c7f565b60405161068b91906142c1565b60405180910390f35b60006001600360003373ffffffffffffffffffffffffffffffffffffffff1673ffffffffffffffffffffffffffffffffffffffff16815260200190815260200160002060009054906101000a900460ff1660ff16146106f257600080fd5b83602f600001908051906020019061070b929190613ee9565b5082602f6001019080519060200190610725929190613ee9565b5081602f60020181905550602f600b60008773ffffffffffffffffffffffffffffffffffffffff1673ffffffffffffffffffffffffffffffffffffffff168152602001908152602001600020600082018160000190805461078590614e77565b610790929190613f6f565b5060018201816001019080546107a590614e77565b6107b0929190613f6f565b50600282015481600201559050506040518060400160405280600881526020017f52455441494c4552000000000000000000000000000000000000000000000000815250600d60008773ffffffffffffffffffffffffffffffffffffffff1673ffffffffffffffffffffffffffffffffffffffff1681526020019081526020016000209080519060200190610846929190613ee9565b5060019050949350505050565b60608060006001600360003373ffffffffffffffffffffffffffffffffffffffff1673ffffffffffffffffffffffffffffffffffffffff16815260200190815260200160002060009054906101000a900460ff1660ff16146108b457600080fd5b6000600b60008673ffffffffffffffffffffffffffffffffffffffff1673ffffffffffffffffffffffffffffffffffffffff16815260200190815260200160002060405180606001604052908160008201805461091090614e77565b80601f016020809104026020016040519081016040528092919081815260200182805461093c90614e77565b80156109895780601f1061095e57610100808354040283529160200191610989565b820191906000526020600020905b81548152906001019060200180831161096c57829003601f168201915b505050505081526020016001820180546109a290614e77565b80601f01602080910402602001604051908101604052809291908181526020018280546109ce90614e77565b8015610a1b5780601f106109f057610100808354040283529160200191610a1b565b820191906000526020600020905b8154815290600101906020018083116109fe57829003601f168201915b505050505081526020016002820154815250509050806000015181602001518260400151935093509350509193909250565b60006001600360003373ffffffffffffffffffffffffffffffffffffffff1673ffffffffffffffffffffffffffffffffffffffff16815260200190815260200160002060009054906101000a900460ff1660ff1614610aab57600080fd5b8360286000019080519060200190610ac4929190613ee9565b508260286001019080519060200190610ade929190613ee9565b50816028600201819055506028600960008773ffffffffffffffffffffffffffffffffffffffff1673ffffffffffffffffffffffffffffffffffffffff1681526020019081526020016000206000820181600001908054610b3e90614e77565b610b49929190613f6f565b506001820181600101908054610b5e90614e77565b610b69929190613f6f565b50600282015481600201559050506040518060400160405280600681526020017f5041434b45520000000000000000000000000000000000000000000000000000815250600d60008773ffffffffffffffffffffffffffffffffffffffff1673ffffffffffffffffffffffffffffffffffffffff1681526020019081526020016000209080519060200190610bff929190613ee9565b5060019050949350505050565b60008060009054906101000a900473ffffffffffffffffffffffffffffffffffffffff1673ffffffffffffffffffffffffffffffffffffffff163373ffffffffffffffffffffffffffffffffffffffff1614610c6757600080fd5b6000600360008473ffffffffffffffffffffffffffffffffffffffff1673ffffffffffffffffffffffffffffffffffffffff16815260200190815260200160002060006101000a81548160ff021916908360ff1602179055507f9e8ca6ff03906e81e8a6a03d4f96b7edb0b97f0ed9d07ef1b699fff63438549682604051610cef91906144fb565b60405180910390a160019050919050565b60006001600360003373ffffffffffffffffffffffffffffffffffffffff1673ffffffffffffffffffffffffffffffffffffffff16815260200190815260200160002060009054906101000a900460ff1660ff1614610d5e57600080fd5b60003342604051602001610d73929190614f12565b6040516020818303038152906040528051906020012060001c905060008190508760126000019080519060200190610dac929190613ee9565b508660126001019080519060200190610dc6929190613ee9565b508560126002019080519060200190610de0929190613ee9565b508460126003019080519060200190610dfa929190613ee9565b508360126004019080519060200190610e14929190613ee9565b506012600460008373ffffffffffffffffffffffffffffffffffffffff1673ffffffffffffffffffffffffffffffffffffffff1681526020019081526020016000206000820181600001908054610e6a90614e77565b610e75929190613f6f565b506001820181600101908054610e8a90614e77565b610e95929190613f6f565b506002820181600201908054610eaa90614e77565b610eb5929190613f6f565b506003820181600301908054610eca90614e77565b610ed5929190613f6f565b506004820181600401908054610eea90614e77565b610ef5929190613f6f565b509050506040518060400160405280600681526020017f4641524d45520000000000000000000000000000000000000000000000000000815250600d60008373ffffffffffffffffffffffffffffffffffffffff1673ffffffffffffffffffffffffffffffffffffffff1681526020019081526020016000209080519060200190610f81929190613ee9565b50809250505095945050505050565b60606001600360003373ffffffffffffffffffffffffffffffffffffffff1673ffffffffffffffffffffffffffffffffffffffff16815260200190815260200160002060009054906101000a900460ff1660ff1614610fee57600080fd5b600260008373ffffffffffffffffffffffffffffffffffffffff1673ffffffffffffffffffffffffffffffffffffffff168152602001908152602001600020805461103890614e77565b80601f016020809104026020016040519081016040528092919081815260200182805461106490614e77565b80156110b15780601f10611086576101008083540402835291602001916110b1565b820191906000526020600020905b81548152906001019060200180831161109457829003601f168201915b50505050509050919050565b60006001600360003373ffffffffffffffffffffffffffffffffffffffff1673ffffffffffffffffffffffffffffffffffffffff16815260200190815260200160002060009054906101000a900460ff1660ff161461111b57600080fd5b8460176000019080519060200190611134929190613ee9565b50836017600101908051906020019061114e929190613ee9565b508260176002019080519060200190611168929190613ee9565b508160176003019080519060200190611182929190613ee9565b506017600560008873ffffffffffffffffffffffffffffffffffffffff1673ffffffffffffffffffffffffffffffffffffffff16815260200190815260200160002060008201816000019080546111d890614e77565b6111e3929190613f6f565b5060018201816001019080546111f890614e77565b611203929190613f6f565b50600282018160020190805461121890614e77565b611223929190613f6f565b50600382018160030190805461123890614e77565b611243929190613f6f565b509050506040518060400160405280600981526020017f50524f434553534f520000000000000000000000000000000000000000000000815250600d60008873ffffffffffffffffffffffffffffffffffffffff1673ffffffffffffffffffffffffffffffffffffffff16815260200190815260200160002090805190602001906112cf929190613ee9565b506001905095945050505050565b606080606060006001600360003373ffffffffffffffffffffffffffffffffffffffff1673ffffffffffffffffffffffffffffffffffffffff16815260200190815260200160002060009054906101000a900460ff1660ff161461134057600080fd5b6000600a60008773ffffffffffffffffffffffffffffffffffffffff1673ffffffffffffffffffffffffffffffffffffffff16815260200190815260200160002060405180608001604052908160008201805461139c90614e77565b80601f01602080910402602001604051908101604052809291908181526020018280546113c890614e77565b80156114155780601f106113ea57610100808354040283529160200191611415565b820191906000526020600020905b8154815290600101906020018083116113f857829003601f168201915b5050505050815260200160018201805461142e90614e77565b80601f016020809104026020016040519081016040528092919081815260200182805461145a90614e77565b80156114a75780601f1061147c576101008083540402835291602001916114a7565b820191906000526020600020905b81548152906001019060200180831161148a57829003601f168201915b505050505081526020016002820180546114c090614e77565b80601f01602080910402602001604051908101604052809291908181526020018280546114ec90614e77565b80156115395780601f1061150e57610100808354040283529160200191611539565b820191906000526020600020905b81548152906001019060200180831161151c57829003601f168201915b50505050508152602001600382015481525050905080600001518160200151826040015183606001519450945094509450509193509193565b60008060009054906101000a900473ffffffffffffffffffffffffffffffffffffffff1673ffffffffffffffffffffffffffffffffffffffff163373ffffffffffffffffffffffffffffffffffffffff16146115cd57600080fd5b6001600360008473ffffffffffffffffffffffffffffffffffffffff1673ffffffffffffffffffffffffffffffffffffffff16815260200190815260200160002060006101000a81548160ff021916908360ff1602179055507f8afeca650897be3183b7c0d24eba96a1b990f75c4bd74a0cfb2c0a71aec48e618260405161165591906144fb565b60405180910390a160019050919050565b6060806060806001600360003373ffffffffffffffffffffffffffffffffffffffff1673ffffffffffffffffffffffffffffffffffffffff16815260200190815260200160002060009054906101000a900460ff1660ff16146116c857600080fd5b6000600560008773ffffffffffffffffffffffffffffffffffffffff1673ffffffffffffffffffffffffffffffffffffffff16815260200190815260200160002060405180608001604052908160008201805461172490614e77565b80601f016020809104026020016040519081016040528092919081815260200182805461175090614e77565b801561179d5780601f106117725761010080835404028352916020019161179d565b820191906000526020600020905b81548152906001019060200180831161178057829003601f168201915b505050505081526020016001820180546117b690614e77565b80601f01602080910402602001604051908101604052809291908181526020018280546117e290614e77565b801561182f5780601f106118045761010080835404028352916020019161182f565b820191906000526020600020905b81548152906001019060200180831161181257829003601f168201915b5050505050815260200160028201805461184890614e77565b80601f016020809104026020016040519081016040528092919081815260200182805461187490614e77565b80156118c15780601f10611896576101008083540402835291602001916118c1565b820191906000526020600020905b8154815290600101906020018083116118a457829003601f168201915b505050505081526020016003820180546118da90614e77565b80601f016020809104026020016040519081016040528092919081815260200182805461190690614e77565b80156119535780601f1061192857610100808354040283529160200191611953565b820191906000526020600020905b81548152906001019060200180831161193657829003601f168201915b505050505081525050905080600001518160200151826040015183606001519450945094509450509193509193565b60006001600360003373ffffffffffffffffffffffffffffffffffffffff1673ffffffffffffffffffffffffffffffffffffffff16815260200190815260200160002060009054906101000a900460ff1660ff16146119e057600080fd5b82602360000181905550816023600101819055506023600760008673ffffffffffffffffffffffffffffffffffffffff1673ffffffffffffffffffffffffffffffffffffffff16815260200190815260200160002060008201548160000155600182015481600101559050506040518060400160405280600c81526020017f4147474c4f4d455241544f520000000000000000000000000000000000000000815250600d60008673ffffffffffffffffffffffffffffffffffffffff1673ffffffffffffffffffffffffffffffffffffffff1681526020019081526020016000209080519060200190611ad4929190613ee9565b50600190509392505050565b60006001600360003373ffffffffffffffffffffffffffffffffffffffff1673ffffffffffffffffffffffffffffffffffffffff16815260200190815260200160002060009054906101000a900460ff1660ff1614611b3e57600080fd5b84602b6000019080519060200190611b57929190613ee9565b5083602b6001019080519060200190611b71929190613ee9565b5082602b6002019080519060200190611b8b929190613ee9565b5081602b60030181905550602b600a60008873ffffffffffffffffffffffffffffffffffffffff1673ffffffffffffffffffffffffffffffffffffffff1681526020019081526020016000206000820181600001908054611beb90614e77565b611bf6929190613f6f565b506001820181600101908054611c0b90614e77565b611c16929190613f6f565b506002820181600201908054611c2b90614e77565b611c36929190613f6f565b50600382015481600301559050506040518060400160405280601081526020017f534849505045525f52455441494c455200000000000000000000000000000000815250600d60008873ffffffffffffffffffffffffffffffffffffffff1673ffffffffffffffffffffffffffffffffffffffff1681526020019081526020016000209080519060200190611ccc929190613ee9565b506001905095945050505050565b60606001600360003373ffffffffffffffffffffffffffffffffffffffff1673ffffffffffffffffffffffffffffffffffffffff16815260200190815260200160002060009054906101000a900460ff1660ff1614611d3857600080fd5b600d60008373ffffffffffffffffffffffffffffffffffffffff1673ffffffffffffffffffffffffffffffffffffffff1681526020019081526020016000208054611d8290614e77565b80601f0160208091040260200160405190810160405280929190818152602001828054611dae90614e77565b8015611dfb5780601f10611dd057610100808354040283529160200191611dfb565b820191906000526020600020905b815481529060010190602001808311611dde57829003601f168201915b50505050509050919050565b60006001600360003373ffffffffffffffffffffffffffffffffffffffff1673ffffffffffffffffffffffffffffffffffffffff16815260200190815260200160002060009054906101000a900460ff1660ff1614611e6557600080fd5b8760326000019080519060200190611e7e929190613ee9565b508660326001019080519060200190611e98929190613ee9565b508560326002019080519060200190611eb2929190613ee9565b508460326003019080519060200190611ecc929190613ee9565b508360326004019080519060200190611ee6929190613ee9565b5082603260050181905550816032600601819055506032600c60008b73ffffffffffffffffffffffffffffffffffffffff1673ffffffffffffffffffffffffffffffffffffffff1681526020019081526020016000206000820181600001908054611f5090614e77565b611f5b929190613f6f565b506001820181600101908054611f7090614e77565b611f7b929190613f6f565b506002820181600201908054611f9090614e77565b611f9b929190613f6f565b506003820181600301908054611fb090614e77565b611fbb929190613f6f565b506004820181600401908054611fd090614e77565b611fdb929190613f6f565b5060058201548160050155600682015481600601559050506040518060400160405280600481526020017f444f4e4500000000000000000000000000000000000000000000000000000000815250600d60008b73ffffffffffffffffffffffffffffffffffffffff1673ffffffffffffffffffffffffffffffffffffffff168152602001908152602001600020908051906020019061207b929190613ee9565b506001905098975050505050505050565b60608060608060606000806001600360003373ffffffffffffffffffffffffffffffffffffffff1673ffffffffffffffffffffffffffffffffffffffff16815260200190815260200160002060009054906101000a900460ff1660ff16146120f357600080fd5b6000600c60008a73ffffffffffffffffffffffffffffffffffffffff1673ffffffffffffffffffffffffffffffffffffffff1681526020019081526020016000206040518060e001604052908160008201805461214f90614e77565b80601f016020809104026020016040519081016040528092919081815260200182805461217b90614e77565b80156121c85780601f1061219d576101008083540402835291602001916121c8565b820191906000526020600020905b8154815290600101906020018083116121ab57829003601f168201915b505050505081526020016001820180546121e190614e77565b80601f016020809104026020016040519081016040528092919081815260200182805461220d90614e77565b801561225a5780601f1061222f5761010080835404028352916020019161225a565b820191906000526020600020905b81548152906001019060200180831161223d57829003601f168201915b5050505050815260200160028201805461227390614e77565b80601f016020809104026020016040519081016040528092919081815260200182805461229f90614e77565b80156122ec5780601f106122c1576101008083540402835291602001916122ec565b820191906000526020600020905b8154815290600101906020018083116122cf57829003601f168201915b5050505050815260200160038201805461230590614e77565b80601f016020809104026020016040519081016040528092919081815260200182805461233190614e77565b801561237e5780601f106123535761010080835404028352916020019161237e565b820191906000526020600020905b81548152906001019060200180831161236157829003601f168201915b5050505050815260200160048201805461239790614e77565b80601f01602080910402602001604051908101604052809291908181526020018280546123c390614e77565b80156124105780601f106123e557610100808354040283529160200191612410565b820191906000526020600020905b8154815290600101906020018083116123f357829003601f168201915b50505050508152602001600582015481526020016006820154815250509050806000015181602001518260400151836060015184608001518560a001518660c00151975097509750975097509750975050919395979092949650565b60006001600360003373ffffffffffffffffffffffffffffffffffffffff1673ffffffffffffffffffffffffffffffffffffffff16815260200190815260200160002060009054906101000a900460ff1660ff16146124ca57600080fd5b88601b60000190805190602001906124e3929190613ee9565b5087601b60010190805190602001906124fd929190613ee9565b5086601b6002019080519060200190612517929190613ee9565b5085601b6003019080519060200190612531929190613ee9565b5084601b600401908051906020019061254b929190613ee9565b5083601b6005019080519060200190612565929190613ee9565b5082601b600601908051906020019061257f929190613ee9565b5081601b60070181905550601b600660008c73ffffffffffffffffffffffffffffffffffffffff1673ffffffffffffffffffffffffffffffffffffffff16815260200190815260200160002060008201816000019080546125df90614e77565b6125ea929190613f6f565b5060018201816001019080546125ff90614e77565b61260a929190613f6f565b50600282018160020190805461261f90614e77565b61262a929190613f6f565b50600382018160030190805461263f90614e77565b61264a929190613f6f565b50600482018160040190805461265f90614e77565b61266a929190613f6f565b50600582018160050190805461267f90614e77565b61268a929190613f6f565b50600682018160060190805461269f90614e77565b6126aa929190613f6f565b50600782015481600701559050506040518060400160405280600f81526020017f475241494e5f494e53504543544f520000000000000000000000000000000000815250600d60008c73ffffffffffffffffffffffffffffffffffffffff1673ffffffffffffffffffffffffffffffffffffffff1681526020019081526020016000209080519060200190612740929190613ee9565b50600190509998505050505050505050565b6060806060600060606001600360003373ffffffffffffffffffffffffffffffffffffffff1673ffffffffffffffffffffffffffffffffffffffff16815260200190815260200160002060009054906101000a900460ff1660ff16146127b757600080fd5b6000600160008873ffffffffffffffffffffffffffffffffffffffff1673ffffffffffffffffffffffffffffffffffffffff16815260200190815260200160002060405180608001604052908160008201805461281390614e77565b80601f016020809104026020016040519081016040528092919081815260200182805461283f90614e77565b801561288c5780601f106128615761010080835404028352916020019161288c565b820191906000526020600020905b81548152906001019060200180831161286f57829003601f168201915b505050505081526020016001820180546128a590614e77565b80601f01602080910402602001604051908101604052809291908181526020018280546128d190614e77565b801561291e5780601f106128f35761010080835404028352916020019161291e565b820191906000526020600020905b81548152906001019060200180831161290157829003601f168201915b505050505081526020016002820160009054906101000a900460ff1615151515815260200160038201805461295290614e77565b80601f016020809104026020016040519081016040528092919081815260200182805461297e90614e77565b80156129cb5780601f106129a0576101008083540402835291602001916129cb565b820191906000526020600020905b8154815290600101906020018083116129ae57829003601f168201915b505050505081525050905080600001518160200151600260008a73ffffffffffffffffffffffffffffffffffffffff1673ffffffffffffffffffffffffffffffffffffffff16815260200190815260200160002083604001518460600151828054612a3590614e77565b80601f0160208091040260200160405190810160405280929190818152602001828054612a6190614e77565b8015612aae5780601f10612a8357610100808354040283529160200191612aae565b820191906000526020600020905b815481529060010190602001808311612a9157829003601f168201915b50505050509250955095509550955095505091939590929450565b606080606080606080606060006001600360003373ffffffffffffffffffffffffffffffffffffffff1673ffffffffffffffffffffffffffffffffffffffff16815260200190815260200160002060009054906101000a900460ff1660ff1614612b3257600080fd5b6000600660008b73ffffffffffffffffffffffffffffffffffffffff1673ffffffffffffffffffffffffffffffffffffffff16815260200190815260200160002060405180610100016040529081600082018054612b8f90614e77565b80601f0160208091040260200160405190810160405280929190818152602001828054612bbb90614e77565b8015612c085780601f10612bdd57610100808354040283529160200191612c08565b820191906000526020600020905b815481529060010190602001808311612beb57829003601f168201915b50505050508152602001600182018054612c2190614e77565b80601f0160208091040260200160405190810160405280929190818152602001828054612c4d90614e77565b8015612c9a5780601f10612c6f57610100808354040283529160200191612c9a565b820191906000526020600020905b815481529060010190602001808311612c7d57829003601f168201915b50505050508152602001600282018054612cb390614e77565b80601f0160208091040260200160405190810160405280929190818152602001828054612cdf90614e77565b8015612d2c5780601f10612d0157610100808354040283529160200191612d2c565b820191906000526020600020905b815481529060010190602001808311612d0f57829003601f168201915b50505050508152602001600382018054612d4590614e77565b80601f0160208091040260200160405190810160405280929190818152602001828054612d7190614e77565b8015612dbe5780601f10612d9357610100808354040283529160200191612dbe565b820191906000526020600020905b815481529060010190602001808311612da157829003601f168201915b50505050508152602001600482018054612dd790614e77565b80601f0160208091040260200160405190810160405280929190818152602001828054612e0390614e77565b8015612e505780601f10612e2557610100808354040283529160200191612e50565b820191906000526020600020905b815481529060010190602001808311612e3357829003601f168201915b50505050508152602001600582018054612e6990614e77565b80601f0160208091040260200160405190810160405280929190818152602001828054612e9590614e77565b8015612ee25780601f10612eb757610100808354040283529160200191612ee2565b820191906000526020600020905b815481529060010190602001808311612ec557829003601f168201915b50505050508152602001600682018054612efb90614e77565b80601f0160208091040260200160405190810160405280929190818152602001828054612f2790614e77565b8015612f745780601f10612f4957610100808354040283529160200191612f74565b820191906000526020600020905b815481529060010190602001808311612f5757829003601f168201915b505050505081526020016007820154815250509050806000015181602001518260400151836060015184608001518560a001518660c001518760e001519850985098509850985098509850985050919395975091939597565b60008054906101000a900473ffffffffffffffffffffffffffffffffffffffff1673ffffffffffffffffffffffffffffffffffffffff163373ffffffffffffffffffffffffffffffffffffffff161461302557600080fd5b60008054906101000a900473ffffffffffffffffffffffffffffffffffffffff1673ffffffffffffffffffffffffffffffffffffffff167ff8df31144d9c2f0f6b59d69b8b98abd5459d07f2742c4df920b25aae33c6482060405160405180910390a260008060006101000a81548173ffffffffffffffffffffffffffffffffffffffff021916908373ffffffffffffffffffffffffffffffffffffffff160217905550565b60008054906101000a900473ffffffffffffffffffffffffffffffffffffffff1681565b60608060006001600360003373ffffffffffffffffffffffffffffffffffffffff1673ffffffffffffffffffffffffffffffffffffffff16815260200190815260200160002060009054906101000a900460ff1660ff161461315057600080fd5b6000600960008673ffffffffffffffffffffffffffffffffffffffff1673ffffffffffffffffffffffffffffffffffffffff1681526020019081526020016000206040518060600160405290816000820180546131ac90614e77565b80601f01602080910402602001604051908101604052809291908181526020018280546131d890614e77565b80156132255780601f106131fa57610100808354040283529160200191613225565b820191906000526020600020905b81548152906001019060200180831161320857829003601f168201915b5050505050815260200160018201805461323e90614e77565b80601f016020809104026020016040519081016040528092919081815260200182805461326a90614e77565b80156132b75780601f1061328c576101008083540402835291602001916132b7565b820191906000526020600020905b81548152906001019060200180831161329a57829003601f168201915b505050505081526020016002820154815250509050806000015181602001518260400151935093509350509193909250565b6000806001600360003373ffffffffffffffffffffffffffffffffffffffff1673ffffffffffffffffffffffffffffffffffffffff16815260200190815260200160002060009054906101000a900460ff1660ff161461334857600080fd5b6000600760008573ffffffffffffffffffffffffffffffffffffffff1673ffffffffffffffffffffffffffffffffffffffff168152602001908152602001600020604051806040016040529081600082015481526020016001820154815250509050806000015181602001519250925050915091565b60006001600360003373ffffffffffffffffffffffffffffffffffffffff1673ffffffffffffffffffffffffffffffffffffffff16815260200190815260200160002060009054906101000a900460ff1660ff161461341c57600080fd5b8360256000019080519060200190613435929190613ee9565b50826025600101908051906020019061344f929190613ee9565b50816025600201819055506025600860008773ffffffffffffffffffffffffffffffffffffffff1673ffffffffffffffffffffffffffffffffffffffff16815260200190815260200160002060008201816000019080546134af90614e77565b6134ba929190613f6f565b5060018201816001019080546134cf90614e77565b6134da929190613f6f565b50600282015481600201559050506040518060400160405280600e81526020017f534849505045525f5041434b4552000000000000000000000000000000000000815250600d60008773ffffffffffffffffffffffffffffffffffffffff1673ffffffffffffffffffffffffffffffffffffffff1681526020019081526020016000209080519060200190613570929190613ee9565b5060019050949350505050565b60608060006001600360003373ffffffffffffffffffffffffffffffffffffffff1673ffffffffffffffffffffffffffffffffffffffff16815260200190815260200160002060009054906101000a900460ff1660ff16146135de57600080fd5b6000600860008673ffffffffffffffffffffffffffffffffffffffff1673ffffffffffffffffffffffffffffffffffffffff16815260200190815260200160002060405180606001604052908160008201805461363a90614e77565b80601f016020809104026020016040519081016040528092919081815260200182805461366690614e77565b80156136b35780601f10613688576101008083540402835291602001916136b3565b820191906000526020600020905b81548152906001019060200180831161369657829003601f168201915b505050505081526020016001820180546136cc90614e77565b80601f01602080910402602001604051908101604052809291908181526020018280546136f890614e77565b80156137455780601f1061371a57610100808354040283529160200191613745565b820191906000526020600020905b81548152906001019060200180831161372857829003601f168201915b505050505081526020016002820154815250509050806000015181602001518260400151935093509350509193909250565b60008054906101000a900473ffffffffffffffffffffffffffffffffffffffff1673ffffffffffffffffffffffffffffffffffffffff163373ffffffffffffffffffffffffffffffffffffffff16146137cf57600080fd5b600073ffffffffffffffffffffffffffffffffffffffff168173ffffffffffffffffffffffffffffffffffffffff16141561380957600080fd5b8073ffffffffffffffffffffffffffffffffffffffff1660008054906101000a900473ffffffffffffffffffffffffffffffffffffffff1673ffffffffffffffffffffffffffffffffffffffff167f8be0079c531659141344cd1fd0a4f28419497f9722a3daafe3b4186f6b6457e060405160405180910390a3806000806101000a81548173ffffffffffffffffffffffffffffffffffffffff021916908373ffffffffffffffffffffffffffffffffffffffff16021790555050565b60608060608060606001600360003373ffffffffffffffffffffffffffffffffffffffff1673ffffffffffffffffffffffffffffffffffffffff16815260200190815260200160002060009054906101000a900460ff1660ff161461392a57600080fd5b6000600460008873ffffffffffffffffffffffffffffffffffffffff1673ffffffffffffffffffffffffffffffffffffffff1681526020019081526020016000206040518060a001604052908160008201805461398690614e77565b80601f01602080910402602001604051908101604052809291908181526020018280546139b290614e77565b80156139ff5780601f106139d4576101008083540402835291602001916139ff565b820191906000526020600020905b8154815290600101906020018083116139e257829003601f168201915b50505050508152602001600182018054613a1890614e77565b80601f0160208091040260200160405190810160405280929190818152602001828054613a4490614e77565b8015613a915780601f10613a6657610100808354040283529160200191613a91565b820191906000526020600020905b815481529060010190602001808311613a7457829003601f168201915b50505050508152602001600282018054613aaa90614e77565b80601f0160208091040260200160405190810160405280929190818152602001828054613ad690614e77565b8015613b235780601f10613af857610100808354040283529160200191613b23565b820191906000526020600020905b815481529060010190602001808311613b0657829003601f168201915b50505050508152602001600382018054613b3c90614e77565b80601f0160208091040260200160405190810160405280929190818152602001828054613b6890614e77565b8015613bb55780601f10613b8a57610100808354040283529160200191613bb5565b820191906000526020600020905b815481529060010190602001808311613b9857829003601f168201915b50505050508152602001600482018054613bce90614e77565b80601f0160208091040260200160405190810160405280929190818152602001828054613bfa90614e77565b8015613c475780601f10613c1c57610100808354040283529160200191613c47565b820191906000526020600020905b815481529060010190602001808311613c2a57829003601f168201915b505050505081525050905080600001518160200151826040015183606001518460800151955095509550955095505091939590929450565b60006001600360003373ffffffffffffffffffffffffffffffffffffffff1673ffffffffffffffffffffffffffffffffffffffff16815260200190815260200160002060009054906101000a900460ff1660ff1614613cdd57600080fd5b85600e6000019080519060200190613cf6929190613ee9565b5084600e6001019080519060200190613d10929190613ee9565b5082600e60020160006101000a81548160ff02191690831515021790555081600e6003019080519060200190613d47929190613ee9565b50600e600160008973ffffffffffffffffffffffffffffffffffffffff1673ffffffffffffffffffffffffffffffffffffffff1681526020019081526020016000206000820181600001908054613d9d90614e77565b613da8929190613f6f565b506001820181600101908054613dbd90614e77565b613dc8929190613f6f565b506002820160009054906101000a900460ff168160020160006101000a81548160ff0219169083151502179055506003820181600301908054613e0a90614e77565b613e15929190613f6f565b5090505083600260008973ffffffffffffffffffffffffffffffffffffffff1673ffffffffffffffffffffffffffffffffffffffff1681526020019081526020016000209080519060200190613e6c929190613ee9565b507f1d222b775a8ac40f88e57f60a9f9cef32825dee88b7d0a2e757e7dd2082cbe7787604051613e9c91906144fb565b60405180910390a17f5108391b825bd4c3d7f3c6a8d5cb1dfb3d7db4e2663bdef2d6a43643d6c3851387604051613ed391906144fb565b60405180910390a1600190509695505050505050565b828054613ef590614e77565b90600052602060002090601f016020900481019282613f175760008555613f5e565b82601f10613f3057805160ff1916838001178555613f5e565b82800160010185558215613f5e579182015b82811115613f5d578251825591602001919060010190613f42565b5b509050613f6b9190613ffc565b5090565b828054613f7b90614e77565b90600052602060002090601f016020900481019282613f9d5760008555613feb565b82601f10613fae5780548555613feb565b82800160010185558215613feb57600052602060002091601f016020900482015b82811115613fea578254825591600101919060010190613fcf565b5b509050613ff89190613ffc565b5090565b5b80821115614015576000816000905550600101613ffd565b5090565b6000604051905090565b600080fd5b600080fd5b600073ffffffffffffffffffffffffffffffffffffffff82169050919050565b60006140588261402d565b9050919050565b6140688161404d565b811461407357600080fd5b50565b6000813590506140858161405f565b92915050565b600080fd5b600080fd5b6000601f19601f8301169050919050565b7f4e487b7100000000000000000000000000000000000000000000000000000000600052604160045260246000fd5b6140de82614095565b810181811067ffffffffffffffff821117156140fd576140fc6140a6565b5b80604052505050565b6000614110614019565b905061411c82826140d5565b919050565b600067ffffffffffffffff82111561413c5761413b6140a6565b5b61414582614095565b9050602081019050919050565b82818337600083830152505050565b600061417461416f84614121565b614106565b9050828152602081018484840111156141905761418f614090565b5b61419b848285614152565b509392505050565b600082601f8301126141b8576141b761408b565b5b81356141c8848260208601614161565b91505092915050565b6000819050919050565b6141e4816141d1565b81146141ef57600080fd5b50565b600081359050614201816141db565b92915050565b6000806000806080858703121561422157614220614023565b5b600061422f87828801614076565b945050602085013567ffffffffffffffff8111156142505761424f614028565b5b61425c878288016141a3565b935050604085013567ffffffffffffffff81111561427d5761427c614028565b5b614289878288016141a3565b925050606061429a878288016141f2565b91505092959194509250565b60008115159050919050565b6142bb816142a6565b82525050565b60006020820190506142d660008301846142b2565b92915050565b6000602082840312156142f2576142f1614023565b5b600061430084828501614076565b91505092915050565b600081519050919050565b600082825260208201905092915050565b60005b83811015614343578082015181840152602081019050614328565b83811115614352576000848401525b50505050565b600061436382614309565b61436d8185614314565b935061437d818560208601614325565b61438681614095565b840191505092915050565b61439a816141d1565b82525050565b600060608201905081810360008301526143ba8186614358565b905081810360208301526143ce8185614358565b90506143dd6040830184614391565b949350505050565b600080600080600060a0868803121561440157614400614023565b5b600086013567ffffffffffffffff81111561441f5761441e614028565b5b61442b888289016141a3565b955050602086013567ffffffffffffffff81111561444c5761444b614028565b5b614458888289016141a3565b945050604086013567ffffffffffffffff81111561447957614478614028565b5b614485888289016141a3565b935050606086013567ffffffffffffffff8111156144a6576144a5614028565b5b6144b2888289016141a3565b925050608086013567ffffffffffffffff8111156144d3576144d2614028565b5b6144df888289016141a3565b9150509295509295909350565b6144f58161404d565b82525050565b600060208201905061451060008301846144ec565b92915050565b600060208201905081810360008301526145308184614358565b905092915050565b600080600080600060a0868803121561455457614553614023565b5b600061456288828901614076565b955050602086013567ffffffffffffffff81111561458357614582614028565b5b61458f888289016141a3565b945050604086013567ffffffffffffffff8111156145b0576145af614028565b5b6145bc888289016141a3565b935050606086013567ffffffffffffffff8111156145dd576145dc614028565b5b6145e9888289016141a3565b925050608086013567ffffffffffffffff81111561460a57614609614028565b5b614616888289016141a3565b9150509295509295909350565b6000608082019050818103600083015261463d8187614358565b905081810360208301526146518186614358565b905081810360408301526146658185614358565b90506146746060830184614391565b95945050505050565b600060808201905081810360008301526146978187614358565b905081810360208301526146ab8186614358565b905081810360408301526146bf8185614358565b905081810360608301526146d38184614358565b905095945050505050565b6000806000606084860312156146f7576146f6614023565b5b600061470586828701614076565b9350506020614716868287016141f2565b9250506040614727868287016141f2565b9150509250925092565b600080600080600060a0868803121561474d5761474c614023565b5b600061475b88828901614076565b955050602086013567ffffffffffffffff81111561477c5761477b614028565b5b614788888289016141a3565b945050604086013567ffffffffffffffff8111156147a9576147a8614028565b5b6147b5888289016141a3565b935050606086013567ffffffffffffffff8111156147d6576147d5614028565b5b6147e2888289016141a3565b92505060806147f3888289016141f2565b9150509295509295909350565b600080600080600080600080610100898b03121561482157614820614023565b5b600061482f8b828c01614076565b985050602089013567ffffffffffffffff8111156148505761484f614028565b5b61485c8b828c016141a3565b975050604089013567ffffffffffffffff81111561487d5761487c614028565b5b6148898b828c016141a3565b965050606089013567ffffffffffffffff8111156148aa576148a9614028565b5b6148b68b828c016141a3565b955050608089013567ffffffffffffffff8111156148d7576148d6614028565b5b6148e38b828c016141a3565b94505060a089013567ffffffffffffffff81111561490457614903614028565b5b6149108b828c016141a3565b93505060c06149218b828c016141f2565b92505060e06149328b828c016141f2565b9150509295985092959890939650565b600060e082019050818103600083015261495c818a614358565b905081810360208301526149708189614358565b905081810360408301526149848188614358565b905081810360608301526149988187614358565b905081810360808301526149ac8186614358565b90506149bb60a0830185614391565b6149c860c0830184614391565b98975050505050505050565b60008060008060008060008060006101208a8c0312156149f7576149f6614023565b5b6000614a058c828d01614076565b99505060208a013567ffffffffffffffff811115614a2657614a25614028565b5b614a328c828d016141a3565b98505060408a013567ffffffffffffffff811115614a5357614a52614028565b5b614a5f8c828d016141a3565b97505060608a013567ffffffffffffffff811115614a8057614a7f614028565b5b614a8c8c828d016141a3565b96505060808a013567ffffffffffffffff811115614aad57614aac614028565b5b614ab98c828d016141a3565b95505060a08a013567ffffffffffffffff811115614ada57614ad9614028565b5b614ae68c828d016141a3565b94505060c08a013567ffffffffffffffff811115614b0757614b06614028565b5b614b138c828d016141a3565b93505060e08a013567ffffffffffffffff811115614b3457614b33614028565b5b614b408c828d016141a3565b925050610100614b528c828d016141f2565b9150509295985092959850929598565b600060a0820190508181036000830152614b7c8188614358565b90508181036020830152614b908187614358565b90508181036040830152614ba48186614358565b9050614bb360608301856142b2565b8181036080830152614bc58184614358565b90509695505050505050565b6000610100820190508181036000830152614bec818b614358565b90508181036020830152614c00818a614358565b90508181036040830152614c148189614358565b90508181036060830152614c288188614358565b90508181036080830152614c3c8187614358565b905081810360a0830152614c508186614358565b905081810360c0830152614c648185614358565b9050614c7360e0830184614391565b9998505050505050505050565b6000604082019050614c956000830185614391565b614ca26020830184614391565b9392505050565b600060a0820190508181036000830152614cc38188614358565b90508181036020830152614cd78187614358565b90508181036040830152614ceb8186614358565b90508181036060830152614cff8185614358565b90508181036080830152614d138184614358565b90509695505050505050565b614d28816142a6565b8114614d3357600080fd5b50565b600081359050614d4581614d1f565b92915050565b60008060008060008060c08789031215614d6857614d67614023565b5b6000614d7689828a01614076565b965050602087013567ffffffffffffffff811115614d9757614d96614028565b5b614da389828a016141a3565b955050604087013567ffffffffffffffff811115614dc457614dc3614028565b5b614dd089828a016141a3565b945050606087013567ffffffffffffffff811115614df157614df0614028565b5b614dfd89828a016141a3565b9350506080614e0e89828a01614d36565b92505060a087013567ffffffffffffffff811115614e2f57614e2e614028565b5b614e3b89828a016141a3565b9150509295509295509295565b7f4e487b7100000000000000000000000000000000000000000000000000000000600052602260045260246000fd5b60006002820490506001821680614e8f57607f821691505b60208210811415614ea357614ea2614e48565b5b50919050565b60008160601b9050919050565b6000614ec182614ea9565b9050919050565b6000614ed382614eb6565b9050919050565b614eeb614ee68261404d565b614ec8565b82525050565b6000819050919050565b614f0c614f07826141d1565b614ef1565b82525050565b6000614f1e8285614eda565b601482019150614f2e8284614efb565b602082019150819050939250505056fea2646970667358221220e7e7bf111ddae1913d9d3e8b7dc30ba71b14abd44deb080f44c061b6ac200f0e64736f6c63430008090033",
  "immutableReferences": {},
  "source": "//SPDX-License-Identifier: MIT\n\npragma solidity ^0.8.9;\n\nimport \"./SupplyChainStorageOwnable.sol\";\n\ncontract SupplyChainStorage is SupplyChainStorageOwnable {\n    constructor() {\n        authorizedCaller[msg.sender] = 1;\n        emit AuthorizedCaller(msg.sender);\n    }\n\n    event AuthorizedCaller(address caller);\n    event DeAuthorizedCaller(address caller);\n\n    event UserUpdate(address userAddress);\n    event UserRoleUpdate(address userAddress);\n\n    modifier onlyAuthCaller() {\n        require(authorizedCaller[msg.sender] == 1);\n        _;\n    }\n\n    struct User {\n        string name;\n        string email;\n        bool isActive;\n        string profileHash;\n    }\n\n    mapping(address => User) userDetails;\n    mapping(address => string) userRole;\n\n    mapping(address => uint8) authorizedCaller;\n\n    function authorizeCaller(address _caller) public onlyOwner returns (bool) {\n        authorizedCaller[_caller] = 1;\n        emit AuthorizedCaller(_caller);\n        return true;\n    }\n\n    function deAuthorizeCaller(address _caller)\n        public\n        onlyOwner\n        returns (bool)\n    {\n        authorizedCaller[_caller] = 0;\n        emit DeAuthorizedCaller(_caller);\n        return true;\n    }\n\n    struct FarmDetails {\n        string registrationNo;\n        string farmName;\n        string latitude;\n        string longitude;\n        string farmAddress;\n    }\n\n    struct Harvest {\n        string coffeeFamily;\n        string typeOfSeed;\n        string fertilizerUsed;\n        string harvestDate;\n    }\n\n    struct Process {\n        string procAddress;\n        string typeOfDrying;\n        string roastImageHash;\n        string roastTemp;\n        string typeOfRoast;\n        string roastDate;\n        string millDate;\n        uint256 processorPrice;\n    }\n\n    struct Grain {\n        uint256 tasteScore;\n        uint256 grainPrice;\n    }\n\n    struct Agglomerate {\n        string agglomAddress;\n        string agglomDate;\n        uint256 storagePrice;\n    }\n\n    struct ShipToPacker {\n        string transportTypeP;\n        string pickupDateP;\n        uint256 shipPriceP;\n    }\n\n    struct Pack {\n        string packAddress;\n        string arrivalDateP;\n        string packDate;\n        uint256 packPrice;\n    }\n\n    struct ShipToRetailer {\n        string transportTypeR;\n        string pickupDateR;\n        uint256 shipPriceR;\n    }\n\n    struct Retailer {\n        string arrivalDateW;\n        string arrivalDateSP;\n        string warehouseName;\n        string warehouseAddress;\n        string salePointAddress;\n        uint256 shipPriceSP;\n        uint256 productPrice;\n    }\n\n    mapping(address => FarmDetails) batchFarmDetails;\n    mapping(address => Harvest) batchHarvest;\n    mapping(address => Process) batchProcess;\n    mapping(address => Grain) batchGrain;\n    mapping(address => Agglomerate) batchAgglomerate;\n    mapping(address => ShipToPacker) batchShipToPacker;\n    mapping(address => Pack) batchPack;\n    mapping(address => ShipToRetailer) batchShipToRetailer;\n    mapping(address => Retailer) batchRetailer;\n    mapping(address => string) nextAction;\n\n    User userData;\n    FarmDetails farmDetailsData;\n    Harvest harvestData;\n    Process processData;\n    Grain grainData;\n    Agglomerate agglomData;\n    ShipToPacker shipPackerData;\n    Pack packData;\n    ShipToRetailer shipRetailerData;\n    Retailer retailerData;\n\n    function getUserRole(address _userAddress)\n        public\n        view\n        onlyAuthCaller\n        returns (string memory)\n    {\n        return userRole[_userAddress];\n    }\n\n    function getNextAction(address _batchNo)\n        public\n        view\n        onlyAuthCaller\n        returns (string memory)\n    {\n        return nextAction[_batchNo];\n    }\n\n    function setUser(\n        address _userAddress,\n        string memory _name,\n        string memory _email,\n        string memory _role,\n        bool _isActive,\n        string memory _profileHash\n    ) public onlyAuthCaller returns (bool) {\n        userData.name = _name;\n        userData.email = _email;\n        userData.isActive = _isActive;\n        userData.profileHash = _profileHash;\n\n        userDetails[_userAddress] = userData;\n        userRole[_userAddress] = _role;\n\n        emit UserUpdate(_userAddress);\n        emit UserRoleUpdate(_userAddress);\n        return true;\n    }\n\n    function getUser(address _userAddress)\n        public\n        view\n        onlyAuthCaller\n        returns (\n            string memory name,\n            string memory email,\n            string memory role,\n            bool isActive,\n            string memory profileHash\n        )\n    {\n        User memory tmpData = userDetails[_userAddress];\n        return (\n            tmpData.name,\n            tmpData.email,\n            userRole[_userAddress],\n            tmpData.isActive,\n            tmpData.profileHash\n        );\n    }\n\n    function setFarmDetails(\n        string memory _registrationNo,\n        string memory _farmName,\n        string memory _latitude,\n        string memory _longitude,\n        string memory _farmAddress\n    ) public onlyAuthCaller returns (address) {\n        uint256 tmpData = uint256(\n            keccak256(abi.encodePacked(msg.sender, block.timestamp))\n        );\n        address batchNo = address(uint160(tmpData));\n\n        farmDetailsData.registrationNo = _registrationNo;\n        farmDetailsData.farmName = _farmName;\n        farmDetailsData.latitude = _latitude;\n        farmDetailsData.longitude = _longitude;\n        farmDetailsData.farmAddress = _farmAddress;\n\n        batchFarmDetails[batchNo] = farmDetailsData;\n        nextAction[batchNo] = \"FARMER\";\n        return batchNo;\n    }\n\n    function getFarmDetails(address _batchNo)\n        public\n        view\n        onlyAuthCaller\n        returns (\n            string memory registrationNo,\n            string memory farmName,\n            string memory latitude,\n            string memory longitude,\n            string memory farmAddress\n        )\n    {\n        FarmDetails memory tmpData = batchFarmDetails[_batchNo];\n\n        return (\n            tmpData.registrationNo,\n            tmpData.farmName,\n            tmpData.latitude,\n            tmpData.longitude,\n            tmpData.farmAddress\n        );\n    }\n\n    function setHarvestData(\n        address batchNo,\n        string memory _coffeeFamily,\n        string memory _typeOfSeed,\n        string memory _fertilizerUsed,\n        string memory _harvestDate\n    ) public onlyAuthCaller returns (bool) {\n        harvestData.coffeeFamily = _coffeeFamily;\n        harvestData.typeOfSeed = _typeOfSeed;\n        harvestData.fertilizerUsed = _fertilizerUsed;\n        harvestData.harvestDate = _harvestDate;\n\n        batchHarvest[batchNo] = harvestData;\n        nextAction[batchNo] = \"PROCESSOR\";\n        return true;\n    }\n\n    function getHarvestData(address batchNo)\n        public\n        view\n        onlyAuthCaller\n        returns (\n            string memory coffeeFamily,\n            string memory typeOfSeed,\n            string memory fertilizerUsed,\n            string memory harvestDate\n        )\n    {\n        Harvest memory tmpData = batchHarvest[batchNo];\n        return (\n            tmpData.coffeeFamily,\n            tmpData.typeOfSeed,\n            tmpData.fertilizerUsed,\n            tmpData.harvestDate\n        );\n    }\n\n    function setProcessData(\n        address batchNo,\n        string memory _procAddress,\n        string memory _typeOfDrying,\n        string memory _roastImageHash,\n        string memory _roastTemp,\n        string memory _typeOfRoast,\n        string memory _roastDate,\n        string memory _millDate,\n        uint256 _processorPrice\n    ) public onlyAuthCaller returns (bool) {\n        processData.procAddress = _procAddress;\n        processData.typeOfDrying = _typeOfDrying;\n        processData.roastImageHash = _roastImageHash;\n        processData.roastTemp = _roastTemp;\n        processData.typeOfRoast = _typeOfRoast;\n        processData.roastDate = _roastDate;\n        processData.millDate = _millDate;\n        processData.processorPrice = _processorPrice;\n\n        batchProcess[batchNo] = processData;\n        nextAction[batchNo] = \"GRAIN_INSPECTOR\";\n        return true;\n    }\n\n    function getProcessData(address batchNo)\n        public\n        view\n        onlyAuthCaller\n        returns (\n            string memory procAddress,\n            string memory typeOfDrying,\n            string memory roastImageHash,\n            string memory roastTemp,\n            string memory typeOfRoast,\n            string memory roastDate,\n            string memory millDate,\n            uint256 processorPrice\n        )\n    {\n        Process memory tmpData = batchProcess[batchNo];\n        return (\n            tmpData.procAddress,\n            tmpData.typeOfDrying,\n            tmpData.roastImageHash,\n            tmpData.roastTemp,\n            tmpData.typeOfRoast,\n            tmpData.roastDate,\n            tmpData.millDate,\n            tmpData.processorPrice\n        );\n    }\n\n    function setGrainData(\n        address batchNo,\n        uint256 _tasteScore,\n        uint256 _grainPrice\n    ) public onlyAuthCaller returns (bool) {\n        grainData.tasteScore = _tasteScore;\n        grainData.grainPrice = _grainPrice;\n\n        batchGrain[batchNo] = grainData;\n        nextAction[batchNo] = \"AGGLOMERATOR\";\n        return true;\n    }\n\n    function getGrainData(address batchNo)\n        public\n        view\n        onlyAuthCaller\n        returns (uint256 tasteScore, uint256 grainPrice)\n    {\n        Grain memory tmpData = batchGrain[batchNo];\n        return (tmpData.tasteScore, tmpData.grainPrice);\n    }\n\n    function setAgglomData(\n        address batchNo,\n        string memory _agglomAddress,\n        string memory _agglomDate,\n        uint256 _storagePrice\n    ) public onlyAuthCaller returns (bool) {\n        agglomData.agglomAddress = _agglomAddress;\n        agglomData.agglomDate = _agglomDate;\n        agglomData.storagePrice = _storagePrice;\n\n        batchAgglomerate[batchNo] = agglomData;\n        nextAction[batchNo] = \"SHIPPER_PACKER\";\n        return true;\n    }\n\n    function getAgglomData(address batchNo)\n        public\n        view\n        onlyAuthCaller\n        returns (\n            string memory agglomAddress,\n            string memory agglomDate,\n            uint256 storagePrice\n        )\n    {\n        Agglomerate memory tmpData = batchAgglomerate[batchNo];\n        return (\n            tmpData.agglomAddress,\n            tmpData.agglomDate,\n            tmpData.storagePrice\n        );\n    }\n\n    function setShipPackerData(\n        address batchNo,\n        string memory _transportTypeP,\n        string memory _pickupDateP,\n        uint256 _shipPriceP\n    ) public onlyAuthCaller returns (bool) {\n        shipPackerData.transportTypeP = _transportTypeP;\n        shipPackerData.pickupDateP = _pickupDateP;\n        shipPackerData.shipPriceP = _shipPriceP;\n\n        batchShipToPacker[batchNo] = shipPackerData;\n        nextAction[batchNo] = \"PACKER\";\n        return true;\n    }\n\n    function getShipPackerData(address batchNo)\n        public\n        view\n        onlyAuthCaller\n        returns (\n            string memory transportTypeP,\n            string memory pickupDateP,\n            uint256 shipPriceP\n        )\n    {\n        ShipToPacker memory tmpData = batchShipToPacker[batchNo];\n        return (\n            tmpData.transportTypeP,\n            tmpData.pickupDateP,\n            tmpData.shipPriceP\n        );\n    }\n\n    function setPackData(\n        address batchNo,\n        string memory _packAddress,\n        string memory _arrivalDateP,\n        string memory _packDate,\n        uint256 _packPrice\n    ) public onlyAuthCaller returns (bool) {\n        packData.packAddress = _packAddress;\n        packData.arrivalDateP = _arrivalDateP;\n        packData.packDate = _packDate;\n        packData.packPrice = _packPrice;\n\n        batchPack[batchNo] = packData;\n        nextAction[batchNo] = \"SHIPPER_RETAILER\";\n        return true;\n    }\n\n    function getPackData(address batchNo)\n        public\n        view\n        onlyAuthCaller\n        returns (\n            string memory packAddress,\n            string memory arrivalDateP,\n            string memory packDate,\n            uint256 packPrice\n        )\n    {\n        Pack memory tmpData = batchPack[batchNo];\n        return (\n            tmpData.packAddress,\n            tmpData.arrivalDateP,\n            tmpData.packDate,\n            tmpData.packPrice\n        );\n    }\n\n    function setShipRetailerData(\n        address batchNo,\n        string memory _transportTypeR,\n        string memory _pickupDateR,\n        uint256 _shipPriceR\n    ) public onlyAuthCaller returns (bool) {\n        shipRetailerData.transportTypeR = _transportTypeR;\n        shipRetailerData.pickupDateR = _pickupDateR;\n        shipRetailerData.shipPriceR = _shipPriceR;\n\n        batchShipToRetailer[batchNo] = shipRetailerData;\n        nextAction[batchNo] = \"RETAILER\";\n        return true;\n    }\n\n    function getShipRetailerData(address batchNo)\n        public\n        view\n        onlyAuthCaller\n        returns (\n            string memory transportTypeR,\n            string memory pickupDateR,\n            uint256 shipPriceR\n        )\n    {\n        ShipToRetailer memory tmpData = batchShipToRetailer[batchNo];\n        return (\n            tmpData.transportTypeR,\n            tmpData.pickupDateR,\n            tmpData.shipPriceR\n        );\n    }\n\n    function setRetailerData(\n        address batchNo,\n        string memory _arrivalDateW,\n        string memory _arrivalDateSP,\n        string memory _warehouseName,\n        string memory _warehouseAddress,\n        string memory _salePointAddress,\n        uint256 _shipPriceSP,\n        uint256 _productPrice\n    ) public onlyAuthCaller returns (bool) {\n        retailerData.arrivalDateW = _arrivalDateW;\n        retailerData.arrivalDateSP = _arrivalDateSP;\n        retailerData.warehouseName = _warehouseName;\n        retailerData.warehouseAddress = _warehouseAddress;\n        retailerData.salePointAddress = _salePointAddress;\n        retailerData.shipPriceSP = _shipPriceSP;\n        retailerData.productPrice = _productPrice;\n\n        batchRetailer[batchNo] = retailerData;\n        nextAction[batchNo] = \"DONE\";\n        return true;\n    }\n\n    function getRetailerData(address batchNo)\n        public\n        view\n        onlyAuthCaller\n        returns (\n            string memory arrivalDateW,\n            string memory arrivalDateSP,\n            string memory warehouseName,\n            string memory warehouseAddress,\n            string memory salePointAddress,\n            uint256 shipPriceSP,\n            uint256 productPrice\n        )\n    {\n        Retailer memory tmpData = batchRetailer[batchNo];\n        return (\n            tmpData.arrivalDateW,\n            tmpData.arrivalDateSP,\n            tmpData.warehouseName,\n            tmpData.warehouseAddress,\n            tmpData.salePointAddress,\n            tmpData.shipPriceSP,\n            tmpData.productPrice\n        );\n    }\n}\n",
  "sourcePath": "/home/nathalia/TESIS/coffee-supply-chain-tracking-system-ethereum/contracts/SupplyChainStorage.sol",
  "compiler": {
    "name": "solc",
    "version": "0.8.9+commit.e5eed63a.Emscripten.clang"
  },
  "schemaVersion": "3.4.4",
  "updatedAt": "2022-05-31T07:13:06.084Z",
  "networkType": "ethereum",
  "devdoc": {
    "kind": "dev",
    "methods": {},
    "version": 1
  },
  "userdoc": {
    "kind": "user",
    "methods": {},
    "version": 1
  }
}