{
  "contractName": "SupplyChainStorage",
  "abi": [
    {
      "inputs": [],
      "stateMutability": "nonpayable",
      "type": "constructor"
    },
    {
      "anonymous": false,
      "inputs": [
        {
          "indexed": false,
          "internalType": "address",
          "name": "caller",
          "type": "address"
        }
      ],
      "name": "AuthorizedCaller",
      "type": "event"
    },
    {
      "anonymous": false,
      "inputs": [
        {
          "indexed": false,
          "internalType": "address",
          "name": "caller",
          "type": "address"
        }
      ],
      "name": "DeAuthorizedCaller",
      "type": "event"
    },
    {
      "anonymous": false,
      "inputs": [
        {
          "indexed": true,
          "internalType": "address",
          "name": "previousOwner",
          "type": "address"
        }
      ],
      "name": "OwnershipRenounced",
      "type": "event"
    },
    {
      "anonymous": false,
      "inputs": [
        {
          "indexed": true,
          "internalType": "address",
          "name": "previusOwner",
          "type": "address"
        },
        {
          "indexed": true,
          "internalType": "address",
          "name": "newOwner",
          "type": "address"
        }
      ],
      "name": "OwnershipTransferred",
      "type": "event"
    },
    {
      "anonymous": false,
      "inputs": [
        {
          "indexed": false,
          "internalType": "address",
          "name": "userAddress",
          "type": "address"
        }
      ],
      "name": "UserRoleUpdate",
      "type": "event"
    },
    {
      "anonymous": false,
      "inputs": [
        {
          "indexed": false,
          "internalType": "address",
          "name": "userAddress",
          "type": "address"
        }
      ],
      "name": "UserUpdate",
      "type": "event"
    },
    {
      "inputs": [],
      "name": "owner",
      "outputs": [
        {
          "internalType": "address",
          "name": "",
          "type": "address"
        }
      ],
      "stateMutability": "view",
      "type": "function",
      "constant": true
    },
    {
      "inputs": [],
      "name": "renounceOwnership",
      "outputs": [],
      "stateMutability": "nonpayable",
      "type": "function"
    },
    {
      "inputs": [
        {
          "internalType": "address",
          "name": "newOwner",
          "type": "address"
        }
      ],
      "name": "transferOwnership",
      "outputs": [],
      "stateMutability": "nonpayable",
      "type": "function"
    },
    {
      "inputs": [
        {
          "internalType": "address",
          "name": "_caller",
          "type": "address"
        }
      ],
      "name": "authorizeCaller",
      "outputs": [
        {
          "internalType": "bool",
          "name": "",
          "type": "bool"
        }
      ],
      "stateMutability": "nonpayable",
      "type": "function"
    },
    {
      "inputs": [
        {
          "internalType": "address",
          "name": "_caller",
          "type": "address"
        }
      ],
      "name": "deAuthorizeCaller",
      "outputs": [
        {
          "internalType": "bool",
          "name": "",
          "type": "bool"
        }
      ],
      "stateMutability": "nonpayable",
      "type": "function"
    },
    {
      "inputs": [
        {
          "internalType": "address",
          "name": "_userAddress",
          "type": "address"
        }
      ],
      "name": "getUserRoles",
      "outputs": [
        {
          "internalType": "string[]",
          "name": "",
          "type": "string[]"
        }
      ],
      "stateMutability": "view",
      "type": "function",
      "constant": true
    },
    {
      "inputs": [
        {
          "internalType": "address",
          "name": "_batchNo",
          "type": "address"
        }
      ],
      "name": "getNextAction",
      "outputs": [
        {
          "internalType": "string",
          "name": "",
          "type": "string"
        }
      ],
      "stateMutability": "view",
      "type": "function",
      "constant": true
    },
    {
      "inputs": [
        {
          "internalType": "address",
          "name": "_batchNo",
          "type": "address"
        },
        {
          "internalType": "string",
          "name": "action",
          "type": "string"
        }
      ],
      "name": "writeNextAction",
      "outputs": [
        {
          "internalType": "bool",
          "name": "",
          "type": "bool"
        }
      ],
      "stateMutability": "nonpayable",
      "type": "function"
    },
    {
      "inputs": [
        {
          "internalType": "address",
          "name": "_userAddress",
          "type": "address"
        },
        {
          "internalType": "string",
          "name": "_name",
          "type": "string"
        },
        {
          "internalType": "string",
          "name": "_email",
          "type": "string"
        },
        {
          "internalType": "string[]",
          "name": "_role",
          "type": "string[]"
        },
        {
          "internalType": "bool",
          "name": "_isActive",
          "type": "bool"
        },
        {
          "internalType": "string",
          "name": "_profileHash",
          "type": "string"
        }
      ],
      "name": "setUser",
      "outputs": [
        {
          "internalType": "bool",
          "name": "",
          "type": "bool"
        }
      ],
      "stateMutability": "nonpayable",
      "type": "function"
    },
    {
      "inputs": [
        {
          "internalType": "address",
          "name": "_userAddress",
          "type": "address"
        }
      ],
      "name": "getUser",
      "outputs": [
        {
          "internalType": "string",
          "name": "name",
          "type": "string"
        },
        {
          "internalType": "string",
          "name": "email",
          "type": "string"
        },
        {
          "internalType": "string[]",
          "name": "role",
          "type": "string[]"
        },
        {
          "internalType": "bool",
          "name": "isActive",
          "type": "bool"
        },
        {
          "internalType": "string",
          "name": "profileHash",
          "type": "string"
        }
      ],
      "stateMutability": "view",
      "type": "function",
      "constant": true
    },
    {
      "inputs": [
        {
          "internalType": "string",
          "name": "_registrationNo",
          "type": "string"
        },
        {
          "internalType": "string",
          "name": "_farmName",
          "type": "string"
        },
        {
          "internalType": "string",
          "name": "_latitude",
          "type": "string"
        },
        {
          "internalType": "string",
          "name": "_longitude",
          "type": "string"
        },
        {
          "internalType": "string",
          "name": "_farmAddress",
          "type": "string"
        }
      ],
      "name": "setFarmDetails",
      "outputs": [
        {
          "internalType": "address",
          "name": "",
          "type": "address"
        }
      ],
      "stateMutability": "nonpayable",
      "type": "function"
    },
    {
      "inputs": [
        {
          "internalType": "address",
          "name": "_batchNo",
          "type": "address"
        }
      ],
      "name": "getFarmDetails",
      "outputs": [
        {
          "internalType": "string",
          "name": "registrationNo",
          "type": "string"
        },
        {
          "internalType": "string",
          "name": "farmName",
          "type": "string"
        },
        {
          "internalType": "string",
          "name": "latitude",
          "type": "string"
        },
        {
          "internalType": "string",
          "name": "longitude",
          "type": "string"
        },
        {
          "internalType": "string",
          "name": "farmAddress",
          "type": "string"
        }
      ],
      "stateMutability": "view",
      "type": "function",
      "constant": true
    },
    {
      "inputs": [
        {
          "internalType": "address",
          "name": "batchNo",
          "type": "address"
        },
        {
          "internalType": "string",
          "name": "_seedSupplier",
          "type": "string"
        },
        {
          "internalType": "string",
          "name": "_typeOfSeed",
          "type": "string"
        },
        {
          "internalType": "string",
          "name": "_coffeeFamily",
          "type": "string"
        },
        {
          "internalType": "string",
          "name": "_fertilizerUsed",
          "type": "string"
        },
        {
          "internalType": "string",
          "name": "_harvestDate",
          "type": "string"
        },
        {
          "internalType": "string",
          "name": "_humidityPercentage",
          "type": "string"
        },
        {
          "internalType": "string",
          "name": "_batchWeight",
          "type": "string"
        }
      ],
      "name": "setHarvestData",
      "outputs": [
        {
          "internalType": "bool",
          "name": "",
          "type": "bool"
        }
      ],
      "stateMutability": "nonpayable",
      "type": "function"
    },
    {
      "inputs": [
        {
          "internalType": "address",
          "name": "batchNo",
          "type": "address"
        }
      ],
      "name": "getHarvestData",
      "outputs": [
        {
          "internalType": "string",
          "name": "seedSupplier",
          "type": "string"
        },
        {
          "internalType": "string",
          "name": "typeOfSeed",
          "type": "string"
        },
        {
          "internalType": "string",
          "name": "coffeeFamily",
          "type": "string"
        },
        {
          "internalType": "string",
          "name": "fertilizerUsed",
          "type": "string"
        },
        {
          "internalType": "string",
          "name": "harvestDate",
          "type": "string"
        },
        {
          "internalType": "string",
          "name": "humidityPercentage",
          "type": "string"
        },
        {
          "internalType": "string",
          "name": "batchWeight",
          "type": "string"
        }
      ],
      "stateMutability": "view",
      "type": "function",
      "constant": true
    },
    {
      "inputs": [
        {
          "internalType": "address",
          "name": "batchNo",
          "type": "address"
        },
        {
          "internalType": "string[]",
          "name": "_addressLatLngProcessor",
          "type": "string[]"
        },
        {
          "internalType": "string",
          "name": "_typeOfDrying",
          "type": "string"
        },
        {
          "internalType": "string",
          "name": "_humidityAfterDrying",
          "type": "string"
        },
        {
          "internalType": "string",
          "name": "_roastImageHash",
          "type": "string"
        },
        {
          "internalType": "string[]",
          "name": "_tempTypeRoast",
          "type": "string[]"
        },
        {
          "internalType": "string[]",
          "name": "_roastMillDates",
          "type": "string[]"
        },
        {
          "internalType": "string",
          "name": "_processorPricePerKilo",
          "type": "string"
        },
        {
          "internalType": "string",
          "name": "_processBatchWeight",
          "type": "string"
        }
      ],
      "name": "setProcessData",
      "outputs": [
        {
          "internalType": "bool",
          "name": "",
          "type": "bool"
        }
      ],
      "stateMutability": "nonpayable",
      "type": "function"
    },
    {
      "inputs": [
        {
          "internalType": "address",
          "name": "batchNo",
          "type": "address"
        }
      ],
      "name": "getProcessData",
      "outputs": [
        {
          "internalType": "string[]",
          "name": "addressLatLngProcessor",
          "type": "string[]"
        },
        {
          "internalType": "string",
          "name": "typeOfDrying",
          "type": "string"
        },
        {
          "internalType": "string",
          "name": "humidityAfterDrying",
          "type": "string"
        },
        {
          "internalType": "string",
          "name": "roastImageHash",
          "type": "string"
        },
        {
          "internalType": "string[]",
          "name": "tempTypeRoast",
          "type": "string[]"
        },
        {
          "internalType": "string[]",
          "name": "roastMillDates",
          "type": "string[]"
        },
        {
          "internalType": "string",
          "name": "processorPricePerKilo",
          "type": "string"
        },
        {
          "internalType": "string",
          "name": "processBatchWeight",
          "type": "string"
        }
      ],
      "stateMutability": "view",
      "type": "function",
      "constant": true
    },
    {
      "inputs": [
        {
          "internalType": "address",
          "name": "batchNo",
          "type": "address"
        },
        {
          "internalType": "string",
          "name": "_tastingScore",
          "type": "string"
        },
        {
          "internalType": "string",
          "name": "_tastingServicePrice",
          "type": "string"
        }
      ],
      "name": "setTasteData",
      "outputs": [
        {
          "internalType": "bool",
          "name": "",
          "type": "bool"
        }
      ],
      "stateMutability": "nonpayable",
      "type": "function"
    },
    {
      "inputs": [
        {
          "internalType": "address",
          "name": "batchNo",
          "type": "address"
        }
      ],
      "name": "getTasteData",
      "outputs": [
        {
          "internalType": "string",
          "name": "tastingScore",
          "type": "string"
        },
        {
          "internalType": "string",
          "name": "tastingServicePrice",
          "type": "string"
        }
      ],
      "stateMutability": "view",
      "type": "function",
      "constant": true
    },
    {
      "inputs": [
        {
          "internalType": "address",
          "name": "batchNo",
          "type": "address"
        },
        {
          "internalType": "string",
          "name": "_coffeeSellingBatchWeight",
          "type": "string"
        },
        {
          "internalType": "string",
          "name": "_beanPricePerKilo",
          "type": "string"
        }
      ],
      "name": "setCoffeeSellData",
      "outputs": [
        {
          "internalType": "bool",
          "name": "",
          "type": "bool"
        }
      ],
      "stateMutability": "nonpayable",
      "type": "function"
    },
    {
      "inputs": [
        {
          "internalType": "address",
          "name": "batchNo",
          "type": "address"
        }
      ],
      "name": "getCoffeeSellData",
      "outputs": [
        {
          "internalType": "string",
          "name": "coffeeSellingBatchWeight",
          "type": "string"
        },
        {
          "internalType": "string",
          "name": "beanPricePerKilo",
          "type": "string"
        }
      ],
      "stateMutability": "view",
      "type": "function",
      "constant": true
    }
  ],
  "bytecode": "0x60806040523480156200001157600080fd5b50336000806101000a81548173ffffffffffffffffffffffffffffffffffffffff021916908373ffffffffffffffffffffffffffffffffffffffff1602179055506001600360003373ffffffffffffffffffffffffffffffffffffffff1673ffffffffffffffffffffffffffffffffffffffff16815260200190815260200160002060006101000a81548160ff021916908360ff1602179055507f8afeca650897be3183b7c0d24eba96a1b990f75c4bd74a0cfb2c0a71aec48e6133604051620000dc91906200012f565b60405180910390a16200014c565b600073ffffffffffffffffffffffffffffffffffffffff82169050919050565b60006200011782620000ea565b9050919050565b62000129816200010a565b82525050565b60006020820190506200014660008301846200011e565b92915050565b6142d0806200015c6000396000f3fe608060405234801561001057600080fd5b506004361061012c5760003560e01c80636f77926b116100ad578063a930d17d11610071578063a930d17d146103db578063b12157e91461040c578063f2fde38b1461043c578063f9f1bedc14610458578063fb779ea5146104885761012c565b80636f77926b14610318578063702a57581461034c578063715018a6146103835780638383e2941461038d5780638da5cb5b146103bd5761012c565b806328da9691116100f457806328da9691146102215780632a7e2433146102515780632c388d5d1461028257806331016cb3146102b25780634d6b5e00146102e85761012c565b806306a36aee1461013157806314f9964a146101615780631752389e146101915780631bcd250a146101c15780631dc66163146101f1575b600080fd5b61014b600480360381019061014691906130e1565b6104bc565b6040516101589190613269565b60405180910390f35b61017b600480360381019061017691906134de565b610630565b60405161018891906135ea565b60405180910390f35b6101ab60048036038101906101a69190613605565b610864565b6040516101b891906135ea565b60405180910390f35b6101db60048036038101906101d691906130e1565b6109e3565b6040516101e891906135ea565b60405180910390f35b61020b60048036038101906102069190613690565b610ad7565b60405161021891906137a6565b60405180910390f35b61023b600480360381019061023691906137c1565b610d06565b60405161024891906135ea565b60405180910390f35b61026b600480360381019061026691906130e1565b610f96565b6040516102799291906139b5565b60405180910390f35b61029c600480360381019061029791906130e1565b61117b565b6040516102a991906135ea565b60405180910390f35b6102cc60048036038101906102c791906130e1565b61126f565b6040516102df97969594939291906139ec565b60405180910390f35b61030260048036038101906102fd91906130e1565b61175f565b60405161030f9190613a8c565b60405180910390f35b610332600480360381019061032d91906130e1565b61188c565b604051610343959493929190613aae565b60405180910390f35b610366600480360381019061036191906130e1565b611c4a565b60405161037a989796959493929190613b1d565b60405180910390f35b61038b6122aa565b005b6103a760048036038101906103a29190613bd3565b6123a8565b6040516103b491906135ea565b60405180910390f35b6103c561245d565b6040516103d291906137a6565b60405180910390f35b6103f560048036038101906103f091906130e1565b612481565b6040516104039291906139b5565b60405180910390f35b61042660048036038101906104219190613605565b612666565b60405161043391906135ea565b60405180910390f35b610456600480360381019061045191906130e1565b6127e5565b005b610472600480360381019061046d9190613c2f565b612933565b60405161047f91906135ea565b60405180910390f35b6104a2600480360381019061049d91906130e1565b612b7f565b6040516104b3959493929190613da9565b60405180910390f35b60606001600360003373ffffffffffffffffffffffffffffffffffffffff1673ffffffffffffffffffffffffffffffffffffffff16815260200190815260200160002060009054906101000a900460ff1660ff161461051a57600080fd5b600260008373ffffffffffffffffffffffffffffffffffffffff1673ffffffffffffffffffffffffffffffffffffffff168152602001908152602001600020805480602002602001604051908101604052809291908181526020016000905b8282101561062557838290600052602060002001805461059890613e4e565b80601f01602080910402602001604051908101604052809291908181526020018280546105c490613e4e565b80156106115780601f106105e657610100808354040283529160200191610611565b820191906000526020600020905b8154815290600101906020018083116105f457829003601f168201915b505050505081526020019060010190610579565b505050509050919050565b60006001600360003373ffffffffffffffffffffffffffffffffffffffff1673ffffffffffffffffffffffffffffffffffffffff16815260200190815260200160002060009054906101000a900460ff1660ff161461068e57600080fd5b85600a60000190816106a09190614035565b5084600a60010190816106b39190614035565b5082600a60020160006101000a81548160ff02191690831515021790555081600a60030190816106e39190614035565b50600a600160008973ffffffffffffffffffffffffffffffffffffffff1673ffffffffffffffffffffffffffffffffffffffff16815260200190815260200160002060008201816000019081610739919061411d565b506001820181600101908161074e919061411d565b506002820160009054906101000a900460ff168160020160006101000a81548160ff02191690831515021790555060038201816003019081610790919061411d565b5090505083600260008973ffffffffffffffffffffffffffffffffffffffff1673ffffffffffffffffffffffffffffffffffffffff16815260200190815260200160002090805190602001906107e7929190612f38565b507f1d222b775a8ac40f88e57f60a9f9cef32825dee88b7d0a2e757e7dd2082cbe778760405161081791906137a6565b60405180910390a17f5108391b825bd4c3d7f3c6a8d5cb1dfb3d7db4e2663bdef2d6a43643d6c385138760405161084e91906137a6565b60405180910390a1600190509695505050505050565b60006001600360003373ffffffffffffffffffffffffffffffffffffffff1673ffffffffffffffffffffffffffffffffffffffff16815260200190815260200160002060009054906101000a900460ff1660ff16146108c257600080fd5b82602260000190816108d49190614035565b5081602260010190816108e79190614035565b506022600760008673ffffffffffffffffffffffffffffffffffffffff1673ffffffffffffffffffffffffffffffffffffffff1681526020019081526020016000206000820181600001908161093d919061411d565b5060018201816001019081610952919061411d565b509050506040518060400160405280600681526020017f53454c4c45520000000000000000000000000000000000000000000000000000815250600960008673ffffffffffffffffffffffffffffffffffffffff1673ffffffffffffffffffffffffffffffffffffffff16815260200190815260200160002090816109d79190614035565b50600190509392505050565b60008060009054906101000a900473ffffffffffffffffffffffffffffffffffffffff1673ffffffffffffffffffffffffffffffffffffffff163373ffffffffffffffffffffffffffffffffffffffff1614610a3e57600080fd5b6000600360008473ffffffffffffffffffffffffffffffffffffffff1673ffffffffffffffffffffffffffffffffffffffff16815260200190815260200160002060006101000a81548160ff021916908360ff1602179055507f9e8ca6ff03906e81e8a6a03d4f96b7edb0b97f0ed9d07ef1b699fff63438549682604051610ac691906137a6565b60405180910390a160019050919050565b60006001600360003373ffffffffffffffffffffffffffffffffffffffff1673ffffffffffffffffffffffffffffffffffffffff16815260200190815260200160002060009054906101000a900460ff1660ff1614610b3557600080fd5b60003342604051602001610b4a92919061426e565b6040516020818303038152906040528051906020012060001c9050600081905087600e6000019081610b7c9190614035565b5086600e6001019081610b8f9190614035565b5085600e6002019081610ba29190614035565b5084600e6003019081610bb59190614035565b5083600e6004019081610bc89190614035565b50600e600460008373ffffffffffffffffffffffffffffffffffffffff1673ffffffffffffffffffffffffffffffffffffffff16815260200190815260200160002060008201816000019081610c1e919061411d565b5060018201816001019081610c33919061411d565b5060028201816002019081610c48919061411d565b5060038201816003019081610c5d919061411d565b5060048201816004019081610c72919061411d565b509050506040518060400160405280600681526020017f4641524d45520000000000000000000000000000000000000000000000000000815250600960008373ffffffffffffffffffffffffffffffffffffffff1673ffffffffffffffffffffffffffffffffffffffff1681526020019081526020016000209081610cf79190614035565b50809250505095945050505050565b60006001600360003373ffffffffffffffffffffffffffffffffffffffff1673ffffffffffffffffffffffffffffffffffffffff16815260200190815260200160002060009054906101000a900460ff1660ff1614610d6457600080fd5b88601a6000019080519060200190610d7d929190612f38565b5087601a6001019081610d909190614035565b5086601a6002019081610da39190614035565b5085601a6003019081610db69190614035565b5084601a6004019080519060200190610dd0929190612f38565b5083601a6005019080519060200190610dea929190612f38565b5082601a6006019081610dfd9190614035565b5081601a6007019081610e109190614035565b50601a600660008c73ffffffffffffffffffffffffffffffffffffffff1673ffffffffffffffffffffffffffffffffffffffff1681526020019081526020016000206000820181600001908054610e68929190612f91565b5060018201816001019081610e7d919061411d565b5060028201816002019081610e92919061411d565b5060038201816003019081610ea7919061411d565b506004820181600401908054610ebe929190612f91565b506005820181600501908054610ed5929190612f91565b5060068201816006019081610eea919061411d565b5060078201816007019081610eff919061411d565b509050506040518060400160405280600681526020017f5441535445520000000000000000000000000000000000000000000000000000815250600960008c73ffffffffffffffffffffffffffffffffffffffff1673ffffffffffffffffffffffffffffffffffffffff1681526020019081526020016000209081610f849190614035565b50600190509998505050505050505050565b6060806001600360003373ffffffffffffffffffffffffffffffffffffffff1673ffffffffffffffffffffffffffffffffffffffff16815260200190815260200160002060009054906101000a900460ff1660ff1614610ff557600080fd5b6000600860008573ffffffffffffffffffffffffffffffffffffffff1673ffffffffffffffffffffffffffffffffffffffff16815260200190815260200160002060405180604001604052908160008201805461105190613e4e565b80601f016020809104026020016040519081016040528092919081815260200182805461107d90613e4e565b80156110ca5780601f1061109f576101008083540402835291602001916110ca565b820191906000526020600020905b8154815290600101906020018083116110ad57829003601f168201915b505050505081526020016001820180546110e390613e4e565b80601f016020809104026020016040519081016040528092919081815260200182805461110f90613e4e565b801561115c5780601f106111315761010080835404028352916020019161115c565b820191906000526020600020905b81548152906001019060200180831161113f57829003601f168201915b5050505050815250509050806000015181602001519250925050915091565b60008060009054906101000a900473ffffffffffffffffffffffffffffffffffffffff1673ffffffffffffffffffffffffffffffffffffffff163373ffffffffffffffffffffffffffffffffffffffff16146111d657600080fd5b6001600360008473ffffffffffffffffffffffffffffffffffffffff1673ffffffffffffffffffffffffffffffffffffffff16815260200190815260200160002060006101000a81548160ff021916908360ff1602179055507f8afeca650897be3183b7c0d24eba96a1b990f75c4bd74a0cfb2c0a71aec48e618260405161125e91906137a6565b60405180910390a160019050919050565b60608060608060608060606001600360003373ffffffffffffffffffffffffffffffffffffffff1673ffffffffffffffffffffffffffffffffffffffff16815260200190815260200160002060009054906101000a900460ff1660ff16146112d657600080fd5b6000600560008a73ffffffffffffffffffffffffffffffffffffffff1673ffffffffffffffffffffffffffffffffffffffff1681526020019081526020016000206040518060e001604052908160008201805461133290613e4e565b80601f016020809104026020016040519081016040528092919081815260200182805461135e90613e4e565b80156113ab5780601f10611380576101008083540402835291602001916113ab565b820191906000526020600020905b81548152906001019060200180831161138e57829003601f168201915b505050505081526020016001820180546113c490613e4e565b80601f01602080910402602001604051908101604052809291908181526020018280546113f090613e4e565b801561143d5780601f106114125761010080835404028352916020019161143d565b820191906000526020600020905b81548152906001019060200180831161142057829003601f168201915b5050505050815260200160028201805461145690613e4e565b80601f016020809104026020016040519081016040528092919081815260200182805461148290613e4e565b80156114cf5780601f106114a4576101008083540402835291602001916114cf565b820191906000526020600020905b8154815290600101906020018083116114b257829003601f168201915b505050505081526020016003820180546114e890613e4e565b80601f016020809104026020016040519081016040528092919081815260200182805461151490613e4e565b80156115615780601f1061153657610100808354040283529160200191611561565b820191906000526020600020905b81548152906001019060200180831161154457829003601f168201915b5050505050815260200160048201805461157a90613e4e565b80601f01602080910402602001604051908101604052809291908181526020018280546115a690613e4e565b80156115f35780601f106115c8576101008083540402835291602001916115f3565b820191906000526020600020905b8154815290600101906020018083116115d657829003601f168201915b5050505050815260200160058201805461160c90613e4e565b80601f016020809104026020016040519081016040528092919081815260200182805461163890613e4e565b80156116855780601f1061165a57610100808354040283529160200191611685565b820191906000526020600020905b81548152906001019060200180831161166857829003601f168201915b5050505050815260200160068201805461169e90613e4e565b80601f01602080910402602001604051908101604052809291908181526020018280546116ca90613e4e565b80156117175780601f106116ec57610100808354040283529160200191611717565b820191906000526020600020905b8154815290600101906020018083116116fa57829003601f168201915b5050505050815250509050806000015181602001518260400151836060015184608001518560a001518660c00151975097509750975097509750975050919395979092949650565b60606001600360003373ffffffffffffffffffffffffffffffffffffffff1673ffffffffffffffffffffffffffffffffffffffff16815260200190815260200160002060009054906101000a900460ff1660ff16146117bd57600080fd5b600960008373ffffffffffffffffffffffffffffffffffffffff1673ffffffffffffffffffffffffffffffffffffffff168152602001908152602001600020805461180790613e4e565b80601f016020809104026020016040519081016040528092919081815260200182805461183390613e4e565b80156118805780601f1061185557610100808354040283529160200191611880565b820191906000526020600020905b81548152906001019060200180831161186357829003601f168201915b50505050509050919050565b6060806060600060606001600360003373ffffffffffffffffffffffffffffffffffffffff1673ffffffffffffffffffffffffffffffffffffffff16815260200190815260200160002060009054906101000a900460ff1660ff16146118f157600080fd5b6000600160008873ffffffffffffffffffffffffffffffffffffffff1673ffffffffffffffffffffffffffffffffffffffff16815260200190815260200160002060405180608001604052908160008201805461194d90613e4e565b80601f016020809104026020016040519081016040528092919081815260200182805461197990613e4e565b80156119c65780601f1061199b576101008083540402835291602001916119c6565b820191906000526020600020905b8154815290600101906020018083116119a957829003601f168201915b505050505081526020016001820180546119df90613e4e565b80601f0160208091040260200160405190810160405280929190818152602001828054611a0b90613e4e565b8015611a585780601f10611a2d57610100808354040283529160200191611a58565b820191906000526020600020905b815481529060010190602001808311611a3b57829003601f168201915b505050505081526020016002820160009054906101000a900460ff16151515158152602001600382018054611a8c90613e4e565b80601f0160208091040260200160405190810160405280929190818152602001828054611ab890613e4e565b8015611b055780601f10611ada57610100808354040283529160200191611b05565b820191906000526020600020905b815481529060010190602001808311611ae857829003601f168201915b505050505081525050905080600001518160200151600260008a73ffffffffffffffffffffffffffffffffffffffff1673ffffffffffffffffffffffffffffffffffffffff1681526020019081526020016000208360400151846060015182805480602002602001604051908101604052809291908181526020016000905b82821015611c30578382906000526020600020018054611ba390613e4e565b80601f0160208091040260200160405190810160405280929190818152602001828054611bcf90613e4e565b8015611c1c5780601f10611bf157610100808354040283529160200191611c1c565b820191906000526020600020905b815481529060010190602001808311611bff57829003601f168201915b505050505081526020019060010190611b84565b505050509250955095509550955095505091939590929450565b6060806060806060806060806001600360003373ffffffffffffffffffffffffffffffffffffffff1673ffffffffffffffffffffffffffffffffffffffff16815260200190815260200160002060009054906101000a900460ff1660ff1614611cb257600080fd5b6000600660008b73ffffffffffffffffffffffffffffffffffffffff1673ffffffffffffffffffffffffffffffffffffffff1681526020019081526020016000206040518061010001604052908160008201805480602002602001604051908101604052809291908181526020016000905b82821015611dd0578382906000526020600020018054611d4390613e4e565b80601f0160208091040260200160405190810160405280929190818152602001828054611d6f90613e4e565b8015611dbc5780601f10611d9157610100808354040283529160200191611dbc565b820191906000526020600020905b815481529060010190602001808311611d9f57829003601f168201915b505050505081526020019060010190611d24565b505050508152602001600182018054611de890613e4e565b80601f0160208091040260200160405190810160405280929190818152602001828054611e1490613e4e565b8015611e615780601f10611e3657610100808354040283529160200191611e61565b820191906000526020600020905b815481529060010190602001808311611e4457829003601f168201915b50505050508152602001600282018054611e7a90613e4e565b80601f0160208091040260200160405190810160405280929190818152602001828054611ea690613e4e565b8015611ef35780601f10611ec857610100808354040283529160200191611ef3565b820191906000526020600020905b815481529060010190602001808311611ed657829003601f168201915b50505050508152602001600382018054611f0c90613e4e565b80601f0160208091040260200160405190810160405280929190818152602001828054611f3890613e4e565b8015611f855780601f10611f5a57610100808354040283529160200191611f85565b820191906000526020600020905b815481529060010190602001808311611f6857829003601f168201915b5050505050815260200160048201805480602002602001604051908101604052809291908181526020016000905b8282101561205f578382906000526020600020018054611fd290613e4e565b80601f0160208091040260200160405190810160405280929190818152602001828054611ffe90613e4e565b801561204b5780601f106120205761010080835404028352916020019161204b565b820191906000526020600020905b81548152906001019060200180831161202e57829003601f168201915b505050505081526020019060010190611fb3565b50505050815260200160058201805480602002602001604051908101604052809291908181526020016000905b828210156121385783829060005260206000200180546120ab90613e4e565b80601f01602080910402602001604051908101604052809291908181526020018280546120d790613e4e565b80156121245780601f106120f957610100808354040283529160200191612124565b820191906000526020600020905b81548152906001019060200180831161210757829003601f168201915b50505050508152602001906001019061208c565b50505050815260200160068201805461215090613e4e565b80601f016020809104026020016040519081016040528092919081815260200182805461217c90613e4e565b80156121c95780601f1061219e576101008083540402835291602001916121c9565b820191906000526020600020905b8154815290600101906020018083116121ac57829003601f168201915b505050505081526020016007820180546121e290613e4e565b80601f016020809104026020016040519081016040528092919081815260200182805461220e90613e4e565b801561225b5780601f106122305761010080835404028352916020019161225b565b820191906000526020600020905b81548152906001019060200180831161223e57829003601f168201915b5050505050815250509050806000015181602001518260400151836060015184608001518560a001518660c001518760e001519850985098509850985098509850985050919395975091939597565b60008054906101000a900473ffffffffffffffffffffffffffffffffffffffff1673ffffffffffffffffffffffffffffffffffffffff163373ffffffffffffffffffffffffffffffffffffffff161461230257600080fd5b60008054906101000a900473ffffffffffffffffffffffffffffffffffffffff1673ffffffffffffffffffffffffffffffffffffffff167ff8df31144d9c2f0f6b59d69b8b98abd5459d07f2742c4df920b25aae33c6482060405160405180910390a260008060006101000a81548173ffffffffffffffffffffffffffffffffffffffff021916908373ffffffffffffffffffffffffffffffffffffffff160217905550565b60006001600360003373ffffffffffffffffffffffffffffffffffffffff1673ffffffffffffffffffffffffffffffffffffffff16815260200190815260200160002060009054906101000a900460ff1660ff161461240657600080fd5b81600960008573ffffffffffffffffffffffffffffffffffffffff1673ffffffffffffffffffffffffffffffffffffffff16815260200190815260200160002090816124529190614035565b506001905092915050565b60008054906101000a900473ffffffffffffffffffffffffffffffffffffffff1681565b6060806001600360003373ffffffffffffffffffffffffffffffffffffffff1673ffffffffffffffffffffffffffffffffffffffff16815260200190815260200160002060009054906101000a900460ff1660ff16146124e057600080fd5b6000600760008573ffffffffffffffffffffffffffffffffffffffff1673ffffffffffffffffffffffffffffffffffffffff16815260200190815260200160002060405180604001604052908160008201805461253c90613e4e565b80601f016020809104026020016040519081016040528092919081815260200182805461256890613e4e565b80156125b55780601f1061258a576101008083540402835291602001916125b5565b820191906000526020600020905b81548152906001019060200180831161259857829003601f168201915b505050505081526020016001820180546125ce90613e4e565b80601f01602080910402602001604051908101604052809291908181526020018280546125fa90613e4e565b80156126475780601f1061261c57610100808354040283529160200191612647565b820191906000526020600020905b81548152906001019060200180831161262a57829003601f168201915b5050505050815250509050806000015181602001519250925050915091565b60006001600360003373ffffffffffffffffffffffffffffffffffffffff1673ffffffffffffffffffffffffffffffffffffffff16815260200190815260200160002060009054906101000a900460ff1660ff16146126c457600080fd5b82602460000190816126d69190614035565b5081602460010190816126e99190614035565b506024600860008673ffffffffffffffffffffffffffffffffffffffff1673ffffffffffffffffffffffffffffffffffffffff1681526020019081526020016000206000820181600001908161273f919061411d565b5060018201816001019081612754919061411d565b509050506040518060400160405280600981526020017f57415245484f5553450000000000000000000000000000000000000000000000815250600960008673ffffffffffffffffffffffffffffffffffffffff1673ffffffffffffffffffffffffffffffffffffffff16815260200190815260200160002090816127d99190614035565b50600190509392505050565b60008054906101000a900473ffffffffffffffffffffffffffffffffffffffff1673ffffffffffffffffffffffffffffffffffffffff163373ffffffffffffffffffffffffffffffffffffffff161461283d57600080fd5b600073ffffffffffffffffffffffffffffffffffffffff168173ffffffffffffffffffffffffffffffffffffffff160361287657600080fd5b8073ffffffffffffffffffffffffffffffffffffffff1660008054906101000a900473ffffffffffffffffffffffffffffffffffffffff1673ffffffffffffffffffffffffffffffffffffffff167f8be0079c531659141344cd1fd0a4f28419497f9722a3daafe3b4186f6b6457e060405160405180910390a3806000806101000a81548173ffffffffffffffffffffffffffffffffffffffff021916908373ffffffffffffffffffffffffffffffffffffffff16021790555050565b60006001600360003373ffffffffffffffffffffffffffffffffffffffff1673ffffffffffffffffffffffffffffffffffffffff16815260200190815260200160002060009054906101000a900460ff1660ff161461299157600080fd5b87601360000190816129a39190614035565b5086601360010190816129b69190614035565b5085601360020190816129c99190614035565b5084601360030190816129dc9190614035565b5083601360040190816129ef9190614035565b508260136005019081612a029190614035565b508160136006019081612a159190614035565b506013600560008b73ffffffffffffffffffffffffffffffffffffffff1673ffffffffffffffffffffffffffffffffffffffff16815260200190815260200160002060008201816000019081612a6b919061411d565b5060018201816001019081612a80919061411d565b5060028201816002019081612a95919061411d565b5060038201816003019081612aaa919061411d565b5060048201816004019081612abf919061411d565b5060058201816005019081612ad4919061411d565b5060068201816006019081612ae9919061411d565b509050506040518060400160405280600981526020017f50524f434553534f520000000000000000000000000000000000000000000000815250600960008b73ffffffffffffffffffffffffffffffffffffffff1673ffffffffffffffffffffffffffffffffffffffff1681526020019081526020016000209081612b6e9190614035565b506001905098975050505050505050565b60608060608060606001600360003373ffffffffffffffffffffffffffffffffffffffff1673ffffffffffffffffffffffffffffffffffffffff16815260200190815260200160002060009054906101000a900460ff1660ff1614612be357600080fd5b6000600460008873ffffffffffffffffffffffffffffffffffffffff1673ffffffffffffffffffffffffffffffffffffffff1681526020019081526020016000206040518060a0016040529081600082018054612c3f90613e4e565b80601f0160208091040260200160405190810160405280929190818152602001828054612c6b90613e4e565b8015612cb85780601f10612c8d57610100808354040283529160200191612cb8565b820191906000526020600020905b815481529060010190602001808311612c9b57829003601f168201915b50505050508152602001600182018054612cd190613e4e565b80601f0160208091040260200160405190810160405280929190818152602001828054612cfd90613e4e565b8015612d4a5780601f10612d1f57610100808354040283529160200191612d4a565b820191906000526020600020905b815481529060010190602001808311612d2d57829003601f168201915b50505050508152602001600282018054612d6390613e4e565b80601f0160208091040260200160405190810160405280929190818152602001828054612d8f90613e4e565b8015612ddc5780601f10612db157610100808354040283529160200191612ddc565b820191906000526020600020905b815481529060010190602001808311612dbf57829003601f168201915b50505050508152602001600382018054612df590613e4e565b80601f0160208091040260200160405190810160405280929190818152602001828054612e2190613e4e565b8015612e6e5780601f10612e4357610100808354040283529160200191612e6e565b820191906000526020600020905b815481529060010190602001808311612e5157829003601f168201915b50505050508152602001600482018054612e8790613e4e565b80601f0160208091040260200160405190810160405280929190818152602001828054612eb390613e4e565b8015612f005780601f10612ed557610100808354040283529160200191612f00565b820191906000526020600020905b815481529060010190602001808311612ee357829003601f168201915b505050505081525050905080600001518160200151826040015183606001518460800151955095509550955095505091939590929450565b828054828255906000526020600020908101928215612f80579160200282015b82811115612f7f578251829081612f6f9190614035565b5091602001919060010190612f58565b5b509050612f8d9190612fee565b5090565b828054828255906000526020600020908101928215612fdd5760005260206000209182015b82811115612fdc5782829081612fcc919061411d565b5091600101919060010190612fb6565b5b509050612fea9190612fee565b5090565b5b8082111561300e57600081816130059190613012565b50600101612fef565b5090565b50805461301e90613e4e565b6000825580601f10613030575061304f565b601f01602090049060005260206000209081019061304e9190613052565b5b50565b5b8082111561306b576000816000905550600101613053565b5090565b6000604051905090565b600080fd5b600080fd5b600073ffffffffffffffffffffffffffffffffffffffff82169050919050565b60006130ae82613083565b9050919050565b6130be816130a3565b81146130c957600080fd5b50565b6000813590506130db816130b5565b92915050565b6000602082840312156130f7576130f6613079565b5b6000613105848285016130cc565b91505092915050565b600081519050919050565b600082825260208201905092915050565b6000819050602082019050919050565b600081519050919050565b600082825260208201905092915050565b60005b83811015613174578082015181840152602081019050613159565b83811115613183576000848401525b50505050565b6000601f19601f8301169050919050565b60006131a58261313a565b6131af8185613145565b93506131bf818560208601613156565b6131c881613189565b840191505092915050565b60006131df838361319a565b905092915050565b6000602082019050919050565b60006131ff8261310e565b6132098185613119565b93508360208202850161321b8561312a565b8060005b85811015613257578484038952815161323885826131d3565b9450613243836131e7565b925060208a0199505060018101905061321f565b50829750879550505050505092915050565b6000602082019050818103600083015261328381846131f4565b905092915050565b600080fd5b600080fd5b7f4e487b7100000000000000000000000000000000000000000000000000000000600052604160045260246000fd5b6132cd82613189565b810181811067ffffffffffffffff821117156132ec576132eb613295565b5b80604052505050565b60006132ff61306f565b905061330b82826132c4565b919050565b600067ffffffffffffffff82111561332b5761332a613295565b5b61333482613189565b9050602081019050919050565b82818337600083830152505050565b600061336361335e84613310565b6132f5565b90508281526020810184848401111561337f5761337e613290565b5b61338a848285613341565b509392505050565b600082601f8301126133a7576133a661328b565b5b81356133b7848260208601613350565b91505092915050565b600067ffffffffffffffff8211156133db576133da613295565b5b602082029050602081019050919050565b600080fd5b60006134046133ff846133c0565b6132f5565b90508083825260208201905060208402830185811115613427576134266133ec565b5b835b8181101561346e57803567ffffffffffffffff81111561344c5761344b61328b565b5b8086016134598982613392565b85526020850194505050602081019050613429565b5050509392505050565b600082601f83011261348d5761348c61328b565b5b813561349d8482602086016133f1565b91505092915050565b60008115159050919050565b6134bb816134a6565b81146134c657600080fd5b50565b6000813590506134d8816134b2565b92915050565b60008060008060008060c087890312156134fb576134fa613079565b5b600061350989828a016130cc565b965050602087013567ffffffffffffffff81111561352a5761352961307e565b5b61353689828a01613392565b955050604087013567ffffffffffffffff8111156135575761355661307e565b5b61356389828a01613392565b945050606087013567ffffffffffffffff8111156135845761358361307e565b5b61359089828a01613478565b93505060806135a189828a016134c9565b92505060a087013567ffffffffffffffff8111156135c2576135c161307e565b5b6135ce89828a01613392565b9150509295509295509295565b6135e4816134a6565b82525050565b60006020820190506135ff60008301846135db565b92915050565b60008060006060848603121561361e5761361d613079565b5b600061362c868287016130cc565b935050602084013567ffffffffffffffff81111561364d5761364c61307e565b5b61365986828701613392565b925050604084013567ffffffffffffffff81111561367a5761367961307e565b5b61368686828701613392565b9150509250925092565b600080600080600060a086880312156136ac576136ab613079565b5b600086013567ffffffffffffffff8111156136ca576136c961307e565b5b6136d688828901613392565b955050602086013567ffffffffffffffff8111156136f7576136f661307e565b5b61370388828901613392565b945050604086013567ffffffffffffffff8111156137245761372361307e565b5b61373088828901613392565b935050606086013567ffffffffffffffff8111156137515761375061307e565b5b61375d88828901613392565b925050608086013567ffffffffffffffff81111561377e5761377d61307e565b5b61378a88828901613392565b9150509295509295909350565b6137a0816130a3565b82525050565b60006020820190506137bb6000830184613797565b92915050565b60008060008060008060008060006101208a8c0312156137e4576137e3613079565b5b60006137f28c828d016130cc565b99505060208a013567ffffffffffffffff8111156138135761381261307e565b5b61381f8c828d01613478565b98505060408a013567ffffffffffffffff8111156138405761383f61307e565b5b61384c8c828d01613392565b97505060608a013567ffffffffffffffff81111561386d5761386c61307e565b5b6138798c828d01613392565b96505060808a013567ffffffffffffffff81111561389a5761389961307e565b5b6138a68c828d01613392565b95505060a08a013567ffffffffffffffff8111156138c7576138c661307e565b5b6138d38c828d01613478565b94505060c08a013567ffffffffffffffff8111156138f4576138f361307e565b5b6139008c828d01613478565b93505060e08a013567ffffffffffffffff8111156139215761392061307e565b5b61392d8c828d01613392565b9250506101008a013567ffffffffffffffff81111561394f5761394e61307e565b5b61395b8c828d01613392565b9150509295985092959850929598565b600082825260208201905092915050565b60006139878261313a565b613991818561396b565b93506139a1818560208601613156565b6139aa81613189565b840191505092915050565b600060408201905081810360008301526139cf818561397c565b905081810360208301526139e3818461397c565b90509392505050565b600060e0820190508181036000830152613a06818a61397c565b90508181036020830152613a1a818961397c565b90508181036040830152613a2e818861397c565b90508181036060830152613a42818761397c565b90508181036080830152613a56818661397c565b905081810360a0830152613a6a818561397c565b905081810360c0830152613a7e818461397c565b905098975050505050505050565b60006020820190508181036000830152613aa6818461397c565b905092915050565b600060a0820190508181036000830152613ac8818861397c565b90508181036020830152613adc818761397c565b90508181036040830152613af081866131f4565b9050613aff60608301856135db565b8181036080830152613b11818461397c565b90509695505050505050565b6000610100820190508181036000830152613b38818b6131f4565b90508181036020830152613b4c818a61397c565b90508181036040830152613b60818961397c565b90508181036060830152613b74818861397c565b90508181036080830152613b8881876131f4565b905081810360a0830152613b9c81866131f4565b905081810360c0830152613bb0818561397c565b905081810360e0830152613bc4818461397c565b90509998505050505050505050565b60008060408385031215613bea57613be9613079565b5b6000613bf8858286016130cc565b925050602083013567ffffffffffffffff811115613c1957613c1861307e565b5b613c2585828601613392565b9150509250929050565b600080600080600080600080610100898b031215613c5057613c4f613079565b5b6000613c5e8b828c016130cc565b985050602089013567ffffffffffffffff811115613c7f57613c7e61307e565b5b613c8b8b828c01613392565b975050604089013567ffffffffffffffff811115613cac57613cab61307e565b5b613cb88b828c01613392565b965050606089013567ffffffffffffffff811115613cd957613cd861307e565b5b613ce58b828c01613392565b955050608089013567ffffffffffffffff811115613d0657613d0561307e565b5b613d128b828c01613392565b94505060a089013567ffffffffffffffff811115613d3357613d3261307e565b5b613d3f8b828c01613392565b93505060c089013567ffffffffffffffff811115613d6057613d5f61307e565b5b613d6c8b828c01613392565b92505060e089013567ffffffffffffffff811115613d8d57613d8c61307e565b5b613d998b828c01613392565b9150509295985092959890939650565b600060a0820190508181036000830152613dc3818861397c565b90508181036020830152613dd7818761397c565b90508181036040830152613deb818661397c565b90508181036060830152613dff818561397c565b90508181036080830152613e13818461397c565b90509695505050505050565b7f4e487b7100000000000000000000000000000000000000000000000000000000600052602260045260246000fd5b60006002820490506001821680613e6657607f821691505b602082108103613e7957613e78613e1f565b5b50919050565b60008190508160005260206000209050919050565b60006020601f8301049050919050565b600082821b905092915050565b600060088302613ee17fffffffffffffffffffffffffffffffffffffffffffffffffffffffffffffffff82613ea4565b613eeb8683613ea4565b95508019841693508086168417925050509392505050565b6000819050919050565b6000819050919050565b6000613f32613f2d613f2884613f03565b613f0d565b613f03565b9050919050565b6000819050919050565b613f4c83613f17565b613f60613f5882613f39565b848454613eb1565b825550505050565b600090565b613f75613f68565b613f80818484613f43565b505050565b5b81811015613fa457613f99600082613f6d565b600181019050613f86565b5050565b601f821115613fe957613fba81613e7f565b613fc384613e94565b81016020851015613fd2578190505b613fe6613fde85613e94565b830182613f85565b50505b505050565b600082821c905092915050565b600061400c60001984600802613fee565b1980831691505092915050565b60006140258383613ffb565b9150826002028217905092915050565b61403e8261313a565b67ffffffffffffffff81111561405757614056613295565b5b6140618254613e4e565b61406c828285613fa8565b600060209050601f83116001811461409f576000841561408d578287015190505b6140978582614019565b8655506140ff565b601f1984166140ad86613e7f565b60005b828110156140d5578489015182556001820191506020850194506020810190506140b0565b868310156140f257848901516140ee601f891682613ffb565b8355505b6001600288020188555050505b505050505050565b60008154905061411681613e4e565b9050919050565b81810361412b575050614203565b61413482614107565b67ffffffffffffffff81111561414d5761414c613295565b5b6141578254613e4e565b614162828285613fa8565b6000601f831160018114614191576000841561417f578287015490505b6141898582614019565b8655506141fc565b601f19841661419f87613e7f565b96506141aa86613e7f565b60005b828110156141d2578489015482556001820191506001850194506020810190506141ad565b868310156141ef57848901546141eb601f891682613ffb565b8355505b6001600288020188555050505b5050505050505b565b60008160601b9050919050565b600061421d82614205565b9050919050565b600061422f82614212565b9050919050565b614247614242826130a3565b614224565b82525050565b6000819050919050565b61426861426382613f03565b61424d565b82525050565b600061427a8285614236565b60148201915061428a8284614257565b602082019150819050939250505056fea26469706673582212202708f8d3396a583fce514d2949cd124496b590ba692d2d847d9c74239c5c671364736f6c634300080f0033",
  "immutableReferences": {},
  "source": "//SPDX-License-Identifier: MIT\n\npragma solidity ^0.8.15;\n\nimport \"./SupplyChainStorageOwnable.sol\";\n\ncontract SupplyChainStorage is SupplyChainStorageOwnable {\n    constructor() {\n        authorizedCaller[msg.sender] = 1;\n        emit AuthorizedCaller(msg.sender);\n    }\n\n    event AuthorizedCaller(address caller);\n    event DeAuthorizedCaller(address caller);\n\n    event UserUpdate(address userAddress);\n    event UserRoleUpdate(address userAddress);\n\n    modifier onlyAuthCaller() {\n        require(authorizedCaller[msg.sender] == 1);\n        _;\n    }\n\n    struct User {\n        string name;\n        string email;\n        bool isActive;\n        string profileHash;\n    }\n\n    mapping(address => User) userDetails;\n    mapping(address => string[]) userRole;\n\n    mapping(address => uint8) authorizedCaller;\n\n    function authorizeCaller(address _caller) public onlyOwner returns (bool) {\n        authorizedCaller[_caller] = 1;\n        emit AuthorizedCaller(_caller);\n        return true;\n    }\n\n    function deAuthorizeCaller(address _caller)\n        public\n        onlyOwner\n        returns (bool)\n    {\n        authorizedCaller[_caller] = 0;\n        emit DeAuthorizedCaller(_caller);\n        return true;\n    }\n\n    struct FarmDetails {\n        string registrationNo;\n        string farmName;\n        string latitude;\n        string longitude;\n        string farmAddress;\n    }\n\n    struct Harvest {\n        string seedSupplier;\n        string typeOfSeed;\n        string coffeeFamily;\n        string fertilizerUsed;\n        string harvestDate;\n        string humidityPercentage;\n        string batchWeight;\n    }\n\n    struct Process {\n        string[] addressLatLngProcessor;\n        string typeOfDrying;\n        string humidityAfterDrying;\n        string roastImageHash;\n        string[] tempTypeRoast;\n        string[] roastMillDates;\n        string processorPricePerKilo;\n        string processBatchWeight;\n    }\n\n    struct Taste {\n        string tastingScore;\n        string tastingServicePrice;\n    }\n\n    struct CoffeeSell {\n        string coffeeSellingBatchWeight;\n        string beanPricePerKilo;\n    }\n\n    mapping(address => FarmDetails) batchFarmDetails;\n    mapping(address => Harvest) batchHarvest;\n    mapping(address => Process) batchProcess;\n    mapping(address => Taste) batchTaste;\n    mapping(address => CoffeeSell) batchCoffeSell;\n    mapping(address => string) nextAction;\n\n    User userData;\n    FarmDetails farmDetailsData;\n    Harvest harvestData;\n    Process processData;\n    Taste tasteData;\n    CoffeeSell coffeeSellData;\n\n    function getUserRoles(address _userAddress)\n        public\n        view\n        onlyAuthCaller\n        returns (string[] memory)\n    {\n        return userRole[_userAddress];\n    }\n\n    function getNextAction(address _batchNo)\n        public\n        view\n        onlyAuthCaller\n        returns (string memory)\n    {\n        return nextAction[_batchNo];\n    }\n\n    function writeNextAction(address _batchNo, string memory action)\n        public\n        onlyAuthCaller\n        returns (bool)\n    {\n        nextAction[_batchNo] = action;\n\n        return true;\n    }\n\n    function setUser(\n        address _userAddress,\n        string memory _name,\n        string memory _email,\n        string[] memory _role,\n        bool _isActive,\n        string memory _profileHash\n    ) public onlyAuthCaller returns (bool) {\n        userData.name = _name;\n        userData.email = _email;\n        userData.isActive = _isActive;\n        userData.profileHash = _profileHash;\n\n        userDetails[_userAddress] = userData;\n        userRole[_userAddress] = _role;\n\n        emit UserUpdate(_userAddress);\n        emit UserRoleUpdate(_userAddress);\n        return true;\n    }\n\n    function getUser(address _userAddress)\n        public\n        view\n        onlyAuthCaller\n        returns (\n            string memory name,\n            string memory email,\n            string[] memory role,\n            bool isActive,\n            string memory profileHash\n        )\n    {\n        User memory tmpData = userDetails[_userAddress];\n        return (\n            tmpData.name,\n            tmpData.email,\n            userRole[_userAddress],\n            tmpData.isActive,\n            tmpData.profileHash\n        );\n    }\n\n    function setFarmDetails(\n        string memory _registrationNo,\n        string memory _farmName,\n        string memory _latitude,\n        string memory _longitude,\n        string memory _farmAddress\n    ) public onlyAuthCaller returns (address) {\n        uint256 tmpData = uint256(\n            keccak256(abi.encodePacked(msg.sender, block.timestamp))\n        );\n        address batchNo = address(uint160(tmpData));\n\n        farmDetailsData.registrationNo = _registrationNo;\n        farmDetailsData.farmName = _farmName;\n        farmDetailsData.latitude = _latitude;\n        farmDetailsData.longitude = _longitude;\n        farmDetailsData.farmAddress = _farmAddress;\n\n        batchFarmDetails[batchNo] = farmDetailsData;\n        nextAction[batchNo] = \"FARMER\";\n        return batchNo;\n    }\n\n    function getFarmDetails(address _batchNo)\n        public\n        view\n        onlyAuthCaller\n        returns (\n            string memory registrationNo,\n            string memory farmName,\n            string memory latitude,\n            string memory longitude,\n            string memory farmAddress\n        )\n    {\n        FarmDetails memory tmpData = batchFarmDetails[_batchNo];\n\n        return (\n            tmpData.registrationNo,\n            tmpData.farmName,\n            tmpData.latitude,\n            tmpData.longitude,\n            tmpData.farmAddress\n        );\n    }\n\n    function setHarvestData(\n        address batchNo,\n        string memory _seedSupplier,\n        string memory _typeOfSeed,\n        string memory _coffeeFamily,\n        string memory _fertilizerUsed,\n        string memory _harvestDate,\n        string memory _humidityPercentage,\n        string memory _batchWeight\n    ) public onlyAuthCaller returns (bool) {\n        harvestData.seedSupplier = _seedSupplier;\n        harvestData.typeOfSeed = _typeOfSeed;\n        harvestData.coffeeFamily = _coffeeFamily;\n        harvestData.fertilizerUsed = _fertilizerUsed;\n        harvestData.harvestDate = _harvestDate;\n        harvestData.humidityPercentage = _humidityPercentage;\n        harvestData.batchWeight = _batchWeight;\n\n        batchHarvest[batchNo] = harvestData;\n        nextAction[batchNo] = \"PROCESSOR\";\n        return true;\n    }\n\n    function getHarvestData(address batchNo)\n        public\n        view\n        onlyAuthCaller\n        returns (\n            string memory seedSupplier,\n            string memory typeOfSeed,\n            string memory coffeeFamily,\n            string memory fertilizerUsed,\n            string memory harvestDate,\n            string memory humidityPercentage,\n            string memory batchWeight\n        )\n    {\n        Harvest memory tmpData = batchHarvest[batchNo];\n        return (\n            tmpData.seedSupplier,\n            tmpData.typeOfSeed,\n            tmpData.coffeeFamily,\n            tmpData.fertilizerUsed,\n            tmpData.harvestDate,\n            tmpData.humidityPercentage,\n            tmpData.batchWeight\n        );\n    }\n\n    function setProcessData(\n        address batchNo,\n        string[] memory _addressLatLngProcessor,\n        string memory _typeOfDrying,\n        string memory _humidityAfterDrying,\n        string memory _roastImageHash,\n        string[] memory _tempTypeRoast,\n        string[] memory _roastMillDates,\n        string memory _processorPricePerKilo,\n        string memory _processBatchWeight\n    ) public onlyAuthCaller returns (bool) {\n        processData.addressLatLngProcessor = _addressLatLngProcessor;\n        processData.typeOfDrying = _typeOfDrying;\n        processData.humidityAfterDrying = _humidityAfterDrying;\n        processData.roastImageHash = _roastImageHash;\n        processData.tempTypeRoast = _tempTypeRoast;\n        processData.roastMillDates = _roastMillDates;\n        processData.processorPricePerKilo = _processorPricePerKilo;\n        processData.processBatchWeight = _processBatchWeight;\n\n        batchProcess[batchNo] = processData;\n\n        nextAction[batchNo] = \"TASTER\";\n        return (true);\n    }\n\n    function getProcessData(address batchNo)\n        public\n        view\n        onlyAuthCaller\n        returns (\n            string[] memory addressLatLngProcessor,\n            string memory typeOfDrying,\n            string memory humidityAfterDrying,\n            string memory roastImageHash,\n            string[] memory tempTypeRoast,\n            string[] memory roastMillDates,\n            string memory processorPricePerKilo,\n            string memory processBatchWeight\n        )\n    {\n        Process memory tmpData = batchProcess[batchNo];\n        return (\n            tmpData.addressLatLngProcessor,\n            tmpData.typeOfDrying,\n            tmpData.humidityAfterDrying,\n            tmpData.roastImageHash,\n            tmpData.tempTypeRoast,\n            tmpData.roastMillDates,\n            tmpData.processorPricePerKilo,\n            tmpData.processBatchWeight\n        );\n    }\n\n    function setTasteData(\n        address batchNo,\n        string memory _tastingScore,\n        string memory _tastingServicePrice\n    ) public onlyAuthCaller returns (bool) {\n        tasteData.tastingScore = _tastingScore;\n        tasteData.tastingServicePrice = _tastingServicePrice;\n\n        batchTaste[batchNo] = tasteData;\n        nextAction[batchNo] = \"SELLER\";\n        return true;\n    }\n\n    function getTasteData(address batchNo)\n        public\n        view\n        onlyAuthCaller\n        returns (string memory tastingScore, string memory tastingServicePrice)\n    {\n        Taste memory tmpData = batchTaste[batchNo];\n        return (tmpData.tastingScore, tmpData.tastingServicePrice);\n    }\n\n    function setCoffeeSellData(\n        address batchNo,\n        string memory _coffeeSellingBatchWeight,\n        string memory _beanPricePerKilo\n    ) public onlyAuthCaller returns (bool) {\n        coffeeSellData.coffeeSellingBatchWeight = _coffeeSellingBatchWeight;\n        coffeeSellData.beanPricePerKilo = _beanPricePerKilo;\n\n        batchCoffeSell[batchNo] = coffeeSellData;\n        nextAction[batchNo] = \"WAREHOUSE\";\n        return true;\n    }\n\n    function getCoffeeSellData(address batchNo)\n        public\n        view\n        onlyAuthCaller\n        returns (\n            string memory coffeeSellingBatchWeight,\n            string memory beanPricePerKilo\n        )\n    {\n        CoffeeSell memory tmpData = batchCoffeSell[batchNo];\n        return (tmpData.coffeeSellingBatchWeight, tmpData.beanPricePerKilo);\n    }\n}\n",
  "sourcePath": "/home/nathalia/TESIS/coffee-supply-chain-tracking-system-ethereum/contracts/SupplyChainStorage.sol",
  "compiler": {
    "name": "solc",
    "version": "0.8.15+commit.e14f2714.Emscripten.clang"
  },
  "schemaVersion": "3.4.4",
  "updatedAt": "2022-08-06T15:11:48.810Z",
  "networkType": "ethereum",
  "devdoc": {
    "kind": "dev",
    "methods": {},
    "version": 1
  },
  "userdoc": {
    "kind": "user",
    "methods": {},
    "version": 1
  }
}