{
  "contractName": "SupplyChainStorage2",
  "abi": [
    {
      "inputs": [
        {
          "internalType": "address",
          "name": "_supplyChainStorage",
          "type": "address"
        }
      ],
      "stateMutability": "nonpayable",
      "type": "constructor"
    },
    {
      "anonymous": false,
      "inputs": [
        {
          "indexed": false,
          "internalType": "address",
          "name": "caller",
          "type": "address"
        }
      ],
      "name": "AuthorizedCaller",
      "type": "event"
    },
    {
      "anonymous": false,
      "inputs": [
        {
          "indexed": false,
          "internalType": "address",
          "name": "caller",
          "type": "address"
        }
      ],
      "name": "DeAuthorizedCaller",
      "type": "event"
    },
    {
      "anonymous": false,
      "inputs": [
        {
          "indexed": true,
          "internalType": "address",
          "name": "previousOwner",
          "type": "address"
        }
      ],
      "name": "OwnershipRenounced",
      "type": "event"
    },
    {
      "anonymous": false,
      "inputs": [
        {
          "indexed": true,
          "internalType": "address",
          "name": "previusOwner",
          "type": "address"
        },
        {
          "indexed": true,
          "internalType": "address",
          "name": "newOwner",
          "type": "address"
        }
      ],
      "name": "OwnershipTransferred",
      "type": "event"
    },
    {
      "inputs": [],
      "name": "owner",
      "outputs": [
        {
          "internalType": "address",
          "name": "",
          "type": "address"
        }
      ],
      "stateMutability": "view",
      "type": "function",
      "constant": true
    },
    {
      "inputs": [],
      "name": "renounceOwnership",
      "outputs": [],
      "stateMutability": "nonpayable",
      "type": "function"
    },
    {
      "inputs": [
        {
          "internalType": "address",
          "name": "newOwner",
          "type": "address"
        }
      ],
      "name": "transferOwnership",
      "outputs": [],
      "stateMutability": "nonpayable",
      "type": "function"
    },
    {
      "inputs": [
        {
          "internalType": "address",
          "name": "_caller",
          "type": "address"
        }
      ],
      "name": "authorizeCaller",
      "outputs": [
        {
          "internalType": "bool",
          "name": "",
          "type": "bool"
        }
      ],
      "stateMutability": "nonpayable",
      "type": "function"
    },
    {
      "inputs": [
        {
          "internalType": "address",
          "name": "_caller",
          "type": "address"
        }
      ],
      "name": "deAuthorizeCaller",
      "outputs": [
        {
          "internalType": "bool",
          "name": "",
          "type": "bool"
        }
      ],
      "stateMutability": "nonpayable",
      "type": "function"
    },
    {
      "inputs": [
        {
          "internalType": "address",
          "name": "batchNo",
          "type": "address"
        },
        {
          "internalType": "string",
          "name": "_warehouseAddress",
          "type": "string"
        },
        {
          "internalType": "string[]",
          "name": "_latLngWarehouse",
          "type": "string[]"
        },
        {
          "internalType": "string",
          "name": "_warehouseArrivalDate",
          "type": "string"
        },
        {
          "internalType": "string",
          "name": "_storageTime",
          "type": "string"
        },
        {
          "internalType": "string",
          "name": "_storagePricePerKiloPerTime",
          "type": "string"
        }
      ],
      "name": "setWarehousingData",
      "outputs": [
        {
          "internalType": "bool",
          "name": "",
          "type": "bool"
        }
      ],
      "stateMutability": "nonpayable",
      "type": "function"
    },
    {
      "inputs": [
        {
          "internalType": "address",
          "name": "batchNo",
          "type": "address"
        }
      ],
      "name": "getWarehousingData",
      "outputs": [
        {
          "internalType": "string",
          "name": "warehouseAddress",
          "type": "string"
        },
        {
          "internalType": "string[]",
          "name": "latLngWarehouse",
          "type": "string[]"
        },
        {
          "internalType": "string",
          "name": "warehouseArrivalDate",
          "type": "string"
        },
        {
          "internalType": "string",
          "name": "storageTime",
          "type": "string"
        },
        {
          "internalType": "string",
          "name": "storagePricePerKiloPerTime",
          "type": "string"
        }
      ],
      "stateMutability": "view",
      "type": "function",
      "constant": true
    },
    {
      "inputs": [
        {
          "internalType": "address",
          "name": "batchNo",
          "type": "address"
        },
        {
          "internalType": "string",
          "name": "_toPackerTransportType",
          "type": "string"
        },
        {
          "internalType": "string",
          "name": "_warehousePickupDate",
          "type": "string"
        },
        {
          "internalType": "string",
          "name": "_toPackerShippingPrice",
          "type": "string"
        }
      ],
      "name": "setShipPackerData",
      "outputs": [
        {
          "internalType": "bool",
          "name": "",
          "type": "bool"
        }
      ],
      "stateMutability": "nonpayable",
      "type": "function"
    },
    {
      "inputs": [
        {
          "internalType": "address",
          "name": "batchNo",
          "type": "address"
        }
      ],
      "name": "getShipPackerData",
      "outputs": [
        {
          "internalType": "string",
          "name": "toPackerTransportType",
          "type": "string"
        },
        {
          "internalType": "string",
          "name": "warehousePickupDate",
          "type": "string"
        },
        {
          "internalType": "string",
          "name": "toPackerShippingPrice",
          "type": "string"
        }
      ],
      "stateMutability": "view",
      "type": "function",
      "constant": true
    },
    {
      "inputs": [
        {
          "internalType": "address",
          "name": "batchNo",
          "type": "address"
        },
        {
          "internalType": "string",
          "name": "_packerAddress",
          "type": "string"
        },
        {
          "internalType": "string[]",
          "name": "_latLngPacker",
          "type": "string[]"
        },
        {
          "internalType": "string",
          "name": "_packerArrivalDate",
          "type": "string"
        },
        {
          "internalType": "string",
          "name": "_packingDate",
          "type": "string"
        },
        {
          "internalType": "string",
          "name": "_packingPricePerKilo",
          "type": "string"
        }
      ],
      "name": "setPackData",
      "outputs": [
        {
          "internalType": "bool",
          "name": "",
          "type": "bool"
        }
      ],
      "stateMutability": "nonpayable",
      "type": "function"
    },
    {
      "inputs": [
        {
          "internalType": "address",
          "name": "batchNo",
          "type": "address"
        }
      ],
      "name": "getPackData",
      "outputs": [
        {
          "internalType": "string",
          "name": "packerAddress",
          "type": "string"
        },
        {
          "internalType": "string[]",
          "name": "latLngPacker",
          "type": "string[]"
        },
        {
          "internalType": "string",
          "name": "packerArrivalDate",
          "type": "string"
        },
        {
          "internalType": "string",
          "name": "packingDate",
          "type": "string"
        },
        {
          "internalType": "string",
          "name": "packingPricePerKilo",
          "type": "string"
        }
      ],
      "stateMutability": "view",
      "type": "function",
      "constant": true
    },
    {
      "inputs": [
        {
          "internalType": "address",
          "name": "batchNo",
          "type": "address"
        },
        {
          "internalType": "string",
          "name": "_toRetailerTransportType",
          "type": "string"
        },
        {
          "internalType": "string",
          "name": "_packerPickupDate",
          "type": "string"
        },
        {
          "internalType": "string",
          "name": "_toReatilerShippingPrice",
          "type": "string"
        }
      ],
      "name": "setShipRetailerData",
      "outputs": [
        {
          "internalType": "bool",
          "name": "",
          "type": "bool"
        }
      ],
      "stateMutability": "nonpayable",
      "type": "function"
    },
    {
      "inputs": [
        {
          "internalType": "address",
          "name": "batchNo",
          "type": "address"
        }
      ],
      "name": "getShipRetailerData",
      "outputs": [
        {
          "internalType": "string",
          "name": "toRetailerTransportType",
          "type": "string"
        },
        {
          "internalType": "string",
          "name": "packerPickupDate",
          "type": "string"
        },
        {
          "internalType": "string",
          "name": "toReatilerShippingPrice",
          "type": "string"
        }
      ],
      "stateMutability": "view",
      "type": "function",
      "constant": true
    },
    {
      "inputs": [
        {
          "internalType": "address",
          "name": "batchNo",
          "type": "address"
        },
        {
          "internalType": "string[]",
          "name": "_warehouseSalepointArrivalDate",
          "type": "string[]"
        },
        {
          "internalType": "string",
          "name": "_warehouseRetailerName",
          "type": "string"
        },
        {
          "internalType": "string",
          "name": "_salepointRetailerName",
          "type": "string"
        },
        {
          "internalType": "string[]",
          "name": "_addressLatLngWarehouseRetailer",
          "type": "string[]"
        },
        {
          "internalType": "string[]",
          "name": "_addressLatLngSalepointRetailer",
          "type": "string[]"
        },
        {
          "internalType": "string",
          "name": "_toSalepointTransportType",
          "type": "string"
        },
        {
          "internalType": "string",
          "name": "_toSalepointShippingPrice",
          "type": "string"
        },
        {
          "internalType": "string",
          "name": "_retailerPricePerKilo",
          "type": "string"
        }
      ],
      "name": "setRetailerData",
      "outputs": [
        {
          "internalType": "bool",
          "name": "",
          "type": "bool"
        }
      ],
      "stateMutability": "nonpayable",
      "type": "function"
    },
    {
      "inputs": [
        {
          "internalType": "address",
          "name": "batchNo",
          "type": "address"
        }
      ],
      "name": "getRetailerData",
      "outputs": [
        {
          "internalType": "string[]",
          "name": "warehouseSalepointArrivalDate",
          "type": "string[]"
        },
        {
          "internalType": "string",
          "name": "warehouseRetailerName",
          "type": "string"
        },
        {
          "internalType": "string",
          "name": "salepointRetailerName",
          "type": "string"
        },
        {
          "internalType": "string[]",
          "name": "addressLatLngWarehouseRetailer",
          "type": "string[]"
        },
        {
          "internalType": "string[]",
          "name": "addressLatLngSalepointRetailer",
          "type": "string[]"
        },
        {
          "internalType": "string",
          "name": "toSalepointTransportType",
          "type": "string"
        },
        {
          "internalType": "string",
          "name": "toSalepointShippingPrice",
          "type": "string"
        },
        {
          "internalType": "string",
          "name": "retailerPricePerKilo",
          "type": "string"
        }
      ],
      "stateMutability": "view",
      "type": "function",
      "constant": true
    }
  ],
  "bytecode": "0x60806040523480156200001157600080fd5b50604051620039f3380380620039f38339818101604052810190620000379190620001bb565b336000806101000a81548173ffffffffffffffffffffffffffffffffffffffff021916908373ffffffffffffffffffffffffffffffffffffffff1602179055506001600260003373ffffffffffffffffffffffffffffffffffffffff1673ffffffffffffffffffffffffffffffffffffffff16815260200190815260200160002060006101000a81548160ff021916908360ff1602179055507f8afeca650897be3183b7c0d24eba96a1b990f75c4bd74a0cfb2c0a71aec48e6133604051620001019190620001fe565b60405180910390a180600160006101000a81548173ffffffffffffffffffffffffffffffffffffffff021916908373ffffffffffffffffffffffffffffffffffffffff160217905550506200021b565b600080fd5b600073ffffffffffffffffffffffffffffffffffffffff82169050919050565b6000620001838262000156565b9050919050565b620001958162000176565b8114620001a157600080fd5b50565b600081519050620001b5816200018a565b92915050565b600060208284031215620001d457620001d362000151565b5b6000620001e484828501620001a4565b91505092915050565b620001f88162000176565b82525050565b6000602082019050620002156000830184620001ed565b92915050565b6137c8806200022b6000396000f3fe608060405234801561001057600080fd5b50600436106100f55760003560e01c80633af62db9116100975780638da5cb5b116100665780638da5cb5b146102f55780639045499f14610313578063df36db7a14610345578063f2fde38b14610375576100f5565b80633af62db91461025457806343e91eca146102845780636a7352d5146102b4578063715018a6146102eb576100f5565b80631bcd250a116100d35780631bcd250a1461018c578063242ccc22146101bc5780632b65dacc146101f05780632c388d5d14610224576100f5565b80630425510d146100fa5780631350afa51461012a578063199351bb1461015a575b600080fd5b610114600480360381019061010f91906129da565b610391565b6040516101219190612b9f565b60405180910390f35b610144600480360381019061013f9190612bba565b61064b565b6040516101519190612b9f565b60405180910390f35b610174600480360381019061016f9190612c75565b61081d565b60405161018393929190612d2a565b60405180910390f35b6101a660048036038101906101a19190612c75565b610a9f565b6040516101b39190612b9f565b60405180910390f35b6101d660048036038101906101d19190612c75565b610b93565b6040516101e7959493929190612e82565b60405180910390f35b61020a60048036038101906102059190612c75565b610f93565b60405161021b959493929190612e82565b60405180910390f35b61023e60048036038101906102399190612c75565b611393565b60405161024b9190612b9f565b60405180910390f35b61026e60048036038101906102699190612bba565b611487565b60405161027b9190612b9f565b60405180910390f35b61029e60048036038101906102999190612ef8565b611659565b6040516102ab9190612b9f565b60405180910390f35b6102ce60048036038101906102c99190612c75565b611886565b6040516102e2989796959493929190613011565b60405180910390f35b6102f3611ee6565b005b6102fd611fe4565b60405161030a91906130d6565b60405180910390f35b61032d60048036038101906103289190612c75565b612008565b60405161033c93929190612d2a565b60405180910390f35b61035f600480360381019061035a9190612ef8565b61228a565b60405161036c9190612b9f565b60405180910390f35b61038f600480360381019061038a9190612c75565b6124b7565b005b60006001600260003373ffffffffffffffffffffffffffffffffffffffff1673ffffffffffffffffffffffffffffffffffffffff16815260200190815260200160002060009054906101000a900460ff1660ff16146103ef57600080fd5b8860186000019080519060200190610408929190612605565b50876018600101908161041b9190613307565b50866018600201908161042e9190613307565b508560186003019080519060200190610448929190612605565b508460186004019080519060200190610462929190612605565b5083601860050190816104759190613307565b5082601860060190816104889190613307565b50816018600701908161049b9190613307565b506018600760008c73ffffffffffffffffffffffffffffffffffffffff1673ffffffffffffffffffffffffffffffffffffffff16815260200190815260200160002060008201816000019080546104f392919061265e565b506001820181600101908161050891906133ef565b506002820181600201908161051d91906133ef565b50600382018160030190805461053492919061265e565b50600482018160040190805461054b92919061265e565b506005820181600501908161056091906133ef565b506006820181600601908161057591906133ef565b506007820181600701908161058a91906133ef565b509050506000600160009054906101000a900473ffffffffffffffffffffffffffffffffffffffff1673ffffffffffffffffffffffffffffffffffffffff16638383e2948c6040518263ffffffff1660e01b81526004016105eb9190613523565b6020604051808303816000875af115801561060a573d6000803e3d6000fd5b505050506040513d601f19601f8201168201806040525081019061062e919061357d565b90506001801561063b5750805b9150509998505050505050505050565b60006001600260003373ffffffffffffffffffffffffffffffffffffffff1673ffffffffffffffffffffffffffffffffffffffff16815260200190815260200160002060009054906101000a900460ff1660ff16146106a957600080fd5b83601560000190816106bb9190613307565b5082601560010190816106ce9190613307565b5081601560020190816106e19190613307565b506015600660008773ffffffffffffffffffffffffffffffffffffffff1673ffffffffffffffffffffffffffffffffffffffff1681526020019081526020016000206000820181600001908161073791906133ef565b506001820181600101908161074c91906133ef565b506002820181600201908161076191906133ef565b509050506000600160009054906101000a900473ffffffffffffffffffffffffffffffffffffffff1673ffffffffffffffffffffffffffffffffffffffff16638383e294876040518263ffffffff1660e01b81526004016107c291906135f6565b6020604051808303816000875af11580156107e1573d6000803e3d6000fd5b505050506040513d601f19601f82011682018060405250810190610805919061357d565b9050600180156108125750805b915050949350505050565b60608060606001600260003373ffffffffffffffffffffffffffffffffffffffff1673ffffffffffffffffffffffffffffffffffffffff16815260200190815260200160002060009054906101000a900460ff1660ff161461087e57600080fd5b6000600660008673ffffffffffffffffffffffffffffffffffffffff1673ffffffffffffffffffffffffffffffffffffffff1681526020019081526020016000206040518060600160405290816000820180546108da90613120565b80601f016020809104026020016040519081016040528092919081815260200182805461090690613120565b80156109535780601f1061092857610100808354040283529160200191610953565b820191906000526020600020905b81548152906001019060200180831161093657829003601f168201915b5050505050815260200160018201805461096c90613120565b80601f016020809104026020016040519081016040528092919081815260200182805461099890613120565b80156109e55780601f106109ba576101008083540402835291602001916109e5565b820191906000526020600020905b8154815290600101906020018083116109c857829003601f168201915b505050505081526020016002820180546109fe90613120565b80601f0160208091040260200160405190810160405280929190818152602001828054610a2a90613120565b8015610a775780601f10610a4c57610100808354040283529160200191610a77565b820191906000526020600020905b815481529060010190602001808311610a5a57829003601f168201915b5050505050815250509050806000015181602001518260400151935093509350509193909250565b60008060009054906101000a900473ffffffffffffffffffffffffffffffffffffffff1673ffffffffffffffffffffffffffffffffffffffff163373ffffffffffffffffffffffffffffffffffffffff1614610afa57600080fd5b6000600260008473ffffffffffffffffffffffffffffffffffffffff1673ffffffffffffffffffffffffffffffffffffffff16815260200190815260200160002060006101000a81548160ff021916908360ff1602179055507f9e8ca6ff03906e81e8a6a03d4f96b7edb0b97f0ed9d07ef1b699fff63438549682604051610b8291906130d6565b60405180910390a160019050919050565b60608060608060606001600260003373ffffffffffffffffffffffffffffffffffffffff1673ffffffffffffffffffffffffffffffffffffffff16815260200190815260200160002060009054906101000a900460ff1660ff1614610bf757600080fd5b6000600360008873ffffffffffffffffffffffffffffffffffffffff1673ffffffffffffffffffffffffffffffffffffffff1681526020019081526020016000206040518060a0016040529081600082018054610c5390613120565b80601f0160208091040260200160405190810160405280929190818152602001828054610c7f90613120565b8015610ccc5780601f10610ca157610100808354040283529160200191610ccc565b820191906000526020600020905b815481529060010190602001808311610caf57829003601f168201915b5050505050815260200160018201805480602002602001604051908101604052809291908181526020016000905b82821015610da6578382906000526020600020018054610d1990613120565b80601f0160208091040260200160405190810160405280929190818152602001828054610d4590613120565b8015610d925780601f10610d6757610100808354040283529160200191610d92565b820191906000526020600020905b815481529060010190602001808311610d7557829003601f168201915b505050505081526020019060010190610cfa565b505050508152602001600282018054610dbe90613120565b80601f0160208091040260200160405190810160405280929190818152602001828054610dea90613120565b8015610e375780601f10610e0c57610100808354040283529160200191610e37565b820191906000526020600020905b815481529060010190602001808311610e1a57829003601f168201915b50505050508152602001600382018054610e5090613120565b80601f0160208091040260200160405190810160405280929190818152602001828054610e7c90613120565b8015610ec95780601f10610e9e57610100808354040283529160200191610ec9565b820191906000526020600020905b815481529060010190602001808311610eac57829003601f168201915b50505050508152602001600482018054610ee290613120565b80601f0160208091040260200160405190810160405280929190818152602001828054610f0e90613120565b8015610f5b5780601f10610f3057610100808354040283529160200191610f5b565b820191906000526020600020905b815481529060010190602001808311610f3e57829003601f168201915b505050505081525050905080600001518160200151826040015183606001518460800151955095509550955095505091939590929450565b60608060608060606001600260003373ffffffffffffffffffffffffffffffffffffffff1673ffffffffffffffffffffffffffffffffffffffff16815260200190815260200160002060009054906101000a900460ff1660ff1614610ff757600080fd5b6000600560008873ffffffffffffffffffffffffffffffffffffffff1673ffffffffffffffffffffffffffffffffffffffff1681526020019081526020016000206040518060a001604052908160008201805461105390613120565b80601f016020809104026020016040519081016040528092919081815260200182805461107f90613120565b80156110cc5780601f106110a1576101008083540402835291602001916110cc565b820191906000526020600020905b8154815290600101906020018083116110af57829003601f168201915b5050505050815260200160018201805480602002602001604051908101604052809291908181526020016000905b828210156111a657838290600052602060002001805461111990613120565b80601f016020809104026020016040519081016040528092919081815260200182805461114590613120565b80156111925780601f1061116757610100808354040283529160200191611192565b820191906000526020600020905b81548152906001019060200180831161117557829003601f168201915b5050505050815260200190600101906110fa565b5050505081526020016002820180546111be90613120565b80601f01602080910402602001604051908101604052809291908181526020018280546111ea90613120565b80156112375780601f1061120c57610100808354040283529160200191611237565b820191906000526020600020905b81548152906001019060200180831161121a57829003601f168201915b5050505050815260200160038201805461125090613120565b80601f016020809104026020016040519081016040528092919081815260200182805461127c90613120565b80156112c95780601f1061129e576101008083540402835291602001916112c9565b820191906000526020600020905b8154815290600101906020018083116112ac57829003601f168201915b505050505081526020016004820180546112e290613120565b80601f016020809104026020016040519081016040528092919081815260200182805461130e90613120565b801561135b5780601f106113305761010080835404028352916020019161135b565b820191906000526020600020905b81548152906001019060200180831161133e57829003601f168201915b505050505081525050905080600001518160200151826040015183606001518460800151955095509550955095505091939590929450565b60008060009054906101000a900473ffffffffffffffffffffffffffffffffffffffff1673ffffffffffffffffffffffffffffffffffffffff163373ffffffffffffffffffffffffffffffffffffffff16146113ee57600080fd5b6001600260008473ffffffffffffffffffffffffffffffffffffffff1673ffffffffffffffffffffffffffffffffffffffff16815260200190815260200160002060006101000a81548160ff021916908360ff1602179055507f8afeca650897be3183b7c0d24eba96a1b990f75c4bd74a0cfb2c0a71aec48e618260405161147691906130d6565b60405180910390a160019050919050565b60006001600260003373ffffffffffffffffffffffffffffffffffffffff1673ffffffffffffffffffffffffffffffffffffffff16815260200190815260200160002060009054906101000a900460ff1660ff16146114e557600080fd5b83600d60000190816114f79190613307565b5082600d600101908161150a9190613307565b5081600d600201908161151d9190613307565b50600d600460008773ffffffffffffffffffffffffffffffffffffffff1673ffffffffffffffffffffffffffffffffffffffff1681526020019081526020016000206000820181600001908161157391906133ef565b506001820181600101908161158891906133ef565b506002820181600201908161159d91906133ef565b509050506000600160009054906101000a900473ffffffffffffffffffffffffffffffffffffffff1673ffffffffffffffffffffffffffffffffffffffff16638383e294876040518263ffffffff1660e01b81526004016115fe9190613670565b6020604051808303816000875af115801561161d573d6000803e3d6000fd5b505050506040513d601f19601f82011682018060405250810190611641919061357d565b90506001801561164e5750805b915050949350505050565b60006001600260003373ffffffffffffffffffffffffffffffffffffffff1673ffffffffffffffffffffffffffffffffffffffff16815260200190815260200160002060009054906101000a900460ff1660ff16146116b757600080fd5b85600860000190816116c99190613307565b5084600860010190805190602001906116e3929190612605565b5083600860020190816116f69190613307565b5082600860030190816117099190613307565b50816008600401908161171c9190613307565b506008600360008973ffffffffffffffffffffffffffffffffffffffff1673ffffffffffffffffffffffffffffffffffffffff1681526020019081526020016000206000820181600001908161177291906133ef565b50600182018160010190805461178992919061265e565b506002820181600201908161179e91906133ef565b50600382018160030190816117b391906133ef565b50600482018160040190816117c891906133ef565b509050506000600160009054906101000a900473ffffffffffffffffffffffffffffffffffffffff1673ffffffffffffffffffffffffffffffffffffffff16638383e294896040518263ffffffff1660e01b815260040161182991906136ea565b6020604051808303816000875af1158015611848573d6000803e3d6000fd5b505050506040513d601f19601f8201168201806040525081019061186c919061357d565b9050600180156118795750805b9150509695505050505050565b6060806060806060806060806001600260003373ffffffffffffffffffffffffffffffffffffffff1673ffffffffffffffffffffffffffffffffffffffff16815260200190815260200160002060009054906101000a900460ff1660ff16146118ee57600080fd5b6000600760008b73ffffffffffffffffffffffffffffffffffffffff1673ffffffffffffffffffffffffffffffffffffffff1681526020019081526020016000206040518061010001604052908160008201805480602002602001604051908101604052809291908181526020016000905b82821015611a0c57838290600052602060002001805461197f90613120565b80601f01602080910402602001604051908101604052809291908181526020018280546119ab90613120565b80156119f85780601f106119cd576101008083540402835291602001916119f8565b820191906000526020600020905b8154815290600101906020018083116119db57829003601f168201915b505050505081526020019060010190611960565b505050508152602001600182018054611a2490613120565b80601f0160208091040260200160405190810160405280929190818152602001828054611a5090613120565b8015611a9d5780601f10611a7257610100808354040283529160200191611a9d565b820191906000526020600020905b815481529060010190602001808311611a8057829003601f168201915b50505050508152602001600282018054611ab690613120565b80601f0160208091040260200160405190810160405280929190818152602001828054611ae290613120565b8015611b2f5780601f10611b0457610100808354040283529160200191611b2f565b820191906000526020600020905b815481529060010190602001808311611b1257829003601f168201915b5050505050815260200160038201805480602002602001604051908101604052809291908181526020016000905b82821015611c09578382906000526020600020018054611b7c90613120565b80601f0160208091040260200160405190810160405280929190818152602001828054611ba890613120565b8015611bf55780601f10611bca57610100808354040283529160200191611bf5565b820191906000526020600020905b815481529060010190602001808311611bd857829003601f168201915b505050505081526020019060010190611b5d565b50505050815260200160048201805480602002602001604051908101604052809291908181526020016000905b82821015611ce2578382906000526020600020018054611c5590613120565b80601f0160208091040260200160405190810160405280929190818152602001828054611c8190613120565b8015611cce5780601f10611ca357610100808354040283529160200191611cce565b820191906000526020600020905b815481529060010190602001808311611cb157829003601f168201915b505050505081526020019060010190611c36565b505050508152602001600582018054611cfa90613120565b80601f0160208091040260200160405190810160405280929190818152602001828054611d2690613120565b8015611d735780601f10611d4857610100808354040283529160200191611d73565b820191906000526020600020905b815481529060010190602001808311611d5657829003601f168201915b50505050508152602001600682018054611d8c90613120565b80601f0160208091040260200160405190810160405280929190818152602001828054611db890613120565b8015611e055780601f10611dda57610100808354040283529160200191611e05565b820191906000526020600020905b815481529060010190602001808311611de857829003601f168201915b50505050508152602001600782018054611e1e90613120565b80601f0160208091040260200160405190810160405280929190818152602001828054611e4a90613120565b8015611e975780601f10611e6c57610100808354040283529160200191611e97565b820191906000526020600020905b815481529060010190602001808311611e7a57829003601f168201915b5050505050815250509050806000015181602001518260400151836060015184608001518560a001518660c001518760e001519850985098509850985098509850985050919395975091939597565b60008054906101000a900473ffffffffffffffffffffffffffffffffffffffff1673ffffffffffffffffffffffffffffffffffffffff163373ffffffffffffffffffffffffffffffffffffffff1614611f3e57600080fd5b60008054906101000a900473ffffffffffffffffffffffffffffffffffffffff1673ffffffffffffffffffffffffffffffffffffffff167ff8df31144d9c2f0f6b59d69b8b98abd5459d07f2742c4df920b25aae33c6482060405160405180910390a260008060006101000a81548173ffffffffffffffffffffffffffffffffffffffff021916908373ffffffffffffffffffffffffffffffffffffffff160217905550565b60008054906101000a900473ffffffffffffffffffffffffffffffffffffffff1681565b60608060606001600260003373ffffffffffffffffffffffffffffffffffffffff1673ffffffffffffffffffffffffffffffffffffffff16815260200190815260200160002060009054906101000a900460ff1660ff161461206957600080fd5b6000600460008673ffffffffffffffffffffffffffffffffffffffff1673ffffffffffffffffffffffffffffffffffffffff1681526020019081526020016000206040518060600160405290816000820180546120c590613120565b80601f01602080910402602001604051908101604052809291908181526020018280546120f190613120565b801561213e5780601f106121135761010080835404028352916020019161213e565b820191906000526020600020905b81548152906001019060200180831161212157829003601f168201915b5050505050815260200160018201805461215790613120565b80601f016020809104026020016040519081016040528092919081815260200182805461218390613120565b80156121d05780601f106121a5576101008083540402835291602001916121d0565b820191906000526020600020905b8154815290600101906020018083116121b357829003601f168201915b505050505081526020016002820180546121e990613120565b80601f016020809104026020016040519081016040528092919081815260200182805461221590613120565b80156122625780601f1061223757610100808354040283529160200191612262565b820191906000526020600020905b81548152906001019060200180831161224557829003601f168201915b5050505050815250509050806000015181602001518260400151935093509350509193909250565b60006001600260003373ffffffffffffffffffffffffffffffffffffffff1673ffffffffffffffffffffffffffffffffffffffff16815260200190815260200160002060009054906101000a900460ff1660ff16146122e857600080fd5b85601060000190816122fa9190613307565b508460106001019080519060200190612314929190612605565b5083601060020190816123279190613307565b50826010600301908161233a9190613307565b50816010600401908161234d9190613307565b506010600560008973ffffffffffffffffffffffffffffffffffffffff1673ffffffffffffffffffffffffffffffffffffffff168152602001908152602001600020600082018160000190816123a391906133ef565b5060018201816001019080546123ba92919061265e565b50600282018160020190816123cf91906133ef565b50600382018160030190816123e491906133ef565b50600482018160040190816123f991906133ef565b509050506000600160009054906101000a900473ffffffffffffffffffffffffffffffffffffffff1673ffffffffffffffffffffffffffffffffffffffff16638383e294896040518263ffffffff1660e01b815260040161245a9190613764565b6020604051808303816000875af1158015612479573d6000803e3d6000fd5b505050506040513d601f19601f8201168201806040525081019061249d919061357d565b9050600180156124aa5750805b9150509695505050505050565b60008054906101000a900473ffffffffffffffffffffffffffffffffffffffff1673ffffffffffffffffffffffffffffffffffffffff163373ffffffffffffffffffffffffffffffffffffffff161461250f57600080fd5b600073ffffffffffffffffffffffffffffffffffffffff168173ffffffffffffffffffffffffffffffffffffffff160361254857600080fd5b8073ffffffffffffffffffffffffffffffffffffffff1660008054906101000a900473ffffffffffffffffffffffffffffffffffffffff1673ffffffffffffffffffffffffffffffffffffffff167f8be0079c531659141344cd1fd0a4f28419497f9722a3daafe3b4186f6b6457e060405160405180910390a3806000806101000a81548173ffffffffffffffffffffffffffffffffffffffff021916908373ffffffffffffffffffffffffffffffffffffffff16021790555050565b82805482825590600052602060002090810192821561264d579160200282015b8281111561264c57825182908161263c9190613307565b5091602001919060010190612625565b5b50905061265a91906126bb565b5090565b8280548282559060005260206000209081019282156126aa5760005260206000209182015b828111156126a9578282908161269991906133ef565b5091600101919060010190612683565b5b5090506126b791906126bb565b5090565b5b808211156126db57600081816126d291906126df565b506001016126bc565b5090565b5080546126eb90613120565b6000825580601f106126fd575061271c565b601f01602090049060005260206000209081019061271b919061271f565b5b50565b5b80821115612738576000816000905550600101612720565b5090565b6000604051905090565b600080fd5b600080fd5b600073ffffffffffffffffffffffffffffffffffffffff82169050919050565b600061277b82612750565b9050919050565b61278b81612770565b811461279657600080fd5b50565b6000813590506127a881612782565b92915050565b600080fd5b6000601f19601f8301169050919050565b7f4e487b7100000000000000000000000000000000000000000000000000000000600052604160045260246000fd5b6127fc826127b3565b810181811067ffffffffffffffff8211171561281b5761281a6127c4565b5b80604052505050565b600061282e61273c565b905061283a82826127f3565b919050565b600067ffffffffffffffff82111561285a576128596127c4565b5b602082029050602081019050919050565b600080fd5b600080fd5b600067ffffffffffffffff8211156128905761288f6127c4565b5b612899826127b3565b9050602081019050919050565b82818337600083830152505050565b60006128c86128c384612875565b612824565b9050828152602081018484840111156128e4576128e3612870565b5b6128ef8482856128a6565b509392505050565b600082601f83011261290c5761290b6127ae565b5b813561291c8482602086016128b5565b91505092915050565b60006129386129338461283f565b612824565b9050808382526020820190506020840283018581111561295b5761295a61286b565b5b835b818110156129a257803567ffffffffffffffff8111156129805761297f6127ae565b5b80860161298d89826128f7565b8552602085019450505060208101905061295d565b5050509392505050565b600082601f8301126129c1576129c06127ae565b5b81356129d1848260208601612925565b91505092915050565b60008060008060008060008060006101208a8c0312156129fd576129fc612746565b5b6000612a0b8c828d01612799565b99505060208a013567ffffffffffffffff811115612a2c57612a2b61274b565b5b612a388c828d016129ac565b98505060408a013567ffffffffffffffff811115612a5957612a5861274b565b5b612a658c828d016128f7565b97505060608a013567ffffffffffffffff811115612a8657612a8561274b565b5b612a928c828d016128f7565b96505060808a013567ffffffffffffffff811115612ab357612ab261274b565b5b612abf8c828d016129ac565b95505060a08a013567ffffffffffffffff811115612ae057612adf61274b565b5b612aec8c828d016129ac565b94505060c08a013567ffffffffffffffff811115612b0d57612b0c61274b565b5b612b198c828d016128f7565b93505060e08a013567ffffffffffffffff811115612b3a57612b3961274b565b5b612b468c828d016128f7565b9250506101008a013567ffffffffffffffff811115612b6857612b6761274b565b5b612b748c828d016128f7565b9150509295985092959850929598565b60008115159050919050565b612b9981612b84565b82525050565b6000602082019050612bb46000830184612b90565b92915050565b60008060008060808587031215612bd457612bd3612746565b5b6000612be287828801612799565b945050602085013567ffffffffffffffff811115612c0357612c0261274b565b5b612c0f878288016128f7565b935050604085013567ffffffffffffffff811115612c3057612c2f61274b565b5b612c3c878288016128f7565b925050606085013567ffffffffffffffff811115612c5d57612c5c61274b565b5b612c69878288016128f7565b91505092959194509250565b600060208284031215612c8b57612c8a612746565b5b6000612c9984828501612799565b91505092915050565b600081519050919050565b600082825260208201905092915050565b60005b83811015612cdc578082015181840152602081019050612cc1565b83811115612ceb576000848401525b50505050565b6000612cfc82612ca2565b612d068185612cad565b9350612d16818560208601612cbe565b612d1f816127b3565b840191505092915050565b60006060820190508181036000830152612d448186612cf1565b90508181036020830152612d588185612cf1565b90508181036040830152612d6c8184612cf1565b9050949350505050565b600081519050919050565b600082825260208201905092915050565b6000819050602082019050919050565b600082825260208201905092915050565b6000612dbe82612ca2565b612dc88185612da2565b9350612dd8818560208601612cbe565b612de1816127b3565b840191505092915050565b6000612df88383612db3565b905092915050565b6000602082019050919050565b6000612e1882612d76565b612e228185612d81565b935083602082028501612e3485612d92565b8060005b85811015612e705784840389528151612e518582612dec565b9450612e5c83612e00565b925060208a01995050600181019050612e38565b50829750879550505050505092915050565b600060a0820190508181036000830152612e9c8188612cf1565b90508181036020830152612eb08187612e0d565b90508181036040830152612ec48186612cf1565b90508181036060830152612ed88185612cf1565b90508181036080830152612eec8184612cf1565b90509695505050505050565b60008060008060008060c08789031215612f1557612f14612746565b5b6000612f2389828a01612799565b965050602087013567ffffffffffffffff811115612f4457612f4361274b565b5b612f5089828a016128f7565b955050604087013567ffffffffffffffff811115612f7157612f7061274b565b5b612f7d89828a016129ac565b945050606087013567ffffffffffffffff811115612f9e57612f9d61274b565b5b612faa89828a016128f7565b935050608087013567ffffffffffffffff811115612fcb57612fca61274b565b5b612fd789828a016128f7565b92505060a087013567ffffffffffffffff811115612ff857612ff761274b565b5b61300489828a016128f7565b9150509295509295509295565b600061010082019050818103600083015261302c818b612e0d565b90508181036020830152613040818a612cf1565b905081810360408301526130548189612cf1565b905081810360608301526130688188612e0d565b9050818103608083015261307c8187612e0d565b905081810360a08301526130908186612cf1565b905081810360c08301526130a48185612cf1565b905081810360e08301526130b88184612cf1565b90509998505050505050505050565b6130d081612770565b82525050565b60006020820190506130eb60008301846130c7565b92915050565b7f4e487b7100000000000000000000000000000000000000000000000000000000600052602260045260246000fd5b6000600282049050600182168061313857607f821691505b60208210810361314b5761314a6130f1565b5b50919050565b60008190508160005260206000209050919050565b60006020601f8301049050919050565b600082821b905092915050565b6000600883026131b37fffffffffffffffffffffffffffffffffffffffffffffffffffffffffffffffff82613176565b6131bd8683613176565b95508019841693508086168417925050509392505050565b6000819050919050565b6000819050919050565b60006132046131ff6131fa846131d5565b6131df565b6131d5565b9050919050565b6000819050919050565b61321e836131e9565b61323261322a8261320b565b848454613183565b825550505050565b600090565b61324761323a565b613252818484613215565b505050565b5b818110156132765761326b60008261323f565b600181019050613258565b5050565b601f8211156132bb5761328c81613151565b61329584613166565b810160208510156132a4578190505b6132b86132b085613166565b830182613257565b50505b505050565b600082821c905092915050565b60006132de600019846008026132c0565b1980831691505092915050565b60006132f783836132cd565b9150826002028217905092915050565b61331082612ca2565b67ffffffffffffffff811115613329576133286127c4565b5b6133338254613120565b61333e82828561327a565b600060209050601f831160018114613371576000841561335f578287015190505b61336985826132eb565b8655506133d1565b601f19841661337f86613151565b60005b828110156133a757848901518255600182019150602085019450602081019050613382565b868310156133c457848901516133c0601f8916826132cd565b8355505b6001600288020188555050505b505050505050565b6000815490506133e881613120565b9050919050565b8181036133fd5750506134d5565b613406826133d9565b67ffffffffffffffff81111561341f5761341e6127c4565b5b6134298254613120565b61343482828561327a565b6000601f8311600181146134635760008415613451578287015490505b61345b85826132eb565b8655506134ce565b601f19841661347187613151565b965061347c86613151565b60005b828110156134a45784890154825560018201915060018501945060208101905061347f565b868310156134c157848901546134bd601f8916826132cd565b8355505b6001600288020188555050505b5050505050505b565b7f444f4e4500000000000000000000000000000000000000000000000000000000600082015250565b600061350d600483612cad565b9150613518826134d7565b602082019050919050565b600060408201905061353860008301846130c7565b818103602083015261354981613500565b905092915050565b61355a81612b84565b811461356557600080fd5b50565b60008151905061357781613551565b92915050565b60006020828403121561359357613592612746565b5b60006135a184828501613568565b91505092915050565b7f52455441494c4552000000000000000000000000000000000000000000000000600082015250565b60006135e0600883612cad565b91506135eb826135aa565b602082019050919050565b600060408201905061360b60008301846130c7565b818103602083015261361c816135d3565b905092915050565b7f5041434b45520000000000000000000000000000000000000000000000000000600082015250565b600061365a600683612cad565b915061366582613624565b602082019050919050565b600060408201905061368560008301846130c7565b81810360208301526136968161364d565b905092915050565b7f534849505045525f5041434b4552000000000000000000000000000000000000600082015250565b60006136d4600e83612cad565b91506136df8261369e565b602082019050919050565b60006040820190506136ff60008301846130c7565b8181036020830152613710816136c7565b905092915050565b7f534849505045525f52455441494c455200000000000000000000000000000000600082015250565b600061374e601083612cad565b915061375982613718565b602082019050919050565b600060408201905061377960008301846130c7565b818103602083015261378a81613741565b90509291505056fea2646970667358221220a547c0465040d1aef069e9fe44bdab43e66cf8e5a00be65a1f5de987de09c75564736f6c634300080f0033",
  "immutableReferences": {},
  "source": "//SPDX-License-Identifier: MIT\n\npragma solidity ^0.8.15;\n\nimport \"./SupplyChainStorageOwnable.sol\";\nimport \"./SupplyChainStorage.sol\";\n\ncontract SupplyChainStorage2 is SupplyChainStorageOwnable {\n    SupplyChainStorage supplyChainStorage;\n\n    constructor(address _supplyChainStorage) {\n        authorizedCaller[msg.sender] = 1;\n        emit AuthorizedCaller(msg.sender);\n        supplyChainStorage = SupplyChainStorage(_supplyChainStorage);\n    }\n\n    event AuthorizedCaller(address caller);\n    event DeAuthorizedCaller(address caller);\n\n    modifier onlyAuthCaller() {\n        require(authorizedCaller[msg.sender] == 1);\n        _;\n    }\n\n    mapping(address => uint8) authorizedCaller;\n\n    function authorizeCaller(address _caller) public onlyOwner returns (bool) {\n        authorizedCaller[_caller] = 1;\n        emit AuthorizedCaller(_caller);\n        return true;\n    }\n\n    function deAuthorizeCaller(address _caller)\n        public\n        onlyOwner\n        returns (bool)\n    {\n        authorizedCaller[_caller] = 0;\n        emit DeAuthorizedCaller(_caller);\n        return true;\n    }\n\n    struct Warehousing {\n        string warehouseAddress;\n        string[] latLngWarehouse;\n        string warehouseArrivalDate;\n        string storageTime;\n        string storagePricePerKiloPerTime;\n    }\n\n    struct ShipToPacker {\n        string toPackerTransportType;\n        string warehousePickupDate;\n        string toPackerShippingPrice;\n    }\n\n    struct Pack {\n        string packerAddress;\n        string[] latLngPacker;\n        string packerArrivalDate;\n        string packingDate;\n        string packingPricePerKilo;\n    }\n\n    struct ShipToRetailer {\n        string toRetailerTransportType;\n        string packerPickupDate;\n        string toReatilerShippingPrice;\n    }\n\n    struct Retailer {\n        string[] warehouseSalepointArrivalDate;\n        string warehouseRetailerName;\n        string salepointRetailerName;\n        string[] addressLatLngWarehouseRetailer;\n        string[] addressLatLngSalepointRetailer;\n        string toSalepointTransportType;\n        string toSalepointShippingPrice;\n        string retailerPricePerKilo;\n    }\n\n    mapping(address => Warehousing) batchWarehousing;\n    mapping(address => ShipToPacker) batchShipToPacker;\n    mapping(address => Pack) batchPack;\n    mapping(address => ShipToRetailer) batchShipToRetailer;\n    mapping(address => Retailer) batchRetailer;\n\n    Warehousing warehousingData;\n    ShipToPacker shipPackerData;\n    Pack packData;\n    ShipToRetailer shipRetailerData;\n    Retailer retailerData;\n\n    function setWarehousingData(\n        address batchNo,\n        string memory _warehouseAddress,\n        string[] memory _latLngWarehouse,\n        string memory _warehouseArrivalDate,\n        string memory _storageTime,\n        string memory _storagePricePerKiloPerTime\n    ) public onlyAuthCaller returns (bool) {\n        warehousingData.warehouseAddress = _warehouseAddress;\n        warehousingData.latLngWarehouse = _latLngWarehouse;\n        warehousingData.warehouseArrivalDate = _warehouseArrivalDate;\n        warehousingData.storageTime = _storageTime;\n        warehousingData\n            .storagePricePerKiloPerTime = _storagePricePerKiloPerTime;\n\n        batchWarehousing[batchNo] = warehousingData;\n        bool status = supplyChainStorage.writeNextAction(\n            batchNo,\n            \"SHIPPER_PACKER\"\n        );\n        return (true && status);\n    }\n\n    function getWarehousingData(address batchNo)\n        public\n        view\n        onlyAuthCaller\n        returns (\n            string memory warehouseAddress,\n            string[] memory latLngWarehouse,\n            string memory warehouseArrivalDate,\n            string memory storageTime,\n            string memory storagePricePerKiloPerTime\n        )\n    {\n        Warehousing memory tmpData = batchWarehousing[batchNo];\n        return (\n            tmpData.warehouseAddress,\n            tmpData.latLngWarehouse,\n            tmpData.warehouseArrivalDate,\n            tmpData.storageTime,\n            tmpData.storagePricePerKiloPerTime\n        );\n    }\n\n    function setShipPackerData(\n        address batchNo,\n        string memory _toPackerTransportType,\n        string memory _warehousePickupDate,\n        string memory _toPackerShippingPrice\n    ) public onlyAuthCaller returns (bool) {\n        shipPackerData.toPackerTransportType = _toPackerTransportType;\n        shipPackerData.warehousePickupDate = _warehousePickupDate;\n        shipPackerData.toPackerShippingPrice = _toPackerShippingPrice;\n\n        batchShipToPacker[batchNo] = shipPackerData;\n        bool status = supplyChainStorage.writeNextAction(batchNo, \"PACKER\");\n        return (true && status);\n    }\n\n    function getShipPackerData(address batchNo)\n        public\n        view\n        onlyAuthCaller\n        returns (\n            string memory toPackerTransportType,\n            string memory warehousePickupDate,\n            string memory toPackerShippingPrice\n        )\n    {\n        ShipToPacker memory tmpData = batchShipToPacker[batchNo];\n        return (\n            tmpData.toPackerTransportType,\n            tmpData.warehousePickupDate,\n            tmpData.toPackerShippingPrice\n        );\n    }\n\n    function setPackData(\n        address batchNo,\n        string memory _packerAddress,\n        string[] memory _latLngPacker,\n        string memory _packerArrivalDate,\n        string memory _packingDate,\n        string memory _packingPricePerKilo\n    ) public onlyAuthCaller returns (bool) {\n        packData.packerAddress = _packerAddress;\n        packData.latLngPacker = _latLngPacker;\n        packData.packerArrivalDate = _packerArrivalDate;\n        packData.packingDate = _packingDate;\n        packData.packingPricePerKilo = _packingPricePerKilo;\n\n        batchPack[batchNo] = packData;\n        bool status = supplyChainStorage.writeNextAction(\n            batchNo,\n            \"SHIPPER_RETAILER\"\n        );\n        return (true && status);\n    }\n\n    function getPackData(address batchNo)\n        public\n        view\n        onlyAuthCaller\n        returns (\n            string memory packerAddress,\n            string[] memory latLngPacker,\n            string memory packerArrivalDate,\n            string memory packingDate,\n            string memory packingPricePerKilo\n        )\n    {\n        Pack memory tmpData = batchPack[batchNo];\n        return (\n            tmpData.packerAddress,\n            tmpData.latLngPacker,\n            tmpData.packerArrivalDate,\n            tmpData.packingDate,\n            tmpData.packingPricePerKilo\n        );\n    }\n\n    function setShipRetailerData(\n        address batchNo,\n        string memory _toRetailerTransportType,\n        string memory _packerPickupDate,\n        string memory _toReatilerShippingPrice\n    ) public onlyAuthCaller returns (bool) {\n        shipRetailerData.toRetailerTransportType = _toRetailerTransportType;\n        shipRetailerData.packerPickupDate = _packerPickupDate;\n        shipRetailerData.toReatilerShippingPrice = _toReatilerShippingPrice;\n\n        batchShipToRetailer[batchNo] = shipRetailerData;\n        bool status = supplyChainStorage.writeNextAction(batchNo, \"RETAILER\");\n        return (true && status);\n    }\n\n    function getShipRetailerData(address batchNo)\n        public\n        view\n        onlyAuthCaller\n        returns (\n            string memory toRetailerTransportType,\n            string memory packerPickupDate,\n            string memory toReatilerShippingPrice\n        )\n    {\n        ShipToRetailer memory tmpData = batchShipToRetailer[batchNo];\n        return (\n            tmpData.toRetailerTransportType,\n            tmpData.packerPickupDate,\n            tmpData.toReatilerShippingPrice\n        );\n    }\n\n    function setRetailerData(\n        address batchNo,\n        string[] memory _warehouseSalepointArrivalDate,\n        string memory _warehouseRetailerName,\n        string memory _salepointRetailerName,\n        string[] memory _addressLatLngWarehouseRetailer,\n        string[] memory _addressLatLngSalepointRetailer,\n        string memory _toSalepointTransportType,\n        string memory _toSalepointShippingPrice,\n        string memory _retailerPricePerKilo\n    ) public onlyAuthCaller returns (bool) {\n        retailerData\n            .warehouseSalepointArrivalDate = _warehouseSalepointArrivalDate;\n        retailerData.warehouseRetailerName = _warehouseRetailerName;\n        retailerData.salepointRetailerName = _salepointRetailerName;\n        retailerData\n            .addressLatLngWarehouseRetailer = _addressLatLngWarehouseRetailer;\n        retailerData\n            .addressLatLngSalepointRetailer = _addressLatLngSalepointRetailer;\n        retailerData.toSalepointTransportType = _toSalepointTransportType;\n        retailerData.toSalepointShippingPrice = _toSalepointShippingPrice;\n        retailerData.retailerPricePerKilo = _retailerPricePerKilo;\n\n        batchRetailer[batchNo] = retailerData;\n        bool status = supplyChainStorage.writeNextAction(batchNo, \"DONE\");\n        return (true && status);\n    }\n\n    function getRetailerData(address batchNo)\n        public\n        view\n        onlyAuthCaller\n        returns (\n            string[] memory warehouseSalepointArrivalDate,\n            string memory warehouseRetailerName,\n            string memory salepointRetailerName,\n            string[] memory addressLatLngWarehouseRetailer,\n            string[] memory addressLatLngSalepointRetailer,\n            string memory toSalepointTransportType,\n            string memory toSalepointShippingPrice,\n            string memory retailerPricePerKilo\n        )\n    {\n        Retailer memory tmpData = batchRetailer[batchNo];\n        return (\n            tmpData.warehouseSalepointArrivalDate,\n            tmpData.warehouseRetailerName,\n            tmpData.salepointRetailerName,\n            tmpData.addressLatLngWarehouseRetailer,\n            tmpData.addressLatLngSalepointRetailer,\n            tmpData.toSalepointTransportType,\n            tmpData.toSalepointShippingPrice,\n            tmpData.retailerPricePerKilo\n        );\n    }\n}\n",
  "sourcePath": "/home/nathalia/TESIS/coffee-supply-chain-tracking-system-ethereum/contracts/SupplyChainStorage2.sol",
  "compiler": {
    "name": "solc",
    "version": "0.8.15+commit.e14f2714.Emscripten.clang"
  },
  "schemaVersion": "3.4.4",
  "updatedAt": "2022-08-06T15:11:48.844Z",
  "networkType": "ethereum",
  "devdoc": {
    "kind": "dev",
    "methods": {},
    "version": 1
  },
  "userdoc": {
    "kind": "user",
    "methods": {},
    "version": 1
  }
}