{
  "contractName": "SupplyChainStorage",
  "abi": [
    {
      "inputs": [],
      "stateMutability": "nonpayable",
      "type": "constructor"
    },
    {
      "anonymous": false,
      "inputs": [
        {
          "indexed": false,
          "internalType": "address",
          "name": "caller",
          "type": "address"
        }
      ],
      "name": "AuthorizedCaller",
      "type": "event"
    },
    {
      "anonymous": false,
      "inputs": [
        {
          "indexed": false,
          "internalType": "address",
          "name": "caller",
          "type": "address"
        }
      ],
      "name": "DeAuthorizedCaller",
      "type": "event"
    },
    {
      "anonymous": false,
      "inputs": [
        {
          "indexed": true,
          "internalType": "address",
          "name": "previousOwner",
          "type": "address"
        }
      ],
      "name": "OwnershipRenounced",
      "type": "event"
    },
    {
      "anonymous": false,
      "inputs": [
        {
          "indexed": true,
          "internalType": "address",
          "name": "previusOwner",
          "type": "address"
        },
        {
          "indexed": true,
          "internalType": "address",
          "name": "newOwner",
          "type": "address"
        }
      ],
      "name": "OwnershipTransferred",
      "type": "event"
    },
    {
      "anonymous": false,
      "inputs": [
        {
          "indexed": false,
          "internalType": "address",
          "name": "userAddress",
          "type": "address"
        }
      ],
      "name": "UserRoleUpdate",
      "type": "event"
    },
    {
      "anonymous": false,
      "inputs": [
        {
          "indexed": false,
          "internalType": "address",
          "name": "userAddress",
          "type": "address"
        }
      ],
      "name": "UserUpdate",
      "type": "event"
    },
    {
      "inputs": [],
      "name": "owner",
      "outputs": [
        {
          "internalType": "address",
          "name": "",
          "type": "address"
        }
      ],
      "stateMutability": "view",
      "type": "function",
      "constant": true
    },
    {
      "inputs": [],
      "name": "renounceOwnership",
      "outputs": [],
      "stateMutability": "nonpayable",
      "type": "function"
    },
    {
      "inputs": [
        {
          "internalType": "address",
          "name": "newOwner",
          "type": "address"
        }
      ],
      "name": "transferOwnership",
      "outputs": [],
      "stateMutability": "nonpayable",
      "type": "function"
    },
    {
      "inputs": [
        {
          "internalType": "address",
          "name": "_caller",
          "type": "address"
        }
      ],
      "name": "authorizeCaller",
      "outputs": [
        {
          "internalType": "bool",
          "name": "",
          "type": "bool"
        }
      ],
      "stateMutability": "nonpayable",
      "type": "function"
    },
    {
      "inputs": [
        {
          "internalType": "address",
          "name": "_caller",
          "type": "address"
        }
      ],
      "name": "deAuthorizeCaller",
      "outputs": [
        {
          "internalType": "bool",
          "name": "",
          "type": "bool"
        }
      ],
      "stateMutability": "nonpayable",
      "type": "function"
    },
    {
      "inputs": [
        {
          "internalType": "address",
          "name": "_userAddress",
          "type": "address"
        }
      ],
      "name": "getUserRoles",
      "outputs": [
        {
          "internalType": "string[]",
          "name": "",
          "type": "string[]"
        }
      ],
      "stateMutability": "view",
      "type": "function",
      "constant": true
    },
    {
      "inputs": [
        {
          "internalType": "address",
          "name": "_batchNo",
          "type": "address"
        }
      ],
      "name": "getNextAction",
      "outputs": [
        {
          "internalType": "string",
          "name": "",
          "type": "string"
        }
      ],
      "stateMutability": "view",
      "type": "function",
      "constant": true
    },
    {
      "inputs": [
        {
          "internalType": "address",
          "name": "_batchNo",
          "type": "address"
        },
        {
          "internalType": "string",
          "name": "action",
          "type": "string"
        }
      ],
      "name": "writeNextAction",
      "outputs": [
        {
          "internalType": "bool",
          "name": "",
          "type": "bool"
        }
      ],
      "stateMutability": "nonpayable",
      "type": "function"
    },
    {
      "inputs": [
        {
          "internalType": "address",
          "name": "_userAddress",
          "type": "address"
        },
        {
          "internalType": "string",
          "name": "_name",
          "type": "string"
        },
        {
          "internalType": "string",
          "name": "_email",
          "type": "string"
        },
        {
          "internalType": "string[]",
          "name": "_role",
          "type": "string[]"
        },
        {
          "internalType": "bool",
          "name": "_isActive",
          "type": "bool"
        },
        {
          "internalType": "string",
          "name": "_profileHash",
          "type": "string"
        }
      ],
      "name": "setUser",
      "outputs": [
        {
          "internalType": "bool",
          "name": "",
          "type": "bool"
        }
      ],
      "stateMutability": "nonpayable",
      "type": "function"
    },
    {
      "inputs": [
        {
          "internalType": "address",
          "name": "_userAddress",
          "type": "address"
        }
      ],
      "name": "getUser",
      "outputs": [
        {
          "internalType": "string",
          "name": "name",
          "type": "string"
        },
        {
          "internalType": "string",
          "name": "email",
          "type": "string"
        },
        {
          "internalType": "string[]",
          "name": "role",
          "type": "string[]"
        },
        {
          "internalType": "bool",
          "name": "isActive",
          "type": "bool"
        },
        {
          "internalType": "string",
          "name": "profileHash",
          "type": "string"
        }
      ],
      "stateMutability": "view",
      "type": "function",
      "constant": true
    },
    {
      "inputs": [
        {
          "internalType": "string",
          "name": "_registrationNo",
          "type": "string"
        },
        {
          "internalType": "string",
          "name": "_farmName",
          "type": "string"
        },
        {
          "internalType": "string",
          "name": "_latitude",
          "type": "string"
        },
        {
          "internalType": "string",
          "name": "_longitude",
          "type": "string"
        },
        {
          "internalType": "string",
          "name": "_farmAddress",
          "type": "string"
        }
      ],
      "name": "setFarmDetails",
      "outputs": [
        {
          "internalType": "address",
          "name": "",
          "type": "address"
        }
      ],
      "stateMutability": "nonpayable",
      "type": "function"
    },
    {
      "inputs": [
        {
          "internalType": "address",
          "name": "_batchNo",
          "type": "address"
        }
      ],
      "name": "getFarmDetails",
      "outputs": [
        {
          "internalType": "string",
          "name": "registrationNo",
          "type": "string"
        },
        {
          "internalType": "string",
          "name": "farmName",
          "type": "string"
        },
        {
          "internalType": "string",
          "name": "latitude",
          "type": "string"
        },
        {
          "internalType": "string",
          "name": "longitude",
          "type": "string"
        },
        {
          "internalType": "string",
          "name": "farmAddress",
          "type": "string"
        }
      ],
      "stateMutability": "view",
      "type": "function",
      "constant": true
    },
    {
      "inputs": [
        {
          "internalType": "address",
          "name": "batchNo",
          "type": "address"
        },
        {
          "internalType": "string",
          "name": "_seedSupplier",
          "type": "string"
        },
        {
          "internalType": "string",
          "name": "_typeOfSeed",
          "type": "string"
        },
        {
          "internalType": "string",
          "name": "_coffeeFamily",
          "type": "string"
        },
        {
          "internalType": "string",
          "name": "_fertilizerUsed",
          "type": "string"
        },
        {
          "internalType": "string",
          "name": "_harvestDate",
          "type": "string"
        },
        {
          "internalType": "string",
          "name": "_humidityPercentage",
          "type": "string"
        },
        {
          "internalType": "string",
          "name": "_batchWeight",
          "type": "string"
        }
      ],
      "name": "setHarvestData",
      "outputs": [
        {
          "internalType": "bool",
          "name": "",
          "type": "bool"
        }
      ],
      "stateMutability": "nonpayable",
      "type": "function"
    },
    {
      "inputs": [
        {
          "internalType": "address",
          "name": "batchNo",
          "type": "address"
        }
      ],
      "name": "getHarvestData",
      "outputs": [
        {
          "internalType": "string",
          "name": "seedSupplier",
          "type": "string"
        },
        {
          "internalType": "string",
          "name": "typeOfSeed",
          "type": "string"
        },
        {
          "internalType": "string",
          "name": "coffeeFamily",
          "type": "string"
        },
        {
          "internalType": "string",
          "name": "fertilizerUsed",
          "type": "string"
        },
        {
          "internalType": "string",
          "name": "harvestDate",
          "type": "string"
        },
        {
          "internalType": "string",
          "name": "humidityPercentage",
          "type": "string"
        },
        {
          "internalType": "string",
          "name": "batchWeight",
          "type": "string"
        }
      ],
      "stateMutability": "view",
      "type": "function",
      "constant": true
    },
    {
      "inputs": [
        {
          "internalType": "address",
          "name": "batchNo",
          "type": "address"
        },
        {
          "internalType": "string[]",
          "name": "_addressLatLngProcessor",
          "type": "string[]"
        },
        {
          "internalType": "string",
          "name": "_typeOfDrying",
          "type": "string"
        },
        {
          "internalType": "string",
          "name": "_humidityAfterDrying",
          "type": "string"
        },
        {
          "internalType": "string",
          "name": "_roastImageHash",
          "type": "string"
        },
        {
          "internalType": "string[]",
          "name": "_tempTypeRoast",
          "type": "string[]"
        },
        {
          "internalType": "string[]",
          "name": "_roastMillDates",
          "type": "string[]"
        },
        {
          "internalType": "string",
          "name": "_processorPricePerKilo",
          "type": "string"
        },
        {
          "internalType": "string",
          "name": "_processBatchWeight",
          "type": "string"
        }
      ],
      "name": "setProcessData",
      "outputs": [
        {
          "internalType": "bool",
          "name": "",
          "type": "bool"
        }
      ],
      "stateMutability": "nonpayable",
      "type": "function"
    },
    {
      "inputs": [
        {
          "internalType": "address",
          "name": "batchNo",
          "type": "address"
        }
      ],
      "name": "getProcessData",
      "outputs": [
        {
          "internalType": "string[]",
          "name": "addressLatLngProcessor",
          "type": "string[]"
        },
        {
          "internalType": "string",
          "name": "typeOfDrying",
          "type": "string"
        },
        {
          "internalType": "string",
          "name": "humidityAfterDrying",
          "type": "string"
        },
        {
          "internalType": "string",
          "name": "roastImageHash",
          "type": "string"
        },
        {
          "internalType": "string[]",
          "name": "tempTypeRoast",
          "type": "string[]"
        },
        {
          "internalType": "string[]",
          "name": "roastMillDates",
          "type": "string[]"
        },
        {
          "internalType": "string",
          "name": "processorPricePerKilo",
          "type": "string"
        },
        {
          "internalType": "string",
          "name": "processBatchWeight",
          "type": "string"
        }
      ],
      "stateMutability": "view",
      "type": "function",
      "constant": true
    },
    {
      "inputs": [
        {
          "internalType": "address",
          "name": "batchNo",
          "type": "address"
        },
        {
          "internalType": "string",
          "name": "_tastingScore",
          "type": "string"
        },
        {
          "internalType": "string",
          "name": "_tastingServicePrice",
          "type": "string"
        }
      ],
      "name": "setTasteData",
      "outputs": [
        {
          "internalType": "bool",
          "name": "",
          "type": "bool"
        }
      ],
      "stateMutability": "nonpayable",
      "type": "function"
    },
    {
      "inputs": [
        {
          "internalType": "address",
          "name": "batchNo",
          "type": "address"
        }
      ],
      "name": "getTasteData",
      "outputs": [
        {
          "internalType": "string",
          "name": "tastingScore",
          "type": "string"
        },
        {
          "internalType": "string",
          "name": "tastingServicePrice",
          "type": "string"
        }
      ],
      "stateMutability": "view",
      "type": "function",
      "constant": true
    },
    {
      "inputs": [
        {
          "internalType": "address",
          "name": "batchNo",
          "type": "address"
        },
        {
          "internalType": "string",
          "name": "_beanPricePerKilo",
          "type": "string"
        }
      ],
      "name": "setCoffeeSellData",
      "outputs": [
        {
          "internalType": "bool",
          "name": "",
          "type": "bool"
        }
      ],
      "stateMutability": "nonpayable",
      "type": "function"
    },
    {
      "inputs": [
        {
          "internalType": "address",
          "name": "batchNo",
          "type": "address"
        }
      ],
      "name": "getCoffeeSellData",
      "outputs": [
        {
          "internalType": "string",
          "name": "beanPricePerKilo",
          "type": "string"
        }
      ],
      "stateMutability": "view",
      "type": "function",
      "constant": true
    }
  ],
  "bytecode": "0x60806040523480156200001157600080fd5b50336000806101000a81548173ffffffffffffffffffffffffffffffffffffffff021916908373ffffffffffffffffffffffffffffffffffffffff1602179055506001600360003373ffffffffffffffffffffffffffffffffffffffff1673ffffffffffffffffffffffffffffffffffffffff16815260200190815260200160002060006101000a81548160ff021916908360ff1602179055507f8afeca650897be3183b7c0d24eba96a1b990f75c4bd74a0cfb2c0a71aec48e6133604051620000dc91906200012f565b60405180910390a16200014c565b600073ffffffffffffffffffffffffffffffffffffffff82169050919050565b60006200011782620000ea565b9050919050565b62000129816200010a565b82525050565b60006020820190506200014660008301846200011e565b92915050565b61420c806200015c6000396000f3fe608060405234801561001057600080fd5b506004361061012c5760003560e01c80634d6b5e00116100ad5780638da5cb5b116100715780638da5cb5b146103ec578063a930d17d1461040a578063f2fde38b1461043b578063f9f1bedc14610457578063fb779ea5146104875761012c565b80634d6b5e00146103175780636f77926b14610347578063702a57581461037b578063715018a6146103b25780638383e294146103bc5761012c565b806328da9691116100f457806328da9691146102215780632a7e2433146102515780632c388d5d146102815780632d66b639146102b157806331016cb3146102e15761012c565b806306a36aee1461013157806314f9964a146101615780631752389e146101915780631bcd250a146101c15780631dc66163146101f1575b600080fd5b61014b6004803603810190610146919061301d565b6104bb565b60405161015891906131a5565b60405180910390f35b61017b6004803603810190610176919061341a565b61062f565b6040516101889190613526565b60405180910390f35b6101ab60048036038101906101a69190613541565b610863565b6040516101b89190613526565b60405180910390f35b6101db60048036038101906101d6919061301d565b6109e2565b6040516101e89190613526565b60405180910390f35b61020b600480360381019061020691906135cc565b610ad6565b60405161021891906136e2565b60405180910390f35b61023b600480360381019061023691906136fd565b610d05565b6040516102489190613526565b60405180910390f35b61026b6004803603810190610266919061301d565b610f95565b60405161027891906138f1565b60405180910390f35b61029b6004803603810190610296919061301d565b6110e0565b6040516102a89190613526565b60405180910390f35b6102cb60048036038101906102c69190613913565b6111d4565b6040516102d89190613526565b60405180910390f35b6102fb60048036038101906102f6919061301d565b61132a565b60405161030e979695949392919061396f565b60405180910390f35b610331600480360381019061032c919061301d565b61181a565b60405161033e91906138f1565b60405180910390f35b610361600480360381019061035c919061301d565b611947565b604051610372959493929190613a0f565b60405180910390f35b6103956004803603810190610390919061301d565b611d05565b6040516103a9989796959493929190613a7e565b60405180910390f35b6103ba612365565b005b6103d660048036038101906103d19190613913565b612463565b6040516103e39190613526565b60405180910390f35b6103f4612518565b60405161040191906136e2565b60405180910390f35b610424600480360381019061041f919061301d565b61253c565b604051610432929190613b34565b60405180910390f35b6104556004803603810190610450919061301d565b612721565b005b610471600480360381019061046c9190613b6b565b61286f565b60405161047e9190613526565b60405180910390f35b6104a1600480360381019061049c919061301d565b612abb565b6040516104b2959493929190613ce5565b60405180910390f35b60606001600360003373ffffffffffffffffffffffffffffffffffffffff1673ffffffffffffffffffffffffffffffffffffffff16815260200190815260200160002060009054906101000a900460ff1660ff161461051957600080fd5b600260008373ffffffffffffffffffffffffffffffffffffffff1673ffffffffffffffffffffffffffffffffffffffff168152602001908152602001600020805480602002602001604051908101604052809291908181526020016000905b8282101561062457838290600052602060002001805461059790613d8a565b80601f01602080910402602001604051908101604052809291908181526020018280546105c390613d8a565b80156106105780601f106105e557610100808354040283529160200191610610565b820191906000526020600020905b8154815290600101906020018083116105f357829003601f168201915b505050505081526020019060010190610578565b505050509050919050565b60006001600360003373ffffffffffffffffffffffffffffffffffffffff1673ffffffffffffffffffffffffffffffffffffffff16815260200190815260200160002060009054906101000a900460ff1660ff161461068d57600080fd5b85600a600001908161069f9190613f71565b5084600a60010190816106b29190613f71565b5082600a60020160006101000a81548160ff02191690831515021790555081600a60030190816106e29190613f71565b50600a600160008973ffffffffffffffffffffffffffffffffffffffff1673ffffffffffffffffffffffffffffffffffffffff168152602001908152602001600020600082018160000190816107389190614059565b506001820181600101908161074d9190614059565b506002820160009054906101000a900460ff168160020160006101000a81548160ff0219169083151502179055506003820181600301908161078f9190614059565b5090505083600260008973ffffffffffffffffffffffffffffffffffffffff1673ffffffffffffffffffffffffffffffffffffffff16815260200190815260200160002090805190602001906107e6929190612e74565b507f1d222b775a8ac40f88e57f60a9f9cef32825dee88b7d0a2e757e7dd2082cbe778760405161081691906136e2565b60405180910390a17f5108391b825bd4c3d7f3c6a8d5cb1dfb3d7db4e2663bdef2d6a43643d6c385138760405161084d91906136e2565b60405180910390a1600190509695505050505050565b60006001600360003373ffffffffffffffffffffffffffffffffffffffff1673ffffffffffffffffffffffffffffffffffffffff16815260200190815260200160002060009054906101000a900460ff1660ff16146108c157600080fd5b82602260000190816108d39190613f71565b5081602260010190816108e69190613f71565b506022600760008673ffffffffffffffffffffffffffffffffffffffff1673ffffffffffffffffffffffffffffffffffffffff1681526020019081526020016000206000820181600001908161093c9190614059565b50600182018160010190816109519190614059565b509050506040518060400160405280600681526020017f53454c4c45520000000000000000000000000000000000000000000000000000815250600960008673ffffffffffffffffffffffffffffffffffffffff1673ffffffffffffffffffffffffffffffffffffffff16815260200190815260200160002090816109d69190613f71565b50600190509392505050565b60008060009054906101000a900473ffffffffffffffffffffffffffffffffffffffff1673ffffffffffffffffffffffffffffffffffffffff163373ffffffffffffffffffffffffffffffffffffffff1614610a3d57600080fd5b6000600360008473ffffffffffffffffffffffffffffffffffffffff1673ffffffffffffffffffffffffffffffffffffffff16815260200190815260200160002060006101000a81548160ff021916908360ff1602179055507f9e8ca6ff03906e81e8a6a03d4f96b7edb0b97f0ed9d07ef1b699fff63438549682604051610ac591906136e2565b60405180910390a160019050919050565b60006001600360003373ffffffffffffffffffffffffffffffffffffffff1673ffffffffffffffffffffffffffffffffffffffff16815260200190815260200160002060009054906101000a900460ff1660ff1614610b3457600080fd5b60003342604051602001610b499291906141aa565b6040516020818303038152906040528051906020012060001c9050600081905087600e6000019081610b7b9190613f71565b5086600e6001019081610b8e9190613f71565b5085600e6002019081610ba19190613f71565b5084600e6003019081610bb49190613f71565b5083600e6004019081610bc79190613f71565b50600e600460008373ffffffffffffffffffffffffffffffffffffffff1673ffffffffffffffffffffffffffffffffffffffff16815260200190815260200160002060008201816000019081610c1d9190614059565b5060018201816001019081610c329190614059565b5060028201816002019081610c479190614059565b5060038201816003019081610c5c9190614059565b5060048201816004019081610c719190614059565b509050506040518060400160405280600681526020017f4641524d45520000000000000000000000000000000000000000000000000000815250600960008373ffffffffffffffffffffffffffffffffffffffff1673ffffffffffffffffffffffffffffffffffffffff1681526020019081526020016000209081610cf69190613f71565b50809250505095945050505050565b60006001600360003373ffffffffffffffffffffffffffffffffffffffff1673ffffffffffffffffffffffffffffffffffffffff16815260200190815260200160002060009054906101000a900460ff1660ff1614610d6357600080fd5b88601a6000019080519060200190610d7c929190612e74565b5087601a6001019081610d8f9190613f71565b5086601a6002019081610da29190613f71565b5085601a6003019081610db59190613f71565b5084601a6004019080519060200190610dcf929190612e74565b5083601a6005019080519060200190610de9929190612e74565b5082601a6006019081610dfc9190613f71565b5081601a6007019081610e0f9190613f71565b50601a600660008c73ffffffffffffffffffffffffffffffffffffffff1673ffffffffffffffffffffffffffffffffffffffff1681526020019081526020016000206000820181600001908054610e67929190612ecd565b5060018201816001019081610e7c9190614059565b5060028201816002019081610e919190614059565b5060038201816003019081610ea69190614059565b506004820181600401908054610ebd929190612ecd565b506005820181600501908054610ed4929190612ecd565b5060068201816006019081610ee99190614059565b5060078201816007019081610efe9190614059565b509050506040518060400160405280600681526020017f5441535445520000000000000000000000000000000000000000000000000000815250600960008c73ffffffffffffffffffffffffffffffffffffffff1673ffffffffffffffffffffffffffffffffffffffff1681526020019081526020016000209081610f839190613f71565b50600190509998505050505050505050565b60606001600360003373ffffffffffffffffffffffffffffffffffffffff1673ffffffffffffffffffffffffffffffffffffffff16815260200190815260200160002060009054906101000a900460ff1660ff1614610ff357600080fd5b6000600860008473ffffffffffffffffffffffffffffffffffffffff1673ffffffffffffffffffffffffffffffffffffffff16815260200190815260200160002060405180602001604052908160008201805461104f90613d8a565b80601f016020809104026020016040519081016040528092919081815260200182805461107b90613d8a565b80156110c85780601f1061109d576101008083540402835291602001916110c8565b820191906000526020600020905b8154815290600101906020018083116110ab57829003601f168201915b50505050508152505090508060000151915050919050565b60008060009054906101000a900473ffffffffffffffffffffffffffffffffffffffff1673ffffffffffffffffffffffffffffffffffffffff163373ffffffffffffffffffffffffffffffffffffffff161461113b57600080fd5b6001600360008473ffffffffffffffffffffffffffffffffffffffff1673ffffffffffffffffffffffffffffffffffffffff16815260200190815260200160002060006101000a81548160ff021916908360ff1602179055507f8afeca650897be3183b7c0d24eba96a1b990f75c4bd74a0cfb2c0a71aec48e61826040516111c391906136e2565b60405180910390a160019050919050565b60006001600360003373ffffffffffffffffffffffffffffffffffffffff1673ffffffffffffffffffffffffffffffffffffffff16815260200190815260200160002060009054906101000a900460ff1660ff161461123257600080fd5b81602460000190816112449190613f71565b506024600860008573ffffffffffffffffffffffffffffffffffffffff1673ffffffffffffffffffffffffffffffffffffffff1681526020019081526020016000206000820181600001908161129a9190614059565b509050506040518060400160405280600981526020017f57415245484f5553450000000000000000000000000000000000000000000000815250600960008573ffffffffffffffffffffffffffffffffffffffff1673ffffffffffffffffffffffffffffffffffffffff168152602001908152602001600020908161131f9190613f71565b506001905092915050565b60608060608060608060606001600360003373ffffffffffffffffffffffffffffffffffffffff1673ffffffffffffffffffffffffffffffffffffffff16815260200190815260200160002060009054906101000a900460ff1660ff161461139157600080fd5b6000600560008a73ffffffffffffffffffffffffffffffffffffffff1673ffffffffffffffffffffffffffffffffffffffff1681526020019081526020016000206040518060e00160405290816000820180546113ed90613d8a565b80601f016020809104026020016040519081016040528092919081815260200182805461141990613d8a565b80156114665780601f1061143b57610100808354040283529160200191611466565b820191906000526020600020905b81548152906001019060200180831161144957829003601f168201915b5050505050815260200160018201805461147f90613d8a565b80601f01602080910402602001604051908101604052809291908181526020018280546114ab90613d8a565b80156114f85780601f106114cd576101008083540402835291602001916114f8565b820191906000526020600020905b8154815290600101906020018083116114db57829003601f168201915b5050505050815260200160028201805461151190613d8a565b80601f016020809104026020016040519081016040528092919081815260200182805461153d90613d8a565b801561158a5780601f1061155f5761010080835404028352916020019161158a565b820191906000526020600020905b81548152906001019060200180831161156d57829003601f168201915b505050505081526020016003820180546115a390613d8a565b80601f01602080910402602001604051908101604052809291908181526020018280546115cf90613d8a565b801561161c5780601f106115f15761010080835404028352916020019161161c565b820191906000526020600020905b8154815290600101906020018083116115ff57829003601f168201915b5050505050815260200160048201805461163590613d8a565b80601f016020809104026020016040519081016040528092919081815260200182805461166190613d8a565b80156116ae5780601f10611683576101008083540402835291602001916116ae565b820191906000526020600020905b81548152906001019060200180831161169157829003601f168201915b505050505081526020016005820180546116c790613d8a565b80601f01602080910402602001604051908101604052809291908181526020018280546116f390613d8a565b80156117405780601f1061171557610100808354040283529160200191611740565b820191906000526020600020905b81548152906001019060200180831161172357829003601f168201915b5050505050815260200160068201805461175990613d8a565b80601f016020809104026020016040519081016040528092919081815260200182805461178590613d8a565b80156117d25780601f106117a7576101008083540402835291602001916117d2565b820191906000526020600020905b8154815290600101906020018083116117b557829003601f168201915b5050505050815250509050806000015181602001518260400151836060015184608001518560a001518660c00151975097509750975097509750975050919395979092949650565b60606001600360003373ffffffffffffffffffffffffffffffffffffffff1673ffffffffffffffffffffffffffffffffffffffff16815260200190815260200160002060009054906101000a900460ff1660ff161461187857600080fd5b600960008373ffffffffffffffffffffffffffffffffffffffff1673ffffffffffffffffffffffffffffffffffffffff16815260200190815260200160002080546118c290613d8a565b80601f01602080910402602001604051908101604052809291908181526020018280546118ee90613d8a565b801561193b5780601f106119105761010080835404028352916020019161193b565b820191906000526020600020905b81548152906001019060200180831161191e57829003601f168201915b50505050509050919050565b6060806060600060606001600360003373ffffffffffffffffffffffffffffffffffffffff1673ffffffffffffffffffffffffffffffffffffffff16815260200190815260200160002060009054906101000a900460ff1660ff16146119ac57600080fd5b6000600160008873ffffffffffffffffffffffffffffffffffffffff1673ffffffffffffffffffffffffffffffffffffffff168152602001908152602001600020604051806080016040529081600082018054611a0890613d8a565b80601f0160208091040260200160405190810160405280929190818152602001828054611a3490613d8a565b8015611a815780601f10611a5657610100808354040283529160200191611a81565b820191906000526020600020905b815481529060010190602001808311611a6457829003601f168201915b50505050508152602001600182018054611a9a90613d8a565b80601f0160208091040260200160405190810160405280929190818152602001828054611ac690613d8a565b8015611b135780601f10611ae857610100808354040283529160200191611b13565b820191906000526020600020905b815481529060010190602001808311611af657829003601f168201915b505050505081526020016002820160009054906101000a900460ff16151515158152602001600382018054611b4790613d8a565b80601f0160208091040260200160405190810160405280929190818152602001828054611b7390613d8a565b8015611bc05780601f10611b9557610100808354040283529160200191611bc0565b820191906000526020600020905b815481529060010190602001808311611ba357829003601f168201915b505050505081525050905080600001518160200151600260008a73ffffffffffffffffffffffffffffffffffffffff1673ffffffffffffffffffffffffffffffffffffffff1681526020019081526020016000208360400151846060015182805480602002602001604051908101604052809291908181526020016000905b82821015611ceb578382906000526020600020018054611c5e90613d8a565b80601f0160208091040260200160405190810160405280929190818152602001828054611c8a90613d8a565b8015611cd75780601f10611cac57610100808354040283529160200191611cd7565b820191906000526020600020905b815481529060010190602001808311611cba57829003601f168201915b505050505081526020019060010190611c3f565b505050509250955095509550955095505091939590929450565b6060806060806060806060806001600360003373ffffffffffffffffffffffffffffffffffffffff1673ffffffffffffffffffffffffffffffffffffffff16815260200190815260200160002060009054906101000a900460ff1660ff1614611d6d57600080fd5b6000600660008b73ffffffffffffffffffffffffffffffffffffffff1673ffffffffffffffffffffffffffffffffffffffff1681526020019081526020016000206040518061010001604052908160008201805480602002602001604051908101604052809291908181526020016000905b82821015611e8b578382906000526020600020018054611dfe90613d8a565b80601f0160208091040260200160405190810160405280929190818152602001828054611e2a90613d8a565b8015611e775780601f10611e4c57610100808354040283529160200191611e77565b820191906000526020600020905b815481529060010190602001808311611e5a57829003601f168201915b505050505081526020019060010190611ddf565b505050508152602001600182018054611ea390613d8a565b80601f0160208091040260200160405190810160405280929190818152602001828054611ecf90613d8a565b8015611f1c5780601f10611ef157610100808354040283529160200191611f1c565b820191906000526020600020905b815481529060010190602001808311611eff57829003601f168201915b50505050508152602001600282018054611f3590613d8a565b80601f0160208091040260200160405190810160405280929190818152602001828054611f6190613d8a565b8015611fae5780601f10611f8357610100808354040283529160200191611fae565b820191906000526020600020905b815481529060010190602001808311611f9157829003601f168201915b50505050508152602001600382018054611fc790613d8a565b80601f0160208091040260200160405190810160405280929190818152602001828054611ff390613d8a565b80156120405780601f1061201557610100808354040283529160200191612040565b820191906000526020600020905b81548152906001019060200180831161202357829003601f168201915b5050505050815260200160048201805480602002602001604051908101604052809291908181526020016000905b8282101561211a57838290600052602060002001805461208d90613d8a565b80601f01602080910402602001604051908101604052809291908181526020018280546120b990613d8a565b80156121065780601f106120db57610100808354040283529160200191612106565b820191906000526020600020905b8154815290600101906020018083116120e957829003601f168201915b50505050508152602001906001019061206e565b50505050815260200160058201805480602002602001604051908101604052809291908181526020016000905b828210156121f357838290600052602060002001805461216690613d8a565b80601f016020809104026020016040519081016040528092919081815260200182805461219290613d8a565b80156121df5780601f106121b4576101008083540402835291602001916121df565b820191906000526020600020905b8154815290600101906020018083116121c257829003601f168201915b505050505081526020019060010190612147565b50505050815260200160068201805461220b90613d8a565b80601f016020809104026020016040519081016040528092919081815260200182805461223790613d8a565b80156122845780601f1061225957610100808354040283529160200191612284565b820191906000526020600020905b81548152906001019060200180831161226757829003601f168201915b5050505050815260200160078201805461229d90613d8a565b80601f01602080910402602001604051908101604052809291908181526020018280546122c990613d8a565b80156123165780601f106122eb57610100808354040283529160200191612316565b820191906000526020600020905b8154815290600101906020018083116122f957829003601f168201915b5050505050815250509050806000015181602001518260400151836060015184608001518560a001518660c001518760e001519850985098509850985098509850985050919395975091939597565b60008054906101000a900473ffffffffffffffffffffffffffffffffffffffff1673ffffffffffffffffffffffffffffffffffffffff163373ffffffffffffffffffffffffffffffffffffffff16146123bd57600080fd5b60008054906101000a900473ffffffffffffffffffffffffffffffffffffffff1673ffffffffffffffffffffffffffffffffffffffff167ff8df31144d9c2f0f6b59d69b8b98abd5459d07f2742c4df920b25aae33c6482060405160405180910390a260008060006101000a81548173ffffffffffffffffffffffffffffffffffffffff021916908373ffffffffffffffffffffffffffffffffffffffff160217905550565b60006001600360003373ffffffffffffffffffffffffffffffffffffffff1673ffffffffffffffffffffffffffffffffffffffff16815260200190815260200160002060009054906101000a900460ff1660ff16146124c157600080fd5b81600960008573ffffffffffffffffffffffffffffffffffffffff1673ffffffffffffffffffffffffffffffffffffffff168152602001908152602001600020908161250d9190613f71565b506001905092915050565b60008054906101000a900473ffffffffffffffffffffffffffffffffffffffff1681565b6060806001600360003373ffffffffffffffffffffffffffffffffffffffff1673ffffffffffffffffffffffffffffffffffffffff16815260200190815260200160002060009054906101000a900460ff1660ff161461259b57600080fd5b6000600760008573ffffffffffffffffffffffffffffffffffffffff1673ffffffffffffffffffffffffffffffffffffffff1681526020019081526020016000206040518060400160405290816000820180546125f790613d8a565b80601f016020809104026020016040519081016040528092919081815260200182805461262390613d8a565b80156126705780601f1061264557610100808354040283529160200191612670565b820191906000526020600020905b81548152906001019060200180831161265357829003601f168201915b5050505050815260200160018201805461268990613d8a565b80601f01602080910402602001604051908101604052809291908181526020018280546126b590613d8a565b80156127025780601f106126d757610100808354040283529160200191612702565b820191906000526020600020905b8154815290600101906020018083116126e557829003601f168201915b5050505050815250509050806000015181602001519250925050915091565b60008054906101000a900473ffffffffffffffffffffffffffffffffffffffff1673ffffffffffffffffffffffffffffffffffffffff163373ffffffffffffffffffffffffffffffffffffffff161461277957600080fd5b600073ffffffffffffffffffffffffffffffffffffffff168173ffffffffffffffffffffffffffffffffffffffff16036127b257600080fd5b8073ffffffffffffffffffffffffffffffffffffffff1660008054906101000a900473ffffffffffffffffffffffffffffffffffffffff1673ffffffffffffffffffffffffffffffffffffffff167f8be0079c531659141344cd1fd0a4f28419497f9722a3daafe3b4186f6b6457e060405160405180910390a3806000806101000a81548173ffffffffffffffffffffffffffffffffffffffff021916908373ffffffffffffffffffffffffffffffffffffffff16021790555050565b60006001600360003373ffffffffffffffffffffffffffffffffffffffff1673ffffffffffffffffffffffffffffffffffffffff16815260200190815260200160002060009054906101000a900460ff1660ff16146128cd57600080fd5b87601360000190816128df9190613f71565b5086601360010190816128f29190613f71565b5085601360020190816129059190613f71565b5084601360030190816129189190613f71565b50836013600401908161292b9190613f71565b50826013600501908161293e9190613f71565b5081601360060190816129519190613f71565b506013600560008b73ffffffffffffffffffffffffffffffffffffffff1673ffffffffffffffffffffffffffffffffffffffff168152602001908152602001600020600082018160000190816129a79190614059565b50600182018160010190816129bc9190614059565b50600282018160020190816129d19190614059565b50600382018160030190816129e69190614059565b50600482018160040190816129fb9190614059565b5060058201816005019081612a109190614059565b5060068201816006019081612a259190614059565b509050506040518060400160405280600981526020017f50524f434553534f520000000000000000000000000000000000000000000000815250600960008b73ffffffffffffffffffffffffffffffffffffffff1673ffffffffffffffffffffffffffffffffffffffff1681526020019081526020016000209081612aaa9190613f71565b506001905098975050505050505050565b60608060608060606001600360003373ffffffffffffffffffffffffffffffffffffffff1673ffffffffffffffffffffffffffffffffffffffff16815260200190815260200160002060009054906101000a900460ff1660ff1614612b1f57600080fd5b6000600460008873ffffffffffffffffffffffffffffffffffffffff1673ffffffffffffffffffffffffffffffffffffffff1681526020019081526020016000206040518060a0016040529081600082018054612b7b90613d8a565b80601f0160208091040260200160405190810160405280929190818152602001828054612ba790613d8a565b8015612bf45780601f10612bc957610100808354040283529160200191612bf4565b820191906000526020600020905b815481529060010190602001808311612bd757829003601f168201915b50505050508152602001600182018054612c0d90613d8a565b80601f0160208091040260200160405190810160405280929190818152602001828054612c3990613d8a565b8015612c865780601f10612c5b57610100808354040283529160200191612c86565b820191906000526020600020905b815481529060010190602001808311612c6957829003601f168201915b50505050508152602001600282018054612c9f90613d8a565b80601f0160208091040260200160405190810160405280929190818152602001828054612ccb90613d8a565b8015612d185780601f10612ced57610100808354040283529160200191612d18565b820191906000526020600020905b815481529060010190602001808311612cfb57829003601f168201915b50505050508152602001600382018054612d3190613d8a565b80601f0160208091040260200160405190810160405280929190818152602001828054612d5d90613d8a565b8015612daa5780601f10612d7f57610100808354040283529160200191612daa565b820191906000526020600020905b815481529060010190602001808311612d8d57829003601f168201915b50505050508152602001600482018054612dc390613d8a565b80601f0160208091040260200160405190810160405280929190818152602001828054612def90613d8a565b8015612e3c5780601f10612e1157610100808354040283529160200191612e3c565b820191906000526020600020905b815481529060010190602001808311612e1f57829003601f168201915b505050505081525050905080600001518160200151826040015183606001518460800151955095509550955095505091939590929450565b828054828255906000526020600020908101928215612ebc579160200282015b82811115612ebb578251829081612eab9190613f71565b5091602001919060010190612e94565b5b509050612ec99190612f2a565b5090565b828054828255906000526020600020908101928215612f195760005260206000209182015b82811115612f185782829081612f089190614059565b5091600101919060010190612ef2565b5b509050612f269190612f2a565b5090565b5b80821115612f4a5760008181612f419190612f4e565b50600101612f2b565b5090565b508054612f5a90613d8a565b6000825580601f10612f6c5750612f8b565b601f016020900490600052602060002090810190612f8a9190612f8e565b5b50565b5b80821115612fa7576000816000905550600101612f8f565b5090565b6000604051905090565b600080fd5b600080fd5b600073ffffffffffffffffffffffffffffffffffffffff82169050919050565b6000612fea82612fbf565b9050919050565b612ffa81612fdf565b811461300557600080fd5b50565b60008135905061301781612ff1565b92915050565b60006020828403121561303357613032612fb5565b5b600061304184828501613008565b91505092915050565b600081519050919050565b600082825260208201905092915050565b6000819050602082019050919050565b600081519050919050565b600082825260208201905092915050565b60005b838110156130b0578082015181840152602081019050613095565b838111156130bf576000848401525b50505050565b6000601f19601f8301169050919050565b60006130e182613076565b6130eb8185613081565b93506130fb818560208601613092565b613104816130c5565b840191505092915050565b600061311b83836130d6565b905092915050565b6000602082019050919050565b600061313b8261304a565b6131458185613055565b93508360208202850161315785613066565b8060005b858110156131935784840389528151613174858261310f565b945061317f83613123565b925060208a0199505060018101905061315b565b50829750879550505050505092915050565b600060208201905081810360008301526131bf8184613130565b905092915050565b600080fd5b600080fd5b7f4e487b7100000000000000000000000000000000000000000000000000000000600052604160045260246000fd5b613209826130c5565b810181811067ffffffffffffffff82111715613228576132276131d1565b5b80604052505050565b600061323b612fab565b90506132478282613200565b919050565b600067ffffffffffffffff821115613267576132666131d1565b5b613270826130c5565b9050602081019050919050565b82818337600083830152505050565b600061329f61329a8461324c565b613231565b9050828152602081018484840111156132bb576132ba6131cc565b5b6132c684828561327d565b509392505050565b600082601f8301126132e3576132e26131c7565b5b81356132f384826020860161328c565b91505092915050565b600067ffffffffffffffff821115613317576133166131d1565b5b602082029050602081019050919050565b600080fd5b600061334061333b846132fc565b613231565b9050808382526020820190506020840283018581111561336357613362613328565b5b835b818110156133aa57803567ffffffffffffffff811115613388576133876131c7565b5b80860161339589826132ce565b85526020850194505050602081019050613365565b5050509392505050565b600082601f8301126133c9576133c86131c7565b5b81356133d984826020860161332d565b91505092915050565b60008115159050919050565b6133f7816133e2565b811461340257600080fd5b50565b600081359050613414816133ee565b92915050565b60008060008060008060c0878903121561343757613436612fb5565b5b600061344589828a01613008565b965050602087013567ffffffffffffffff81111561346657613465612fba565b5b61347289828a016132ce565b955050604087013567ffffffffffffffff81111561349357613492612fba565b5b61349f89828a016132ce565b945050606087013567ffffffffffffffff8111156134c0576134bf612fba565b5b6134cc89828a016133b4565b93505060806134dd89828a01613405565b92505060a087013567ffffffffffffffff8111156134fe576134fd612fba565b5b61350a89828a016132ce565b9150509295509295509295565b613520816133e2565b82525050565b600060208201905061353b6000830184613517565b92915050565b60008060006060848603121561355a57613559612fb5565b5b600061356886828701613008565b935050602084013567ffffffffffffffff81111561358957613588612fba565b5b613595868287016132ce565b925050604084013567ffffffffffffffff8111156135b6576135b5612fba565b5b6135c2868287016132ce565b9150509250925092565b600080600080600060a086880312156135e8576135e7612fb5565b5b600086013567ffffffffffffffff81111561360657613605612fba565b5b613612888289016132ce565b955050602086013567ffffffffffffffff81111561363357613632612fba565b5b61363f888289016132ce565b945050604086013567ffffffffffffffff8111156136605761365f612fba565b5b61366c888289016132ce565b935050606086013567ffffffffffffffff81111561368d5761368c612fba565b5b613699888289016132ce565b925050608086013567ffffffffffffffff8111156136ba576136b9612fba565b5b6136c6888289016132ce565b9150509295509295909350565b6136dc81612fdf565b82525050565b60006020820190506136f760008301846136d3565b92915050565b60008060008060008060008060006101208a8c0312156137205761371f612fb5565b5b600061372e8c828d01613008565b99505060208a013567ffffffffffffffff81111561374f5761374e612fba565b5b61375b8c828d016133b4565b98505060408a013567ffffffffffffffff81111561377c5761377b612fba565b5b6137888c828d016132ce565b97505060608a013567ffffffffffffffff8111156137a9576137a8612fba565b5b6137b58c828d016132ce565b96505060808a013567ffffffffffffffff8111156137d6576137d5612fba565b5b6137e28c828d016132ce565b95505060a08a013567ffffffffffffffff81111561380357613802612fba565b5b61380f8c828d016133b4565b94505060c08a013567ffffffffffffffff8111156138305761382f612fba565b5b61383c8c828d016133b4565b93505060e08a013567ffffffffffffffff81111561385d5761385c612fba565b5b6138698c828d016132ce565b9250506101008a013567ffffffffffffffff81111561388b5761388a612fba565b5b6138978c828d016132ce565b9150509295985092959850929598565b600082825260208201905092915050565b60006138c382613076565b6138cd81856138a7565b93506138dd818560208601613092565b6138e6816130c5565b840191505092915050565b6000602082019050818103600083015261390b81846138b8565b905092915050565b6000806040838503121561392a57613929612fb5565b5b600061393885828601613008565b925050602083013567ffffffffffffffff81111561395957613958612fba565b5b613965858286016132ce565b9150509250929050565b600060e0820190508181036000830152613989818a6138b8565b9050818103602083015261399d81896138b8565b905081810360408301526139b181886138b8565b905081810360608301526139c581876138b8565b905081810360808301526139d981866138b8565b905081810360a08301526139ed81856138b8565b905081810360c0830152613a0181846138b8565b905098975050505050505050565b600060a0820190508181036000830152613a2981886138b8565b90508181036020830152613a3d81876138b8565b90508181036040830152613a518186613130565b9050613a606060830185613517565b8181036080830152613a7281846138b8565b90509695505050505050565b6000610100820190508181036000830152613a99818b613130565b90508181036020830152613aad818a6138b8565b90508181036040830152613ac181896138b8565b90508181036060830152613ad581886138b8565b90508181036080830152613ae98187613130565b905081810360a0830152613afd8186613130565b905081810360c0830152613b1181856138b8565b905081810360e0830152613b2581846138b8565b90509998505050505050505050565b60006040820190508181036000830152613b4e81856138b8565b90508181036020830152613b6281846138b8565b90509392505050565b600080600080600080600080610100898b031215613b8c57613b8b612fb5565b5b6000613b9a8b828c01613008565b985050602089013567ffffffffffffffff811115613bbb57613bba612fba565b5b613bc78b828c016132ce565b975050604089013567ffffffffffffffff811115613be857613be7612fba565b5b613bf48b828c016132ce565b965050606089013567ffffffffffffffff811115613c1557613c14612fba565b5b613c218b828c016132ce565b955050608089013567ffffffffffffffff811115613c4257613c41612fba565b5b613c4e8b828c016132ce565b94505060a089013567ffffffffffffffff811115613c6f57613c6e612fba565b5b613c7b8b828c016132ce565b93505060c089013567ffffffffffffffff811115613c9c57613c9b612fba565b5b613ca88b828c016132ce565b92505060e089013567ffffffffffffffff811115613cc957613cc8612fba565b5b613cd58b828c016132ce565b9150509295985092959890939650565b600060a0820190508181036000830152613cff81886138b8565b90508181036020830152613d1381876138b8565b90508181036040830152613d2781866138b8565b90508181036060830152613d3b81856138b8565b90508181036080830152613d4f81846138b8565b90509695505050505050565b7f4e487b7100000000000000000000000000000000000000000000000000000000600052602260045260246000fd5b60006002820490506001821680613da257607f821691505b602082108103613db557613db4613d5b565b5b50919050565b60008190508160005260206000209050919050565b60006020601f8301049050919050565b600082821b905092915050565b600060088302613e1d7fffffffffffffffffffffffffffffffffffffffffffffffffffffffffffffffff82613de0565b613e278683613de0565b95508019841693508086168417925050509392505050565b6000819050919050565b6000819050919050565b6000613e6e613e69613e6484613e3f565b613e49565b613e3f565b9050919050565b6000819050919050565b613e8883613e53565b613e9c613e9482613e75565b848454613ded565b825550505050565b600090565b613eb1613ea4565b613ebc818484613e7f565b505050565b5b81811015613ee057613ed5600082613ea9565b600181019050613ec2565b5050565b601f821115613f2557613ef681613dbb565b613eff84613dd0565b81016020851015613f0e578190505b613f22613f1a85613dd0565b830182613ec1565b50505b505050565b600082821c905092915050565b6000613f4860001984600802613f2a565b1980831691505092915050565b6000613f618383613f37565b9150826002028217905092915050565b613f7a82613076565b67ffffffffffffffff811115613f9357613f926131d1565b5b613f9d8254613d8a565b613fa8828285613ee4565b600060209050601f831160018114613fdb5760008415613fc9578287015190505b613fd38582613f55565b86555061403b565b601f198416613fe986613dbb565b60005b8281101561401157848901518255600182019150602085019450602081019050613fec565b8683101561402e578489015161402a601f891682613f37565b8355505b6001600288020188555050505b505050505050565b60008154905061405281613d8a565b9050919050565b81810361406757505061413f565b61407082614043565b67ffffffffffffffff811115614089576140886131d1565b5b6140938254613d8a565b61409e828285613ee4565b6000601f8311600181146140cd57600084156140bb578287015490505b6140c58582613f55565b865550614138565b601f1984166140db87613dbb565b96506140e686613dbb565b60005b8281101561410e578489015482556001820191506001850194506020810190506140e9565b8683101561412b5784890154614127601f891682613f37565b8355505b6001600288020188555050505b5050505050505b565b60008160601b9050919050565b600061415982614141565b9050919050565b600061416b8261414e565b9050919050565b61418361417e82612fdf565b614160565b82525050565b6000819050919050565b6141a461419f82613e3f565b614189565b82525050565b60006141b68285614172565b6014820191506141c68284614193565b602082019150819050939250505056fea2646970667358221220c93716ebf3041dff0b966dff4df2c9d310d99f45cee140a87d38ccec4d39053164736f6c634300080f0033",
  "immutableReferences": {},
  "source": "//SPDX-License-Identifier: MIT\n\npragma solidity ^0.8.15;\n\nimport \"./SupplyChainStorageOwnable.sol\";\n\ncontract SupplyChainStorage is SupplyChainStorageOwnable {\n    constructor() {\n        authorizedCaller[msg.sender] = 1;\n        emit AuthorizedCaller(msg.sender);\n    }\n\n    event AuthorizedCaller(address caller);\n    event DeAuthorizedCaller(address caller);\n\n    event UserUpdate(address userAddress);\n    event UserRoleUpdate(address userAddress);\n\n    modifier onlyAuthCaller() {\n        require(authorizedCaller[msg.sender] == 1);\n        _;\n    }\n\n    struct User {\n        string name;\n        string email;\n        bool isActive;\n        string profileHash;\n    }\n\n    mapping(address => User) userDetails;\n    mapping(address => string[]) userRole;\n\n    mapping(address => uint8) authorizedCaller;\n\n    function authorizeCaller(address _caller) public onlyOwner returns (bool) {\n        authorizedCaller[_caller] = 1;\n        emit AuthorizedCaller(_caller);\n        return true;\n    }\n\n    function deAuthorizeCaller(address _caller)\n        public\n        onlyOwner\n        returns (bool)\n    {\n        authorizedCaller[_caller] = 0;\n        emit DeAuthorizedCaller(_caller);\n        return true;\n    }\n\n    struct FarmDetails {\n        string registrationNo;\n        string farmName;\n        string latitude;\n        string longitude;\n        string farmAddress;\n    }\n\n    struct Harvest {\n        string seedSupplier;\n        string typeOfSeed;\n        string coffeeFamily;\n        string fertilizerUsed;\n        string harvestDate;\n        string humidityPercentage;\n        string batchWeight;\n    }\n\n    struct Process {\n        string[] addressLatLngProcessor;\n        string typeOfDrying;\n        string humidityAfterDrying;\n        string roastImageHash;\n        string[] tempTypeRoast;\n        string[] roastMillDates;\n        string processorPricePerKilo;\n        string processBatchWeight;\n    }\n\n    struct Taste {\n        string tastingScore;\n        string tastingServicePrice;\n    }\n\n    struct CoffeeSell {\n        string beanPricePerKilo;\n    }\n\n    mapping(address => FarmDetails) batchFarmDetails;\n    mapping(address => Harvest) batchHarvest;\n    mapping(address => Process) batchProcess;\n    mapping(address => Taste) batchTaste;\n    mapping(address => CoffeeSell) batchCoffeSell;\n    mapping(address => string) nextAction;\n\n    User userData;\n    FarmDetails farmDetailsData;\n    Harvest harvestData;\n    Process processData;\n    Taste tasteData;\n    CoffeeSell coffeeSellData;\n\n    function getUserRoles(address _userAddress)\n        public\n        view\n        onlyAuthCaller\n        returns (string[] memory)\n    {\n        return userRole[_userAddress];\n    }\n\n    function getNextAction(address _batchNo)\n        public\n        view\n        onlyAuthCaller\n        returns (string memory)\n    {\n        return nextAction[_batchNo];\n    }\n\n    function writeNextAction(address _batchNo, string memory action)\n        public\n        onlyAuthCaller\n        returns (bool)\n    {\n        nextAction[_batchNo] = action;\n\n        return true;\n    }\n\n    function setUser(\n        address _userAddress,\n        string memory _name,\n        string memory _email,\n        string[] memory _role,\n        bool _isActive,\n        string memory _profileHash\n    ) public onlyAuthCaller returns (bool) {\n        userData.name = _name;\n        userData.email = _email;\n        userData.isActive = _isActive;\n        userData.profileHash = _profileHash;\n\n        userDetails[_userAddress] = userData;\n        userRole[_userAddress] = _role;\n\n        emit UserUpdate(_userAddress);\n        emit UserRoleUpdate(_userAddress);\n        return true;\n    }\n\n    function getUser(address _userAddress)\n        public\n        view\n        onlyAuthCaller\n        returns (\n            string memory name,\n            string memory email,\n            string[] memory role,\n            bool isActive,\n            string memory profileHash\n        )\n    {\n        User memory tmpData = userDetails[_userAddress];\n        return (\n            tmpData.name,\n            tmpData.email,\n            userRole[_userAddress],\n            tmpData.isActive,\n            tmpData.profileHash\n        );\n    }\n\n    function setFarmDetails(\n        string memory _registrationNo,\n        string memory _farmName,\n        string memory _latitude,\n        string memory _longitude,\n        string memory _farmAddress\n    ) public onlyAuthCaller returns (address) {\n        uint256 tmpData = uint256(\n            keccak256(abi.encodePacked(msg.sender, block.timestamp))\n        );\n        address batchNo = address(uint160(tmpData));\n\n        farmDetailsData.registrationNo = _registrationNo;\n        farmDetailsData.farmName = _farmName;\n        farmDetailsData.latitude = _latitude;\n        farmDetailsData.longitude = _longitude;\n        farmDetailsData.farmAddress = _farmAddress;\n\n        batchFarmDetails[batchNo] = farmDetailsData;\n        nextAction[batchNo] = \"FARMER\";\n        return batchNo;\n    }\n\n    function getFarmDetails(address _batchNo)\n        public\n        view\n        onlyAuthCaller\n        returns (\n            string memory registrationNo,\n            string memory farmName,\n            string memory latitude,\n            string memory longitude,\n            string memory farmAddress\n        )\n    {\n        FarmDetails memory tmpData = batchFarmDetails[_batchNo];\n\n        return (\n            tmpData.registrationNo,\n            tmpData.farmName,\n            tmpData.latitude,\n            tmpData.longitude,\n            tmpData.farmAddress\n        );\n    }\n\n    function setHarvestData(\n        address batchNo,\n        string memory _seedSupplier,\n        string memory _typeOfSeed,\n        string memory _coffeeFamily,\n        string memory _fertilizerUsed,\n        string memory _harvestDate,\n        string memory _humidityPercentage,\n        string memory _batchWeight\n    ) public onlyAuthCaller returns (bool) {\n        harvestData.seedSupplier = _seedSupplier;\n        harvestData.typeOfSeed = _typeOfSeed;\n        harvestData.coffeeFamily = _coffeeFamily;\n        harvestData.fertilizerUsed = _fertilizerUsed;\n        harvestData.harvestDate = _harvestDate;\n        harvestData.humidityPercentage = _humidityPercentage;\n        harvestData.batchWeight = _batchWeight;\n\n        batchHarvest[batchNo] = harvestData;\n        nextAction[batchNo] = \"PROCESSOR\";\n        return true;\n    }\n\n    function getHarvestData(address batchNo)\n        public\n        view\n        onlyAuthCaller\n        returns (\n            string memory seedSupplier,\n            string memory typeOfSeed,\n            string memory coffeeFamily,\n            string memory fertilizerUsed,\n            string memory harvestDate,\n            string memory humidityPercentage,\n            string memory batchWeight\n        )\n    {\n        Harvest memory tmpData = batchHarvest[batchNo];\n        return (\n            tmpData.seedSupplier,\n            tmpData.typeOfSeed,\n            tmpData.coffeeFamily,\n            tmpData.fertilizerUsed,\n            tmpData.harvestDate,\n            tmpData.humidityPercentage,\n            tmpData.batchWeight\n        );\n    }\n\n    function setProcessData(\n        address batchNo,\n        string[] memory _addressLatLngProcessor,\n        string memory _typeOfDrying,\n        string memory _humidityAfterDrying,\n        string memory _roastImageHash,\n        string[] memory _tempTypeRoast,\n        string[] memory _roastMillDates,\n        string memory _processorPricePerKilo,\n        string memory _processBatchWeight\n    ) public onlyAuthCaller returns (bool) {\n        processData.addressLatLngProcessor = _addressLatLngProcessor;\n        processData.typeOfDrying = _typeOfDrying;\n        processData.humidityAfterDrying = _humidityAfterDrying;\n        processData.roastImageHash = _roastImageHash;\n        processData.tempTypeRoast = _tempTypeRoast;\n        processData.roastMillDates = _roastMillDates;\n        processData.processorPricePerKilo = _processorPricePerKilo;\n        processData.processBatchWeight = _processBatchWeight;\n\n        batchProcess[batchNo] = processData;\n\n        nextAction[batchNo] = \"TASTER\";\n        return (true);\n    }\n\n    function getProcessData(address batchNo)\n        public\n        view\n        onlyAuthCaller\n        returns (\n            string[] memory addressLatLngProcessor,\n            string memory typeOfDrying,\n            string memory humidityAfterDrying,\n            string memory roastImageHash,\n            string[] memory tempTypeRoast,\n            string[] memory roastMillDates,\n            string memory processorPricePerKilo,\n            string memory processBatchWeight\n        )\n    {\n        Process memory tmpData = batchProcess[batchNo];\n        return (\n            tmpData.addressLatLngProcessor,\n            tmpData.typeOfDrying,\n            tmpData.humidityAfterDrying,\n            tmpData.roastImageHash,\n            tmpData.tempTypeRoast,\n            tmpData.roastMillDates,\n            tmpData.processorPricePerKilo,\n            tmpData.processBatchWeight\n        );\n    }\n\n    function setTasteData(\n        address batchNo,\n        string memory _tastingScore,\n        string memory _tastingServicePrice\n    ) public onlyAuthCaller returns (bool) {\n        tasteData.tastingScore = _tastingScore;\n        tasteData.tastingServicePrice = _tastingServicePrice;\n\n        batchTaste[batchNo] = tasteData;\n        nextAction[batchNo] = \"SELLER\";\n        return true;\n    }\n\n    function getTasteData(address batchNo)\n        public\n        view\n        onlyAuthCaller\n        returns (string memory tastingScore, string memory tastingServicePrice)\n    {\n        Taste memory tmpData = batchTaste[batchNo];\n        return (tmpData.tastingScore, tmpData.tastingServicePrice);\n    }\n\n    function setCoffeeSellData(address batchNo, string memory _beanPricePerKilo)\n        public\n        onlyAuthCaller\n        returns (bool)\n    {\n        coffeeSellData.beanPricePerKilo = _beanPricePerKilo;\n\n        batchCoffeSell[batchNo] = coffeeSellData;\n        nextAction[batchNo] = \"WAREHOUSE\";\n        return true;\n    }\n\n    function getCoffeeSellData(address batchNo)\n        public\n        view\n        onlyAuthCaller\n        returns (string memory beanPricePerKilo)\n    {\n        CoffeeSell memory tmpData = batchCoffeSell[batchNo];\n        return (tmpData.beanPricePerKilo);\n    }\n}\n",
  "sourcePath": "/home/nathalia/TESIS/coffee-supply-chain-tracking-system-ethereum/contracts/SupplyChainStorage.sol",
  "compiler": {
    "name": "solc",
    "version": "0.8.15+commit.e14f2714.Emscripten.clang"
  },
  "schemaVersion": "3.4.4",
  "updatedAt": "2022-08-04T04:13:50.067Z",
  "networkType": "ethereum",
  "devdoc": {
    "kind": "dev",
    "methods": {},
    "version": 1
  },
  "userdoc": {
    "kind": "user",
    "methods": {},
    "version": 1
  }
}