{
  "contractName": "SupplyChainStorage2",
  "abi": [
    {
      "inputs": [
        {
          "internalType": "address",
          "name": "_supplyChainStorage",
          "type": "address"
        }
      ],
      "stateMutability": "nonpayable",
      "type": "constructor"
    },
    {
      "anonymous": false,
      "inputs": [
        {
          "indexed": false,
          "internalType": "address",
          "name": "caller",
          "type": "address"
        }
      ],
      "name": "AuthorizedCaller",
      "type": "event"
    },
    {
      "anonymous": false,
      "inputs": [
        {
          "indexed": false,
          "internalType": "address",
          "name": "caller",
          "type": "address"
        }
      ],
      "name": "DeAuthorizedCaller",
      "type": "event"
    },
    {
      "anonymous": false,
      "inputs": [
        {
          "indexed": true,
          "internalType": "address",
          "name": "previousOwner",
          "type": "address"
        }
      ],
      "name": "OwnershipRenounced",
      "type": "event"
    },
    {
      "anonymous": false,
      "inputs": [
        {
          "indexed": true,
          "internalType": "address",
          "name": "previusOwner",
          "type": "address"
        },
        {
          "indexed": true,
          "internalType": "address",
          "name": "newOwner",
          "type": "address"
        }
      ],
      "name": "OwnershipTransferred",
      "type": "event"
    },
    {
      "inputs": [],
      "name": "owner",
      "outputs": [
        {
          "internalType": "address",
          "name": "",
          "type": "address"
        }
      ],
      "stateMutability": "view",
      "type": "function",
      "constant": true
    },
    {
      "inputs": [],
      "name": "renounceOwnership",
      "outputs": [],
      "stateMutability": "nonpayable",
      "type": "function"
    },
    {
      "inputs": [
        {
          "internalType": "address",
          "name": "newOwner",
          "type": "address"
        }
      ],
      "name": "transferOwnership",
      "outputs": [],
      "stateMutability": "nonpayable",
      "type": "function"
    },
    {
      "inputs": [
        {
          "internalType": "address",
          "name": "_caller",
          "type": "address"
        }
      ],
      "name": "authorizeCaller",
      "outputs": [
        {
          "internalType": "bool",
          "name": "",
          "type": "bool"
        }
      ],
      "stateMutability": "nonpayable",
      "type": "function"
    },
    {
      "inputs": [
        {
          "internalType": "address",
          "name": "_caller",
          "type": "address"
        }
      ],
      "name": "deAuthorizeCaller",
      "outputs": [
        {
          "internalType": "bool",
          "name": "",
          "type": "bool"
        }
      ],
      "stateMutability": "nonpayable",
      "type": "function"
    },
    {
      "inputs": [
        {
          "internalType": "address",
          "name": "batchNo",
          "type": "address"
        },
        {
          "internalType": "string",
          "name": "_warehouseAddress",
          "type": "string"
        },
        {
          "internalType": "string[]",
          "name": "_latLngWarehouse",
          "type": "string[]"
        },
        {
          "internalType": "string",
          "name": "_warehouseArrivalDate",
          "type": "string"
        },
        {
          "internalType": "string",
          "name": "_storagePricePerKiloPerTime",
          "type": "string"
        }
      ],
      "name": "setWarehousingData",
      "outputs": [
        {
          "internalType": "bool",
          "name": "",
          "type": "bool"
        }
      ],
      "stateMutability": "nonpayable",
      "type": "function"
    },
    {
      "inputs": [
        {
          "internalType": "address",
          "name": "batchNo",
          "type": "address"
        }
      ],
      "name": "getWarehousingData",
      "outputs": [
        {
          "internalType": "string",
          "name": "warehouseAddress",
          "type": "string"
        },
        {
          "internalType": "string[]",
          "name": "latLngWarehouse",
          "type": "string[]"
        },
        {
          "internalType": "string",
          "name": "warehouseArrivalDate",
          "type": "string"
        },
        {
          "internalType": "string",
          "name": "storagePricePerKiloPerTime",
          "type": "string"
        }
      ],
      "stateMutability": "view",
      "type": "function",
      "constant": true
    },
    {
      "inputs": [
        {
          "internalType": "address",
          "name": "batchNo",
          "type": "address"
        },
        {
          "internalType": "string",
          "name": "_toPackerTransportType",
          "type": "string"
        },
        {
          "internalType": "string",
          "name": "_warehousePickupDate",
          "type": "string"
        },
        {
          "internalType": "string",
          "name": "_toPackerShippingPrice",
          "type": "string"
        }
      ],
      "name": "setShipPackerData",
      "outputs": [
        {
          "internalType": "bool",
          "name": "",
          "type": "bool"
        }
      ],
      "stateMutability": "nonpayable",
      "type": "function"
    },
    {
      "inputs": [
        {
          "internalType": "address",
          "name": "batchNo",
          "type": "address"
        }
      ],
      "name": "getShipPackerData",
      "outputs": [
        {
          "internalType": "string",
          "name": "toPackerTransportType",
          "type": "string"
        },
        {
          "internalType": "string",
          "name": "warehousePickupDate",
          "type": "string"
        },
        {
          "internalType": "string",
          "name": "toPackerShippingPrice",
          "type": "string"
        }
      ],
      "stateMutability": "view",
      "type": "function",
      "constant": true
    },
    {
      "inputs": [
        {
          "internalType": "address",
          "name": "batchNo",
          "type": "address"
        },
        {
          "internalType": "string",
          "name": "_packerAddress",
          "type": "string"
        },
        {
          "internalType": "string[]",
          "name": "_latLngPacker",
          "type": "string[]"
        },
        {
          "internalType": "string",
          "name": "_packerArrivalDate",
          "type": "string"
        },
        {
          "internalType": "string",
          "name": "_packingDate",
          "type": "string"
        },
        {
          "internalType": "string",
          "name": "_packingPricePerKilo",
          "type": "string"
        }
      ],
      "name": "setPackData",
      "outputs": [
        {
          "internalType": "bool",
          "name": "",
          "type": "bool"
        }
      ],
      "stateMutability": "nonpayable",
      "type": "function"
    },
    {
      "inputs": [
        {
          "internalType": "address",
          "name": "batchNo",
          "type": "address"
        }
      ],
      "name": "getPackData",
      "outputs": [
        {
          "internalType": "string",
          "name": "packerAddress",
          "type": "string"
        },
        {
          "internalType": "string[]",
          "name": "latLngPacker",
          "type": "string[]"
        },
        {
          "internalType": "string",
          "name": "packerArrivalDate",
          "type": "string"
        },
        {
          "internalType": "string",
          "name": "packingDate",
          "type": "string"
        },
        {
          "internalType": "string",
          "name": "packingPricePerKilo",
          "type": "string"
        }
      ],
      "stateMutability": "view",
      "type": "function",
      "constant": true
    },
    {
      "inputs": [
        {
          "internalType": "address",
          "name": "batchNo",
          "type": "address"
        },
        {
          "internalType": "string",
          "name": "_toRetailerTransportType",
          "type": "string"
        },
        {
          "internalType": "string",
          "name": "_packerPickupDate",
          "type": "string"
        },
        {
          "internalType": "string",
          "name": "_toReatilerShippingPrice",
          "type": "string"
        }
      ],
      "name": "setShipRetailerData",
      "outputs": [
        {
          "internalType": "bool",
          "name": "",
          "type": "bool"
        }
      ],
      "stateMutability": "nonpayable",
      "type": "function"
    },
    {
      "inputs": [
        {
          "internalType": "address",
          "name": "batchNo",
          "type": "address"
        }
      ],
      "name": "getShipRetailerData",
      "outputs": [
        {
          "internalType": "string",
          "name": "toRetailerTransportType",
          "type": "string"
        },
        {
          "internalType": "string",
          "name": "packerPickupDate",
          "type": "string"
        },
        {
          "internalType": "string",
          "name": "toReatilerShippingPrice",
          "type": "string"
        }
      ],
      "stateMutability": "view",
      "type": "function",
      "constant": true
    },
    {
      "inputs": [
        {
          "internalType": "address",
          "name": "batchNo",
          "type": "address"
        },
        {
          "internalType": "string[]",
          "name": "_warehouseSalepointArrivalDate",
          "type": "string[]"
        },
        {
          "internalType": "string",
          "name": "_warehouseRetailerName",
          "type": "string"
        },
        {
          "internalType": "string",
          "name": "_salepointRetailerName",
          "type": "string"
        },
        {
          "internalType": "string[]",
          "name": "_addressLatLngWarehouseRetailer",
          "type": "string[]"
        },
        {
          "internalType": "string[]",
          "name": "_addressLatLngSalepointRetailer",
          "type": "string[]"
        },
        {
          "internalType": "string",
          "name": "_toSalepointTransportType",
          "type": "string"
        },
        {
          "internalType": "string",
          "name": "_toSalepointShippingPrice",
          "type": "string"
        },
        {
          "internalType": "string",
          "name": "_retailerPricePerKilo",
          "type": "string"
        }
      ],
      "name": "setRetailerData",
      "outputs": [
        {
          "internalType": "bool",
          "name": "",
          "type": "bool"
        }
      ],
      "stateMutability": "nonpayable",
      "type": "function"
    },
    {
      "inputs": [
        {
          "internalType": "address",
          "name": "batchNo",
          "type": "address"
        }
      ],
      "name": "getRetailerData",
      "outputs": [
        {
          "internalType": "string[]",
          "name": "warehouseSalepointArrivalDate",
          "type": "string[]"
        },
        {
          "internalType": "string",
          "name": "warehouseRetailerName",
          "type": "string"
        },
        {
          "internalType": "string",
          "name": "salepointRetailerName",
          "type": "string"
        },
        {
          "internalType": "string[]",
          "name": "addressLatLngWarehouseRetailer",
          "type": "string[]"
        },
        {
          "internalType": "string[]",
          "name": "addressLatLngSalepointRetailer",
          "type": "string[]"
        },
        {
          "internalType": "string",
          "name": "toSalepointTransportType",
          "type": "string"
        },
        {
          "internalType": "string",
          "name": "toSalepointShippingPrice",
          "type": "string"
        },
        {
          "internalType": "string",
          "name": "retailerPricePerKilo",
          "type": "string"
        }
      ],
      "stateMutability": "view",
      "type": "function",
      "constant": true
    }
  ],
  "bytecode": "0x60806040523480156200001157600080fd5b5060405162003a7838038062003a788339818101604052810190620000379190620001bb565b336000806101000a81548173ffffffffffffffffffffffffffffffffffffffff021916908373ffffffffffffffffffffffffffffffffffffffff1602179055506001600260003373ffffffffffffffffffffffffffffffffffffffff1673ffffffffffffffffffffffffffffffffffffffff16815260200190815260200160002060006101000a81548160ff021916908360ff1602179055507f8afeca650897be3183b7c0d24eba96a1b990f75c4bd74a0cfb2c0a71aec48e6133604051620001019190620001fe565b60405180910390a180600160006101000a81548173ffffffffffffffffffffffffffffffffffffffff021916908373ffffffffffffffffffffffffffffffffffffffff160217905550506200021b565b600080fd5b600073ffffffffffffffffffffffffffffffffffffffff82169050919050565b6000620001838262000156565b9050919050565b620001958162000176565b8114620001a157600080fd5b50565b600081519050620001b5816200018a565b92915050565b600060208284031215620001d457620001d362000151565b5b6000620001e484828501620001a4565b91505092915050565b620001f88162000176565b82525050565b6000602082019050620002156000830184620001ed565b92915050565b61384d806200022b6000396000f3fe608060405234801561001057600080fd5b50600436106100f55760003560e01c80633af62db9116100975780639045499f116100665780639045499f146102e2578063c923d4a814610314578063df36db7a14610344578063f2fde38b14610374576100f5565b80633af62db9146102535780636a7352d514610283578063715018a6146102ba5780638da5cb5b146102c4576100f5565b80631bcd250a116100d35780631bcd250a1461018c578063242ccc22146101bc5780632b65dacc146101ef5780632c388d5d14610223576100f5565b80630425510d146100fa5780631350afa51461012a578063199351bb1461015a575b600080fd5b610114600480360381019061010f9190612913565b610390565b6040516101219190612ad8565b60405180910390f35b610144600480360381019061013f9190612af3565b61064a565b6040516101519190612ad8565b60405180910390f35b610174600480360381019061016f9190612bae565b61081c565b60405161018393929190612c63565b60405180910390f35b6101a660048036038101906101a19190612bae565b610a9e565b6040516101b39190612ad8565b60405180910390f35b6101d660048036038101906101d19190612bae565b610b92565b6040516101e69493929190612dbb565b60405180910390f35b61020960048036038101906102049190612bae565b610ef5565b60405161021a959493929190612e1c565b60405180910390f35b61023d60048036038101906102389190612bae565b6112f5565b60405161024a9190612ad8565b60405180910390f35b61026d60048036038101906102689190612af3565b6113e9565b60405161027a9190612ad8565b60405180910390f35b61029d60048036038101906102989190612bae565b6115bb565b6040516102b1989796959493929190612e92565b60405180910390f35b6102c2611c1b565b005b6102cc611d19565b6040516102d99190612f57565b60405180910390f35b6102fc60048036038101906102f79190612bae565b611d3d565b60405161030b93929190612c63565b60405180910390f35b61032e60048036038101906103299190612f72565b611fbf565b60405161033b9190612ad8565b60405180910390f35b61035e6004803603810190610359919061305d565b6121c3565b60405161036b9190612ad8565b60405180910390f35b61038e60048036038101906103899190612bae565b6123f0565b005b60006001600260003373ffffffffffffffffffffffffffffffffffffffff1673ffffffffffffffffffffffffffffffffffffffff16815260200190815260200160002060009054906101000a900460ff1660ff16146103ee57600080fd5b886017600001908051906020019061040792919061253e565b50876017600101908161041a919061338c565b50866017600201908161042d919061338c565b50856017600301908051906020019061044792919061253e565b50846017600401908051906020019061046192919061253e565b508360176005019081610474919061338c565b508260176006019081610487919061338c565b50816017600701908161049a919061338c565b506017600760008c73ffffffffffffffffffffffffffffffffffffffff1673ffffffffffffffffffffffffffffffffffffffff16815260200190815260200160002060008201816000019080546104f2929190612597565b50600182018160010190816105079190613474565b506002820181600201908161051c9190613474565b506003820181600301908054610533929190612597565b50600482018160040190805461054a929190612597565b506005820181600501908161055f9190613474565b50600682018160060190816105749190613474565b50600782018160070190816105899190613474565b509050506000600160009054906101000a900473ffffffffffffffffffffffffffffffffffffffff1673ffffffffffffffffffffffffffffffffffffffff16638383e2948c6040518263ffffffff1660e01b81526004016105ea91906135a8565b6020604051808303816000875af1158015610609573d6000803e3d6000fd5b505050506040513d601f19601f8201168201806040525081019061062d9190613602565b90506001801561063a5750805b9150509998505050505050505050565b60006001600260003373ffffffffffffffffffffffffffffffffffffffff1673ffffffffffffffffffffffffffffffffffffffff16815260200190815260200160002060009054906101000a900460ff1660ff16146106a857600080fd5b83601460000190816106ba919061338c565b5082601460010190816106cd919061338c565b5081601460020190816106e0919061338c565b506014600660008773ffffffffffffffffffffffffffffffffffffffff1673ffffffffffffffffffffffffffffffffffffffff168152602001908152602001600020600082018160000190816107369190613474565b506001820181600101908161074b9190613474565b50600282018160020190816107609190613474565b509050506000600160009054906101000a900473ffffffffffffffffffffffffffffffffffffffff1673ffffffffffffffffffffffffffffffffffffffff16638383e294876040518263ffffffff1660e01b81526004016107c1919061367b565b6020604051808303816000875af11580156107e0573d6000803e3d6000fd5b505050506040513d601f19601f820116820180604052508101906108049190613602565b9050600180156108115750805b915050949350505050565b60608060606001600260003373ffffffffffffffffffffffffffffffffffffffff1673ffffffffffffffffffffffffffffffffffffffff16815260200190815260200160002060009054906101000a900460ff1660ff161461087d57600080fd5b6000600660008673ffffffffffffffffffffffffffffffffffffffff1673ffffffffffffffffffffffffffffffffffffffff1681526020019081526020016000206040518060600160405290816000820180546108d9906131a5565b80601f0160208091040260200160405190810160405280929190818152602001828054610905906131a5565b80156109525780601f1061092757610100808354040283529160200191610952565b820191906000526020600020905b81548152906001019060200180831161093557829003601f168201915b5050505050815260200160018201805461096b906131a5565b80601f0160208091040260200160405190810160405280929190818152602001828054610997906131a5565b80156109e45780601f106109b9576101008083540402835291602001916109e4565b820191906000526020600020905b8154815290600101906020018083116109c757829003601f168201915b505050505081526020016002820180546109fd906131a5565b80601f0160208091040260200160405190810160405280929190818152602001828054610a29906131a5565b8015610a765780601f10610a4b57610100808354040283529160200191610a76565b820191906000526020600020905b815481529060010190602001808311610a5957829003601f168201915b5050505050815250509050806000015181602001518260400151935093509350509193909250565b60008060009054906101000a900473ffffffffffffffffffffffffffffffffffffffff1673ffffffffffffffffffffffffffffffffffffffff163373ffffffffffffffffffffffffffffffffffffffff1614610af957600080fd5b6000600260008473ffffffffffffffffffffffffffffffffffffffff1673ffffffffffffffffffffffffffffffffffffffff16815260200190815260200160002060006101000a81548160ff021916908360ff1602179055507f9e8ca6ff03906e81e8a6a03d4f96b7edb0b97f0ed9d07ef1b699fff63438549682604051610b819190612f57565b60405180910390a160019050919050565b6060806060806001600260003373ffffffffffffffffffffffffffffffffffffffff1673ffffffffffffffffffffffffffffffffffffffff16815260200190815260200160002060009054906101000a900460ff1660ff1614610bf457600080fd5b6000600360008773ffffffffffffffffffffffffffffffffffffffff1673ffffffffffffffffffffffffffffffffffffffff168152602001908152602001600020604051806080016040529081600082018054610c50906131a5565b80601f0160208091040260200160405190810160405280929190818152602001828054610c7c906131a5565b8015610cc95780601f10610c9e57610100808354040283529160200191610cc9565b820191906000526020600020905b815481529060010190602001808311610cac57829003601f168201915b5050505050815260200160018201805480602002602001604051908101604052809291908181526020016000905b82821015610da3578382906000526020600020018054610d16906131a5565b80601f0160208091040260200160405190810160405280929190818152602001828054610d42906131a5565b8015610d8f5780601f10610d6457610100808354040283529160200191610d8f565b820191906000526020600020905b815481529060010190602001808311610d7257829003601f168201915b505050505081526020019060010190610cf7565b505050508152602001600282018054610dbb906131a5565b80601f0160208091040260200160405190810160405280929190818152602001828054610de7906131a5565b8015610e345780601f10610e0957610100808354040283529160200191610e34565b820191906000526020600020905b815481529060010190602001808311610e1757829003601f168201915b50505050508152602001600382018054610e4d906131a5565b80601f0160208091040260200160405190810160405280929190818152602001828054610e79906131a5565b8015610ec65780601f10610e9b57610100808354040283529160200191610ec6565b820191906000526020600020905b815481529060010190602001808311610ea957829003601f168201915b505050505081525050905080600001518160200151826040015183606001519450945094509450509193509193565b60608060608060606001600260003373ffffffffffffffffffffffffffffffffffffffff1673ffffffffffffffffffffffffffffffffffffffff16815260200190815260200160002060009054906101000a900460ff1660ff1614610f5957600080fd5b6000600560008873ffffffffffffffffffffffffffffffffffffffff1673ffffffffffffffffffffffffffffffffffffffff1681526020019081526020016000206040518060a0016040529081600082018054610fb5906131a5565b80601f0160208091040260200160405190810160405280929190818152602001828054610fe1906131a5565b801561102e5780601f106110035761010080835404028352916020019161102e565b820191906000526020600020905b81548152906001019060200180831161101157829003601f168201915b5050505050815260200160018201805480602002602001604051908101604052809291908181526020016000905b8282101561110857838290600052602060002001805461107b906131a5565b80601f01602080910402602001604051908101604052809291908181526020018280546110a7906131a5565b80156110f45780601f106110c9576101008083540402835291602001916110f4565b820191906000526020600020905b8154815290600101906020018083116110d757829003601f168201915b50505050508152602001906001019061105c565b505050508152602001600282018054611120906131a5565b80601f016020809104026020016040519081016040528092919081815260200182805461114c906131a5565b80156111995780601f1061116e57610100808354040283529160200191611199565b820191906000526020600020905b81548152906001019060200180831161117c57829003601f168201915b505050505081526020016003820180546111b2906131a5565b80601f01602080910402602001604051908101604052809291908181526020018280546111de906131a5565b801561122b5780601f106112005761010080835404028352916020019161122b565b820191906000526020600020905b81548152906001019060200180831161120e57829003601f168201915b50505050508152602001600482018054611244906131a5565b80601f0160208091040260200160405190810160405280929190818152602001828054611270906131a5565b80156112bd5780601f10611292576101008083540402835291602001916112bd565b820191906000526020600020905b8154815290600101906020018083116112a057829003601f168201915b505050505081525050905080600001518160200151826040015183606001518460800151955095509550955095505091939590929450565b60008060009054906101000a900473ffffffffffffffffffffffffffffffffffffffff1673ffffffffffffffffffffffffffffffffffffffff163373ffffffffffffffffffffffffffffffffffffffff161461135057600080fd5b6001600260008473ffffffffffffffffffffffffffffffffffffffff1673ffffffffffffffffffffffffffffffffffffffff16815260200190815260200160002060006101000a81548160ff021916908360ff1602179055507f8afeca650897be3183b7c0d24eba96a1b990f75c4bd74a0cfb2c0a71aec48e61826040516113d89190612f57565b60405180910390a160019050919050565b60006001600260003373ffffffffffffffffffffffffffffffffffffffff1673ffffffffffffffffffffffffffffffffffffffff16815260200190815260200160002060009054906101000a900460ff1660ff161461144757600080fd5b83600c6000019081611459919061338c565b5082600c600101908161146c919061338c565b5081600c600201908161147f919061338c565b50600c600460008773ffffffffffffffffffffffffffffffffffffffff1673ffffffffffffffffffffffffffffffffffffffff168152602001908152602001600020600082018160000190816114d59190613474565b50600182018160010190816114ea9190613474565b50600282018160020190816114ff9190613474565b509050506000600160009054906101000a900473ffffffffffffffffffffffffffffffffffffffff1673ffffffffffffffffffffffffffffffffffffffff16638383e294876040518263ffffffff1660e01b815260040161156091906136f5565b6020604051808303816000875af115801561157f573d6000803e3d6000fd5b505050506040513d601f19601f820116820180604052508101906115a39190613602565b9050600180156115b05750805b915050949350505050565b6060806060806060806060806001600260003373ffffffffffffffffffffffffffffffffffffffff1673ffffffffffffffffffffffffffffffffffffffff16815260200190815260200160002060009054906101000a900460ff1660ff161461162357600080fd5b6000600760008b73ffffffffffffffffffffffffffffffffffffffff1673ffffffffffffffffffffffffffffffffffffffff1681526020019081526020016000206040518061010001604052908160008201805480602002602001604051908101604052809291908181526020016000905b828210156117415783829060005260206000200180546116b4906131a5565b80601f01602080910402602001604051908101604052809291908181526020018280546116e0906131a5565b801561172d5780601f106117025761010080835404028352916020019161172d565b820191906000526020600020905b81548152906001019060200180831161171057829003601f168201915b505050505081526020019060010190611695565b505050508152602001600182018054611759906131a5565b80601f0160208091040260200160405190810160405280929190818152602001828054611785906131a5565b80156117d25780601f106117a7576101008083540402835291602001916117d2565b820191906000526020600020905b8154815290600101906020018083116117b557829003601f168201915b505050505081526020016002820180546117eb906131a5565b80601f0160208091040260200160405190810160405280929190818152602001828054611817906131a5565b80156118645780601f1061183957610100808354040283529160200191611864565b820191906000526020600020905b81548152906001019060200180831161184757829003601f168201915b5050505050815260200160038201805480602002602001604051908101604052809291908181526020016000905b8282101561193e5783829060005260206000200180546118b1906131a5565b80601f01602080910402602001604051908101604052809291908181526020018280546118dd906131a5565b801561192a5780601f106118ff5761010080835404028352916020019161192a565b820191906000526020600020905b81548152906001019060200180831161190d57829003601f168201915b505050505081526020019060010190611892565b50505050815260200160048201805480602002602001604051908101604052809291908181526020016000905b82821015611a1757838290600052602060002001805461198a906131a5565b80601f01602080910402602001604051908101604052809291908181526020018280546119b6906131a5565b8015611a035780601f106119d857610100808354040283529160200191611a03565b820191906000526020600020905b8154815290600101906020018083116119e657829003601f168201915b50505050508152602001906001019061196b565b505050508152602001600582018054611a2f906131a5565b80601f0160208091040260200160405190810160405280929190818152602001828054611a5b906131a5565b8015611aa85780601f10611a7d57610100808354040283529160200191611aa8565b820191906000526020600020905b815481529060010190602001808311611a8b57829003601f168201915b50505050508152602001600682018054611ac1906131a5565b80601f0160208091040260200160405190810160405280929190818152602001828054611aed906131a5565b8015611b3a5780601f10611b0f57610100808354040283529160200191611b3a565b820191906000526020600020905b815481529060010190602001808311611b1d57829003601f168201915b50505050508152602001600782018054611b53906131a5565b80601f0160208091040260200160405190810160405280929190818152602001828054611b7f906131a5565b8015611bcc5780601f10611ba157610100808354040283529160200191611bcc565b820191906000526020600020905b815481529060010190602001808311611baf57829003601f168201915b5050505050815250509050806000015181602001518260400151836060015184608001518560a001518660c001518760e001519850985098509850985098509850985050919395975091939597565b60008054906101000a900473ffffffffffffffffffffffffffffffffffffffff1673ffffffffffffffffffffffffffffffffffffffff163373ffffffffffffffffffffffffffffffffffffffff1614611c7357600080fd5b60008054906101000a900473ffffffffffffffffffffffffffffffffffffffff1673ffffffffffffffffffffffffffffffffffffffff167ff8df31144d9c2f0f6b59d69b8b98abd5459d07f2742c4df920b25aae33c6482060405160405180910390a260008060006101000a81548173ffffffffffffffffffffffffffffffffffffffff021916908373ffffffffffffffffffffffffffffffffffffffff160217905550565b60008054906101000a900473ffffffffffffffffffffffffffffffffffffffff1681565b60608060606001600260003373ffffffffffffffffffffffffffffffffffffffff1673ffffffffffffffffffffffffffffffffffffffff16815260200190815260200160002060009054906101000a900460ff1660ff1614611d9e57600080fd5b6000600460008673ffffffffffffffffffffffffffffffffffffffff1673ffffffffffffffffffffffffffffffffffffffff168152602001908152602001600020604051806060016040529081600082018054611dfa906131a5565b80601f0160208091040260200160405190810160405280929190818152602001828054611e26906131a5565b8015611e735780601f10611e4857610100808354040283529160200191611e73565b820191906000526020600020905b815481529060010190602001808311611e5657829003601f168201915b50505050508152602001600182018054611e8c906131a5565b80601f0160208091040260200160405190810160405280929190818152602001828054611eb8906131a5565b8015611f055780601f10611eda57610100808354040283529160200191611f05565b820191906000526020600020905b815481529060010190602001808311611ee857829003601f168201915b50505050508152602001600282018054611f1e906131a5565b80601f0160208091040260200160405190810160405280929190818152602001828054611f4a906131a5565b8015611f975780601f10611f6c57610100808354040283529160200191611f97565b820191906000526020600020905b815481529060010190602001808311611f7a57829003601f168201915b5050505050815250509050806000015181602001518260400151935093509350509193909250565b60006001600260003373ffffffffffffffffffffffffffffffffffffffff1673ffffffffffffffffffffffffffffffffffffffff16815260200190815260200160002060009054906101000a900460ff1660ff161461201d57600080fd5b846008600001908161202f919061338c565b50836008600101908051906020019061204992919061253e565b50826008600201908161205c919061338c565b50816008600301908161206f919061338c565b506008600360008873ffffffffffffffffffffffffffffffffffffffff1673ffffffffffffffffffffffffffffffffffffffff168152602001908152602001600020600082018160000190816120c59190613474565b5060018201816001019080546120dc929190612597565b50600282018160020190816120f19190613474565b50600382018160030190816121069190613474565b509050506000600160009054906101000a900473ffffffffffffffffffffffffffffffffffffffff1673ffffffffffffffffffffffffffffffffffffffff16638383e294886040518263ffffffff1660e01b8152600401612167919061376f565b6020604051808303816000875af1158015612186573d6000803e3d6000fd5b505050506040513d601f19601f820116820180604052508101906121aa9190613602565b9050600180156121b75750805b91505095945050505050565b60006001600260003373ffffffffffffffffffffffffffffffffffffffff1673ffffffffffffffffffffffffffffffffffffffff16815260200190815260200160002060009054906101000a900460ff1660ff161461222157600080fd5b85600f6000019081612233919061338c565b5084600f600101908051906020019061224d92919061253e565b5083600f6002019081612260919061338c565b5082600f6003019081612273919061338c565b5081600f6004019081612286919061338c565b50600f600560008973ffffffffffffffffffffffffffffffffffffffff1673ffffffffffffffffffffffffffffffffffffffff168152602001908152602001600020600082018160000190816122dc9190613474565b5060018201816001019080546122f3929190612597565b50600282018160020190816123089190613474565b506003820181600301908161231d9190613474565b50600482018160040190816123329190613474565b509050506000600160009054906101000a900473ffffffffffffffffffffffffffffffffffffffff1673ffffffffffffffffffffffffffffffffffffffff16638383e294896040518263ffffffff1660e01b815260040161239391906137e9565b6020604051808303816000875af11580156123b2573d6000803e3d6000fd5b505050506040513d601f19601f820116820180604052508101906123d69190613602565b9050600180156123e35750805b9150509695505050505050565b60008054906101000a900473ffffffffffffffffffffffffffffffffffffffff1673ffffffffffffffffffffffffffffffffffffffff163373ffffffffffffffffffffffffffffffffffffffff161461244857600080fd5b600073ffffffffffffffffffffffffffffffffffffffff168173ffffffffffffffffffffffffffffffffffffffff160361248157600080fd5b8073ffffffffffffffffffffffffffffffffffffffff1660008054906101000a900473ffffffffffffffffffffffffffffffffffffffff1673ffffffffffffffffffffffffffffffffffffffff167f8be0079c531659141344cd1fd0a4f28419497f9722a3daafe3b4186f6b6457e060405160405180910390a3806000806101000a81548173ffffffffffffffffffffffffffffffffffffffff021916908373ffffffffffffffffffffffffffffffffffffffff16021790555050565b828054828255906000526020600020908101928215612586579160200282015b82811115612585578251829081612575919061338c565b509160200191906001019061255e565b5b50905061259391906125f4565b5090565b8280548282559060005260206000209081019282156125e35760005260206000209182015b828111156125e257828290816125d29190613474565b50916001019190600101906125bc565b5b5090506125f091906125f4565b5090565b5b80821115612614576000818161260b9190612618565b506001016125f5565b5090565b508054612624906131a5565b6000825580601f106126365750612655565b601f0160209004906000526020600020908101906126549190612658565b5b50565b5b80821115612671576000816000905550600101612659565b5090565b6000604051905090565b600080fd5b600080fd5b600073ffffffffffffffffffffffffffffffffffffffff82169050919050565b60006126b482612689565b9050919050565b6126c4816126a9565b81146126cf57600080fd5b50565b6000813590506126e1816126bb565b92915050565b600080fd5b6000601f19601f8301169050919050565b7f4e487b7100000000000000000000000000000000000000000000000000000000600052604160045260246000fd5b612735826126ec565b810181811067ffffffffffffffff82111715612754576127536126fd565b5b80604052505050565b6000612767612675565b9050612773828261272c565b919050565b600067ffffffffffffffff821115612793576127926126fd565b5b602082029050602081019050919050565b600080fd5b600080fd5b600067ffffffffffffffff8211156127c9576127c86126fd565b5b6127d2826126ec565b9050602081019050919050565b82818337600083830152505050565b60006128016127fc846127ae565b61275d565b90508281526020810184848401111561281d5761281c6127a9565b5b6128288482856127df565b509392505050565b600082601f830112612845576128446126e7565b5b81356128558482602086016127ee565b91505092915050565b600061287161286c84612778565b61275d565b90508083825260208201905060208402830185811115612894576128936127a4565b5b835b818110156128db57803567ffffffffffffffff8111156128b9576128b86126e7565b5b8086016128c68982612830565b85526020850194505050602081019050612896565b5050509392505050565b600082601f8301126128fa576128f96126e7565b5b813561290a84826020860161285e565b91505092915050565b60008060008060008060008060006101208a8c0312156129365761293561267f565b5b60006129448c828d016126d2565b99505060208a013567ffffffffffffffff81111561296557612964612684565b5b6129718c828d016128e5565b98505060408a013567ffffffffffffffff81111561299257612991612684565b5b61299e8c828d01612830565b97505060608a013567ffffffffffffffff8111156129bf576129be612684565b5b6129cb8c828d01612830565b96505060808a013567ffffffffffffffff8111156129ec576129eb612684565b5b6129f88c828d016128e5565b95505060a08a013567ffffffffffffffff811115612a1957612a18612684565b5b612a258c828d016128e5565b94505060c08a013567ffffffffffffffff811115612a4657612a45612684565b5b612a528c828d01612830565b93505060e08a013567ffffffffffffffff811115612a7357612a72612684565b5b612a7f8c828d01612830565b9250506101008a013567ffffffffffffffff811115612aa157612aa0612684565b5b612aad8c828d01612830565b9150509295985092959850929598565b60008115159050919050565b612ad281612abd565b82525050565b6000602082019050612aed6000830184612ac9565b92915050565b60008060008060808587031215612b0d57612b0c61267f565b5b6000612b1b878288016126d2565b945050602085013567ffffffffffffffff811115612b3c57612b3b612684565b5b612b4887828801612830565b935050604085013567ffffffffffffffff811115612b6957612b68612684565b5b612b7587828801612830565b925050606085013567ffffffffffffffff811115612b9657612b95612684565b5b612ba287828801612830565b91505092959194509250565b600060208284031215612bc457612bc361267f565b5b6000612bd2848285016126d2565b91505092915050565b600081519050919050565b600082825260208201905092915050565b60005b83811015612c15578082015181840152602081019050612bfa565b83811115612c24576000848401525b50505050565b6000612c3582612bdb565b612c3f8185612be6565b9350612c4f818560208601612bf7565b612c58816126ec565b840191505092915050565b60006060820190508181036000830152612c7d8186612c2a565b90508181036020830152612c918185612c2a565b90508181036040830152612ca58184612c2a565b9050949350505050565b600081519050919050565b600082825260208201905092915050565b6000819050602082019050919050565b600082825260208201905092915050565b6000612cf782612bdb565b612d018185612cdb565b9350612d11818560208601612bf7565b612d1a816126ec565b840191505092915050565b6000612d318383612cec565b905092915050565b6000602082019050919050565b6000612d5182612caf565b612d5b8185612cba565b935083602082028501612d6d85612ccb565b8060005b85811015612da95784840389528151612d8a8582612d25565b9450612d9583612d39565b925060208a01995050600181019050612d71565b50829750879550505050505092915050565b60006080820190508181036000830152612dd58187612c2a565b90508181036020830152612de98186612d46565b90508181036040830152612dfd8185612c2a565b90508181036060830152612e118184612c2a565b905095945050505050565b600060a0820190508181036000830152612e368188612c2a565b90508181036020830152612e4a8187612d46565b90508181036040830152612e5e8186612c2a565b90508181036060830152612e728185612c2a565b90508181036080830152612e868184612c2a565b90509695505050505050565b6000610100820190508181036000830152612ead818b612d46565b90508181036020830152612ec1818a612c2a565b90508181036040830152612ed58189612c2a565b90508181036060830152612ee98188612d46565b90508181036080830152612efd8187612d46565b905081810360a0830152612f118186612c2a565b905081810360c0830152612f258185612c2a565b905081810360e0830152612f398184612c2a565b90509998505050505050505050565b612f51816126a9565b82525050565b6000602082019050612f6c6000830184612f48565b92915050565b600080600080600060a08688031215612f8e57612f8d61267f565b5b6000612f9c888289016126d2565b955050602086013567ffffffffffffffff811115612fbd57612fbc612684565b5b612fc988828901612830565b945050604086013567ffffffffffffffff811115612fea57612fe9612684565b5b612ff6888289016128e5565b935050606086013567ffffffffffffffff81111561301757613016612684565b5b61302388828901612830565b925050608086013567ffffffffffffffff81111561304457613043612684565b5b61305088828901612830565b9150509295509295909350565b60008060008060008060c0878903121561307a5761307961267f565b5b600061308889828a016126d2565b965050602087013567ffffffffffffffff8111156130a9576130a8612684565b5b6130b589828a01612830565b955050604087013567ffffffffffffffff8111156130d6576130d5612684565b5b6130e289828a016128e5565b945050606087013567ffffffffffffffff81111561310357613102612684565b5b61310f89828a01612830565b935050608087013567ffffffffffffffff8111156131305761312f612684565b5b61313c89828a01612830565b92505060a087013567ffffffffffffffff81111561315d5761315c612684565b5b61316989828a01612830565b9150509295509295509295565b7f4e487b7100000000000000000000000000000000000000000000000000000000600052602260045260246000fd5b600060028204905060018216806131bd57607f821691505b6020821081036131d0576131cf613176565b5b50919050565b60008190508160005260206000209050919050565b60006020601f8301049050919050565b600082821b905092915050565b6000600883026132387fffffffffffffffffffffffffffffffffffffffffffffffffffffffffffffffff826131fb565b61324286836131fb565b95508019841693508086168417925050509392505050565b6000819050919050565b6000819050919050565b600061328961328461327f8461325a565b613264565b61325a565b9050919050565b6000819050919050565b6132a38361326e565b6132b76132af82613290565b848454613208565b825550505050565b600090565b6132cc6132bf565b6132d781848461329a565b505050565b5b818110156132fb576132f06000826132c4565b6001810190506132dd565b5050565b601f82111561334057613311816131d6565b61331a846131eb565b81016020851015613329578190505b61333d613335856131eb565b8301826132dc565b50505b505050565b600082821c905092915050565b600061336360001984600802613345565b1980831691505092915050565b600061337c8383613352565b9150826002028217905092915050565b61339582612bdb565b67ffffffffffffffff8111156133ae576133ad6126fd565b5b6133b882546131a5565b6133c38282856132ff565b600060209050601f8311600181146133f657600084156133e4578287015190505b6133ee8582613370565b865550613456565b601f198416613404866131d6565b60005b8281101561342c57848901518255600182019150602085019450602081019050613407565b868310156134495784890151613445601f891682613352565b8355505b6001600288020188555050505b505050505050565b60008154905061346d816131a5565b9050919050565b81810361348257505061355a565b61348b8261345e565b67ffffffffffffffff8111156134a4576134a36126fd565b5b6134ae82546131a5565b6134b98282856132ff565b6000601f8311600181146134e857600084156134d6578287015490505b6134e08582613370565b865550613553565b601f1984166134f6876131d6565b9650613501866131d6565b60005b8281101561352957848901548255600182019150600185019450602081019050613504565b868310156135465784890154613542601f891682613352565b8355505b6001600288020188555050505b5050505050505b565b7f444f4e4500000000000000000000000000000000000000000000000000000000600082015250565b6000613592600483612be6565b915061359d8261355c565b602082019050919050565b60006040820190506135bd6000830184612f48565b81810360208301526135ce81613585565b905092915050565b6135df81612abd565b81146135ea57600080fd5b50565b6000815190506135fc816135d6565b92915050565b6000602082840312156136185761361761267f565b5b6000613626848285016135ed565b91505092915050565b7f52455441494c4552000000000000000000000000000000000000000000000000600082015250565b6000613665600883612be6565b91506136708261362f565b602082019050919050565b60006040820190506136906000830184612f48565b81810360208301526136a181613658565b905092915050565b7f5041434b45520000000000000000000000000000000000000000000000000000600082015250565b60006136df600683612be6565b91506136ea826136a9565b602082019050919050565b600060408201905061370a6000830184612f48565b818103602083015261371b816136d2565b905092915050565b7f534849505045525f5041434b4552000000000000000000000000000000000000600082015250565b6000613759600e83612be6565b915061376482613723565b602082019050919050565b60006040820190506137846000830184612f48565b81810360208301526137958161374c565b905092915050565b7f534849505045525f52455441494c455200000000000000000000000000000000600082015250565b60006137d3601083612be6565b91506137de8261379d565b602082019050919050565b60006040820190506137fe6000830184612f48565b818103602083015261380f816137c6565b90509291505056fea2646970667358221220f077c998fb72a56d6ecf9b27907a4124fea2f6d4575025966c7a53ce81c965af64736f6c634300080f0033",
  "immutableReferences": {},
  "source": "//SPDX-License-Identifier: MIT\n\npragma solidity ^0.8.15;\n\nimport \"./SupplyChainStorageOwnable.sol\";\nimport \"./SupplyChainStorage.sol\";\n\ncontract SupplyChainStorage2 is SupplyChainStorageOwnable {\n    SupplyChainStorage supplyChainStorage;\n\n    constructor(address _supplyChainStorage) {\n        authorizedCaller[msg.sender] = 1;\n        emit AuthorizedCaller(msg.sender);\n        supplyChainStorage = SupplyChainStorage(_supplyChainStorage);\n    }\n\n    event AuthorizedCaller(address caller);\n    event DeAuthorizedCaller(address caller);\n\n    modifier onlyAuthCaller() {\n        require(authorizedCaller[msg.sender] == 1);\n        _;\n    }\n\n    mapping(address => uint8) authorizedCaller;\n\n    function authorizeCaller(address _caller) public onlyOwner returns (bool) {\n        authorizedCaller[_caller] = 1;\n        emit AuthorizedCaller(_caller);\n        return true;\n    }\n\n    function deAuthorizeCaller(address _caller)\n        public\n        onlyOwner\n        returns (bool)\n    {\n        authorizedCaller[_caller] = 0;\n        emit DeAuthorizedCaller(_caller);\n        return true;\n    }\n\n    struct Warehousing {\n        string warehouseAddress;\n        string[] latLngWarehouse;\n        string warehouseArrivalDate;\n        string storagePricePerKiloPerTime;\n    }\n\n    struct ShipToPacker {\n        string toPackerTransportType;\n        string warehousePickupDate;\n        string toPackerShippingPrice;\n    }\n\n    struct Pack {\n        string packerAddress;\n        string[] latLngPacker;\n        string packerArrivalDate;\n        string packingDate;\n        string packingPricePerKilo;\n    }\n\n    struct ShipToRetailer {\n        string toRetailerTransportType;\n        string packerPickupDate;\n        string toReatilerShippingPrice;\n    }\n\n    struct Retailer {\n        string[] warehouseSalepointArrivalDate;\n        string warehouseRetailerName;\n        string salepointRetailerName;\n        string[] addressLatLngWarehouseRetailer;\n        string[] addressLatLngSalepointRetailer;\n        string toSalepointTransportType;\n        string toSalepointShippingPrice;\n        string retailerPricePerKilo;\n    }\n\n    mapping(address => Warehousing) batchWarehousing;\n    mapping(address => ShipToPacker) batchShipToPacker;\n    mapping(address => Pack) batchPack;\n    mapping(address => ShipToRetailer) batchShipToRetailer;\n    mapping(address => Retailer) batchRetailer;\n\n    Warehousing warehousingData;\n    ShipToPacker shipPackerData;\n    Pack packData;\n    ShipToRetailer shipRetailerData;\n    Retailer retailerData;\n\n    function setWarehousingData(\n        address batchNo,\n        string memory _warehouseAddress,\n        string[] memory _latLngWarehouse,\n        string memory _warehouseArrivalDate,\n        string memory _storagePricePerKiloPerTime\n    ) public onlyAuthCaller returns (bool) {\n        warehousingData.warehouseAddress = _warehouseAddress;\n        warehousingData.latLngWarehouse = _latLngWarehouse;\n        warehousingData.warehouseArrivalDate = _warehouseArrivalDate;\n        warehousingData\n            .storagePricePerKiloPerTime = _storagePricePerKiloPerTime;\n\n        batchWarehousing[batchNo] = warehousingData;\n        bool status = supplyChainStorage.writeNextAction(\n            batchNo,\n            \"SHIPPER_PACKER\"\n        );\n        return (true && status);\n    }\n\n    function getWarehousingData(address batchNo)\n        public\n        view\n        onlyAuthCaller\n        returns (\n            string memory warehouseAddress,\n            string[] memory latLngWarehouse,\n            string memory warehouseArrivalDate,\n            string memory storagePricePerKiloPerTime\n        )\n    {\n        Warehousing memory tmpData = batchWarehousing[batchNo];\n        return (\n            tmpData.warehouseAddress,\n            tmpData.latLngWarehouse,\n            tmpData.warehouseArrivalDate,\n            tmpData.storagePricePerKiloPerTime\n        );\n    }\n\n    function setShipPackerData(\n        address batchNo,\n        string memory _toPackerTransportType,\n        string memory _warehousePickupDate,\n        string memory _toPackerShippingPrice\n    ) public onlyAuthCaller returns (bool) {\n        shipPackerData.toPackerTransportType = _toPackerTransportType;\n        shipPackerData.warehousePickupDate = _warehousePickupDate;\n        shipPackerData.toPackerShippingPrice = _toPackerShippingPrice;\n\n        batchShipToPacker[batchNo] = shipPackerData;\n        bool status = supplyChainStorage.writeNextAction(batchNo, \"PACKER\");\n        return (true && status);\n    }\n\n    function getShipPackerData(address batchNo)\n        public\n        view\n        onlyAuthCaller\n        returns (\n            string memory toPackerTransportType,\n            string memory warehousePickupDate,\n            string memory toPackerShippingPrice\n        )\n    {\n        ShipToPacker memory tmpData = batchShipToPacker[batchNo];\n        return (\n            tmpData.toPackerTransportType,\n            tmpData.warehousePickupDate,\n            tmpData.toPackerShippingPrice\n        );\n    }\n\n    function setPackData(\n        address batchNo,\n        string memory _packerAddress,\n        string[] memory _latLngPacker,\n        string memory _packerArrivalDate,\n        string memory _packingDate,\n        string memory _packingPricePerKilo\n    ) public onlyAuthCaller returns (bool) {\n        packData.packerAddress = _packerAddress;\n        packData.latLngPacker = _latLngPacker;\n        packData.packerArrivalDate = _packerArrivalDate;\n        packData.packingDate = _packingDate;\n        packData.packingPricePerKilo = _packingPricePerKilo;\n\n        batchPack[batchNo] = packData;\n        bool status = supplyChainStorage.writeNextAction(\n            batchNo,\n            \"SHIPPER_RETAILER\"\n        );\n        return (true && status);\n    }\n\n    function getPackData(address batchNo)\n        public\n        view\n        onlyAuthCaller\n        returns (\n            string memory packerAddress,\n            string[] memory latLngPacker,\n            string memory packerArrivalDate,\n            string memory packingDate,\n            string memory packingPricePerKilo\n        )\n    {\n        Pack memory tmpData = batchPack[batchNo];\n        return (\n            tmpData.packerAddress,\n            tmpData.latLngPacker,\n            tmpData.packerArrivalDate,\n            tmpData.packingDate,\n            tmpData.packingPricePerKilo\n        );\n    }\n\n    function setShipRetailerData(\n        address batchNo,\n        string memory _toRetailerTransportType,\n        string memory _packerPickupDate,\n        string memory _toReatilerShippingPrice\n    ) public onlyAuthCaller returns (bool) {\n        shipRetailerData.toRetailerTransportType = _toRetailerTransportType;\n        shipRetailerData.packerPickupDate = _packerPickupDate;\n        shipRetailerData.toReatilerShippingPrice = _toReatilerShippingPrice;\n\n        batchShipToRetailer[batchNo] = shipRetailerData;\n        bool status = supplyChainStorage.writeNextAction(batchNo, \"RETAILER\");\n        return (true && status);\n    }\n\n    function getShipRetailerData(address batchNo)\n        public\n        view\n        onlyAuthCaller\n        returns (\n            string memory toRetailerTransportType,\n            string memory packerPickupDate,\n            string memory toReatilerShippingPrice\n        )\n    {\n        ShipToRetailer memory tmpData = batchShipToRetailer[batchNo];\n        return (\n            tmpData.toRetailerTransportType,\n            tmpData.packerPickupDate,\n            tmpData.toReatilerShippingPrice\n        );\n    }\n\n    function setRetailerData(\n        address batchNo,\n        string[] memory _warehouseSalepointArrivalDate,\n        string memory _warehouseRetailerName,\n        string memory _salepointRetailerName,\n        string[] memory _addressLatLngWarehouseRetailer,\n        string[] memory _addressLatLngSalepointRetailer,\n        string memory _toSalepointTransportType,\n        string memory _toSalepointShippingPrice,\n        string memory _retailerPricePerKilo\n    ) public onlyAuthCaller returns (bool) {\n        retailerData\n            .warehouseSalepointArrivalDate = _warehouseSalepointArrivalDate;\n        retailerData.warehouseRetailerName = _warehouseRetailerName;\n        retailerData.salepointRetailerName = _salepointRetailerName;\n        retailerData\n            .addressLatLngWarehouseRetailer = _addressLatLngWarehouseRetailer;\n        retailerData\n            .addressLatLngSalepointRetailer = _addressLatLngSalepointRetailer;\n        retailerData.toSalepointTransportType = _toSalepointTransportType;\n        retailerData.toSalepointShippingPrice = _toSalepointShippingPrice;\n        retailerData.retailerPricePerKilo = _retailerPricePerKilo;\n\n        batchRetailer[batchNo] = retailerData;\n        bool status = supplyChainStorage.writeNextAction(batchNo, \"DONE\");\n        return (true && status);\n    }\n\n    function getRetailerData(address batchNo)\n        public\n        view\n        onlyAuthCaller\n        returns (\n            string[] memory warehouseSalepointArrivalDate,\n            string memory warehouseRetailerName,\n            string memory salepointRetailerName,\n            string[] memory addressLatLngWarehouseRetailer,\n            string[] memory addressLatLngSalepointRetailer,\n            string memory toSalepointTransportType,\n            string memory toSalepointShippingPrice,\n            string memory retailerPricePerKilo\n        )\n    {\n        Retailer memory tmpData = batchRetailer[batchNo];\n        return (\n            tmpData.warehouseSalepointArrivalDate,\n            tmpData.warehouseRetailerName,\n            tmpData.salepointRetailerName,\n            tmpData.addressLatLngWarehouseRetailer,\n            tmpData.addressLatLngSalepointRetailer,\n            tmpData.toSalepointTransportType,\n            tmpData.toSalepointShippingPrice,\n            tmpData.retailerPricePerKilo\n        );\n    }\n}\n",
  "sourcePath": "/home/nathalia/TESIS/coffee-supply-chain-tracking-system-ethereum/contracts/SupplyChainStorage2.sol",
  "compiler": {
    "name": "solc",
    "version": "0.8.15+commit.e14f2714.Emscripten.clang"
  },
  "schemaVersion": "3.4.4",
  "updatedAt": "2022-08-04T04:13:50.089Z",
  "networkType": "ethereum",
  "devdoc": {
    "kind": "dev",
    "methods": {},
    "version": 1
  },
  "userdoc": {
    "kind": "user",
    "methods": {},
    "version": 1
  }
}