{
  "contractName": "SupplyChainUser",
  "abi": [
    {
      "inputs": [
        {
          "internalType": "address",
          "name": "_supplyChainAddress",
          "type": "address"
        }
      ],
      "stateMutability": "nonpayable",
      "type": "constructor"
    },
    {
      "anonymous": false,
      "inputs": [
        {
          "indexed": true,
          "internalType": "address",
          "name": "previousOwner",
          "type": "address"
        }
      ],
      "name": "OwnershipRenounced",
      "type": "event"
    },
    {
      "anonymous": false,
      "inputs": [
        {
          "indexed": true,
          "internalType": "address",
          "name": "previusOwner",
          "type": "address"
        },
        {
          "indexed": true,
          "internalType": "address",
          "name": "newOwner",
          "type": "address"
        }
      ],
      "name": "OwnershipTransferred",
      "type": "event"
    },
    {
      "anonymous": false,
      "inputs": [
        {
          "indexed": true,
          "internalType": "address",
          "name": "user",
          "type": "address"
        },
        {
          "indexed": false,
          "internalType": "string",
          "name": "role",
          "type": "string"
        }
      ],
      "name": "UserRoleUpdate",
      "type": "event"
    },
    {
      "anonymous": false,
      "inputs": [
        {
          "indexed": true,
          "internalType": "address",
          "name": "user",
          "type": "address"
        },
        {
          "indexed": false,
          "internalType": "string",
          "name": "name",
          "type": "string"
        },
        {
          "indexed": false,
          "internalType": "string",
          "name": "email",
          "type": "string"
        },
        {
          "indexed": false,
          "internalType": "string",
          "name": "role",
          "type": "string"
        },
        {
          "indexed": false,
          "internalType": "bool",
          "name": "isActive",
          "type": "bool"
        },
        {
          "indexed": false,
          "internalType": "string",
          "name": "profileHash",
          "type": "string"
        }
      ],
      "name": "UserUpdate",
      "type": "event"
    },
    {
      "inputs": [],
      "name": "owner",
      "outputs": [
        {
          "internalType": "address",
          "name": "",
          "type": "address"
        }
      ],
      "stateMutability": "view",
      "type": "function",
      "constant": true
    },
    {
      "inputs": [],
      "name": "renounceOwnership",
      "outputs": [],
      "stateMutability": "nonpayable",
      "type": "function"
    },
    {
      "inputs": [
        {
          "internalType": "address",
          "name": "newOwner",
          "type": "address"
        }
      ],
      "name": "transferOwnership",
      "outputs": [],
      "stateMutability": "nonpayable",
      "type": "function"
    },
    {
      "inputs": [
        {
          "internalType": "string",
          "name": "_name",
          "type": "string"
        },
        {
          "internalType": "string",
          "name": "_email",
          "type": "string"
        },
        {
          "internalType": "bool",
          "name": "_isActive",
          "type": "bool"
        },
        {
          "internalType": "string",
          "name": "_profileHash",
          "type": "string"
        }
      ],
      "name": "updateUser",
      "outputs": [
        {
          "internalType": "bool",
          "name": "",
          "type": "bool"
        }
      ],
      "stateMutability": "nonpayable",
      "type": "function"
    },
    {
      "inputs": [
        {
          "internalType": "address",
          "name": "_userAddress",
          "type": "address"
        },
        {
          "internalType": "string",
          "name": "_name",
          "type": "string"
        },
        {
          "internalType": "string",
          "name": "_email",
          "type": "string"
        },
        {
          "internalType": "string",
          "name": "_role",
          "type": "string"
        },
        {
          "internalType": "bool",
          "name": "_isActive",
          "type": "bool"
        },
        {
          "internalType": "string",
          "name": "_profileHash",
          "type": "string"
        }
      ],
      "name": "updateUserForAdmin",
      "outputs": [
        {
          "internalType": "bool",
          "name": "",
          "type": "bool"
        }
      ],
      "stateMutability": "nonpayable",
      "type": "function"
    },
    {
      "inputs": [
        {
          "internalType": "address",
          "name": "_userAddress",
          "type": "address"
        }
      ],
      "name": "getUser",
      "outputs": [
        {
          "internalType": "string",
          "name": "name",
          "type": "string"
        },
        {
          "internalType": "string",
          "name": "email",
          "type": "string"
        },
        {
          "internalType": "string",
          "name": "role",
          "type": "string"
        },
        {
          "internalType": "bool",
          "name": "isActive",
          "type": "bool"
        },
        {
          "internalType": "string",
          "name": "profileHash",
          "type": "string"
        }
      ],
      "stateMutability": "view",
      "type": "function",
      "constant": true
    }
  ],
  "bytecode": "0x60806040523480156200001157600080fd5b506040516200121e3803806200121e833981810160405281019062000037919062000129565b336000806101000a81548173ffffffffffffffffffffffffffffffffffffffff021916908373ffffffffffffffffffffffffffffffffffffffff16021790555080600160006101000a81548173ffffffffffffffffffffffffffffffffffffffff021916908373ffffffffffffffffffffffffffffffffffffffff160217905550506200015b565b600080fd5b600073ffffffffffffffffffffffffffffffffffffffff82169050919050565b6000620000f182620000c4565b9050919050565b6200010381620000e4565b81146200010f57600080fd5b50565b6000815190506200012381620000f8565b92915050565b600060208284031215620001425762000141620000bf565b5b6000620001528482850162000112565b91505092915050565b6110b3806200016b6000396000f3fe608060405234801561001057600080fd5b50600436106100625760003560e01c806301cf5b6e146100675780631e7d76aa146100975780636f77926b146100c7578063715018a6146100fb5780638da5cb5b14610105578063f2fde38b14610123575b600080fd5b610081600480360381019061007c9190610ab3565b61013f565b60405161008e9190610b7d565b60405180910390f35b6100b160048036038101906100ac9190610bf6565b61039e565b6040516100be9190610b7d565b60405180910390f35b6100e160048036038101906100dc9190610cf3565b6105a0565b6040516100f2959493929190610da8565b60405180910390f35b6101036106b0565b005b61010d6107ae565b60405161011a9190610e26565b60405180910390f35b61013d60048036038101906101389190610cf3565b6107d2565b005b60008073ffffffffffffffffffffffffffffffffffffffff163373ffffffffffffffffffffffffffffffffffffffff16141561017a57600080fd5b6000600160009054906101000a900473ffffffffffffffffffffffffffffffffffffffff1673ffffffffffffffffffffffffffffffffffffffff16636f77926b336040518263ffffffff1660e01b81526004016101d79190610e26565b60006040518083038186803b1580156101ef57600080fd5b505afa158015610203573d6000803e3d6000fd5b505050506040513d6000823e3d601f19601f8201168201806040525081019061022c9190610ec6565b5050925050506000600160009054906101000a900473ffffffffffffffffffffffffffffffffffffffff1673ffffffffffffffffffffffffffffffffffffffff1663fb7a20af338989868a8a6040518763ffffffff1660e01b815260040161029996959493929190610fb1565b602060405180830381600087803b1580156102b357600080fd5b505af11580156102c7573d6000803e3d6000fd5b505050506040513d601f19601f820116820180604052508101906102eb919061102e565b90503373ffffffffffffffffffffffffffffffffffffffff167f913673700610456ef7bb668e20badb980d1e4df0ba5bfbdbb6e7bfb0ddbcc6c9888885898960405161033b959493929190610da8565b60405180910390a23373ffffffffffffffffffffffffffffffffffffffff167f3b419384c2ac88d62e2daac72f8c6e6398c474d91c63e814a307e3641762c8de83604051610389919061105b565b60405180910390a28092505050949350505050565b60008060009054906101000a900473ffffffffffffffffffffffffffffffffffffffff1673ffffffffffffffffffffffffffffffffffffffff163373ffffffffffffffffffffffffffffffffffffffff16146103f957600080fd5b600073ffffffffffffffffffffffffffffffffffffffff168773ffffffffffffffffffffffffffffffffffffffff16141561043357600080fd5b6000600160009054906101000a900473ffffffffffffffffffffffffffffffffffffffff1673ffffffffffffffffffffffffffffffffffffffff1663fb7a20af8989898989896040518763ffffffff1660e01b815260040161049a96959493929190610fb1565b602060405180830381600087803b1580156104b457600080fd5b505af11580156104c8573d6000803e3d6000fd5b505050506040513d601f19601f820116820180604052508101906104ec919061102e565b90508773ffffffffffffffffffffffffffffffffffffffff167f913673700610456ef7bb668e20badb980d1e4df0ba5bfbdbb6e7bfb0ddbcc6c9888888888860405161053c959493929190610da8565b60405180910390a28773ffffffffffffffffffffffffffffffffffffffff167f3b419384c2ac88d62e2daac72f8c6e6398c474d91c63e814a307e3641762c8de8660405161058a919061105b565b60405180910390a2809150509695505050505050565b606080606060006060600073ffffffffffffffffffffffffffffffffffffffff168673ffffffffffffffffffffffffffffffffffffffff1614156105e357600080fd5b600160009054906101000a900473ffffffffffffffffffffffffffffffffffffffff1673ffffffffffffffffffffffffffffffffffffffff16636f77926b876040518263ffffffff1660e01b815260040161063e9190610e26565b60006040518083038186803b15801561065657600080fd5b505afa15801561066a573d6000803e3d6000fd5b505050506040513d6000823e3d601f19601f820116820180604052508101906106939190610ec6565b809550819650829750839850849950505050505091939590929450565b60008054906101000a900473ffffffffffffffffffffffffffffffffffffffff1673ffffffffffffffffffffffffffffffffffffffff163373ffffffffffffffffffffffffffffffffffffffff161461070857600080fd5b60008054906101000a900473ffffffffffffffffffffffffffffffffffffffff1673ffffffffffffffffffffffffffffffffffffffff167ff8df31144d9c2f0f6b59d69b8b98abd5459d07f2742c4df920b25aae33c6482060405160405180910390a260008060006101000a81548173ffffffffffffffffffffffffffffffffffffffff021916908373ffffffffffffffffffffffffffffffffffffffff160217905550565b60008054906101000a900473ffffffffffffffffffffffffffffffffffffffff1681565b60008054906101000a900473ffffffffffffffffffffffffffffffffffffffff1673ffffffffffffffffffffffffffffffffffffffff163373ffffffffffffffffffffffffffffffffffffffff161461082a57600080fd5b600073ffffffffffffffffffffffffffffffffffffffff168173ffffffffffffffffffffffffffffffffffffffff16141561086457600080fd5b8073ffffffffffffffffffffffffffffffffffffffff1660008054906101000a900473ffffffffffffffffffffffffffffffffffffffff1673ffffffffffffffffffffffffffffffffffffffff167f8be0079c531659141344cd1fd0a4f28419497f9722a3daafe3b4186f6b6457e060405160405180910390a3806000806101000a81548173ffffffffffffffffffffffffffffffffffffffff021916908373ffffffffffffffffffffffffffffffffffffffff16021790555050565b6000604051905090565b600080fd5b600080fd5b600080fd5b600080fd5b6000601f19601f8301169050919050565b7f4e487b7100000000000000000000000000000000000000000000000000000000600052604160045260246000fd5b6109888261093f565b810181811067ffffffffffffffff821117156109a7576109a6610950565b5b80604052505050565b60006109ba610921565b90506109c6828261097f565b919050565b600067ffffffffffffffff8211156109e6576109e5610950565b5b6109ef8261093f565b9050602081019050919050565b82818337600083830152505050565b6000610a1e610a19846109cb565b6109b0565b905082815260208101848484011115610a3a57610a3961093a565b5b610a458482856109fc565b509392505050565b600082601f830112610a6257610a61610935565b5b8135610a72848260208601610a0b565b91505092915050565b60008115159050919050565b610a9081610a7b565b8114610a9b57600080fd5b50565b600081359050610aad81610a87565b92915050565b60008060008060808587031215610acd57610acc61092b565b5b600085013567ffffffffffffffff811115610aeb57610aea610930565b5b610af787828801610a4d565b945050602085013567ffffffffffffffff811115610b1857610b17610930565b5b610b2487828801610a4d565b9350506040610b3587828801610a9e565b925050606085013567ffffffffffffffff811115610b5657610b55610930565b5b610b6287828801610a4d565b91505092959194509250565b610b7781610a7b565b82525050565b6000602082019050610b926000830184610b6e565b92915050565b600073ffffffffffffffffffffffffffffffffffffffff82169050919050565b6000610bc382610b98565b9050919050565b610bd381610bb8565b8114610bde57600080fd5b50565b600081359050610bf081610bca565b92915050565b60008060008060008060c08789031215610c1357610c1261092b565b5b6000610c2189828a01610be1565b965050602087013567ffffffffffffffff811115610c4257610c41610930565b5b610c4e89828a01610a4d565b955050604087013567ffffffffffffffff811115610c6f57610c6e610930565b5b610c7b89828a01610a4d565b945050606087013567ffffffffffffffff811115610c9c57610c9b610930565b5b610ca889828a01610a4d565b9350506080610cb989828a01610a9e565b92505060a087013567ffffffffffffffff811115610cda57610cd9610930565b5b610ce689828a01610a4d565b9150509295509295509295565b600060208284031215610d0957610d0861092b565b5b6000610d1784828501610be1565b91505092915050565b600081519050919050565b600082825260208201905092915050565b60005b83811015610d5a578082015181840152602081019050610d3f565b83811115610d69576000848401525b50505050565b6000610d7a82610d20565b610d848185610d2b565b9350610d94818560208601610d3c565b610d9d8161093f565b840191505092915050565b600060a0820190508181036000830152610dc28188610d6f565b90508181036020830152610dd68187610d6f565b90508181036040830152610dea8186610d6f565b9050610df96060830185610b6e565b8181036080830152610e0b8184610d6f565b90509695505050505050565b610e2081610bb8565b82525050565b6000602082019050610e3b6000830184610e17565b92915050565b6000610e54610e4f846109cb565b6109b0565b905082815260208101848484011115610e7057610e6f61093a565b5b610e7b848285610d3c565b509392505050565b600082601f830112610e9857610e97610935565b5b8151610ea8848260208601610e41565b91505092915050565b600081519050610ec081610a87565b92915050565b600080600080600060a08688031215610ee257610ee161092b565b5b600086015167ffffffffffffffff811115610f0057610eff610930565b5b610f0c88828901610e83565b955050602086015167ffffffffffffffff811115610f2d57610f2c610930565b5b610f3988828901610e83565b945050604086015167ffffffffffffffff811115610f5a57610f59610930565b5b610f6688828901610e83565b9350506060610f7788828901610eb1565b925050608086015167ffffffffffffffff811115610f9857610f97610930565b5b610fa488828901610e83565b9150509295509295909350565b600060c082019050610fc66000830189610e17565b8181036020830152610fd88188610d6f565b90508181036040830152610fec8187610d6f565b905081810360608301526110008186610d6f565b905061100f6080830185610b6e565b81810360a08301526110218184610d6f565b9050979650505050505050565b6000602082840312156110445761104361092b565b5b600061105284828501610eb1565b91505092915050565b600060208201905081810360008301526110758184610d6f565b90509291505056fea26469706673582212205b8d4494c0ee48eb0d32820882887188752a76dd83493da4259790201b95413e64736f6c63430008090033",
  "immutableReferences": {},
  "source": "//SPDX-License-Identifier: MIT\n\npragma solidity ^0.8.9;\n\nimport \"./SupplyChainStorage.sol\";\nimport \"./Ownable.sol\";\n\ncontract SupplyChainUser is Ownable {\n    event UserUpdate(\n        address indexed user,\n        string name,\n        string email,\n        string role,\n        bool isActive,\n        string profileHash\n    );\n    event UserRoleUpdate(address indexed user, string role);\n\n    SupplyChainStorage supplyChainStorage;\n\n    constructor(address _supplyChainAddress) {\n        supplyChainStorage = SupplyChainStorage(_supplyChainAddress);\n    }\n\n    function updateUser(\n        string memory _name,\n        string memory _email,\n        // string memory _role,\n        bool _isActive,\n        string memory _profileHash\n    ) public returns (bool) {\n        require(msg.sender != address(0));\n\n        (, , string memory lastRole, , ) = supplyChainStorage.getUser(\n            msg.sender\n        );\n\n        bool status = supplyChainStorage.setUser(\n            msg.sender,\n            _name,\n            _email,\n            lastRole,\n            // _role,\n            _isActive,\n            _profileHash\n        );\n\n        emit UserUpdate(\n            msg.sender,\n            _name,\n            _email,\n            lastRole,\n            // _role,\n            _isActive,\n            _profileHash\n        );\n        emit UserRoleUpdate(msg.sender, lastRole);\n\n        return status;\n    }\n\n    function updateUserForAdmin(\n        address _userAddress,\n        string memory _name,\n        string memory _email,\n        string memory _role,\n        bool _isActive,\n        string memory _profileHash\n    ) public onlyOwner returns (bool) {\n        require(_userAddress != address(0));\n\n        bool status = supplyChainStorage.setUser(\n            _userAddress,\n            _name,\n            _email,\n            _role,\n            _isActive,\n            _profileHash\n        );\n\n        emit UserUpdate(\n            _userAddress,\n            _name,\n            _email,\n            _role,\n            _isActive,\n            _profileHash\n        );\n        emit UserRoleUpdate(_userAddress, _role);\n\n        return status;\n    }\n\n    function getUser(address _userAddress)\n        public\n        view\n        returns (\n            string memory name,\n            string memory email,\n            string memory role,\n            bool isActive,\n            string memory profileHash\n        )\n    {\n        require(_userAddress != address(0));\n\n        (name, email, role, isActive, profileHash) = supplyChainStorage.getUser(\n            _userAddress\n        );\n\n        return (name, email, role, isActive, profileHash);\n    }\n}\n",
  "sourcePath": "/home/nathalia/TESIS/coffee-supply-chain-tracking-system-ethereum/contracts/SupplyChainUser.sol",
  "compiler": {
    "name": "solc",
    "version": "0.8.9+commit.e5eed63a.Emscripten.clang"
  },
  "schemaVersion": "3.4.4",
  "updatedAt": "2022-05-31T07:13:06.139Z",
  "networkType": "ethereum",
  "devdoc": {
    "kind": "dev",
    "methods": {},
    "version": 1
  },
  "userdoc": {
    "kind": "user",
    "methods": {},
    "version": 1
  }
}